:100000000C9454000C949B000C949B000C949B004B
:100010000C949B000C949B000C949B000C949B00F4
:100020000C949B000C949B000C949B000C949B00E4
:100030000C949B000C949B000C949B000C949B00D4
:100040000C949B000C949B000C949B000C949B00C4
:100050000C949B000C949B000C949B000C949B00B4
:100060000C949B000C949B000C949B000C949B00A4
:100070000C949B000C949B000C949B000C949B0094
:100080000C949B000C949B000C949B000C949B0084
:100090000C949B000C949B000C949B000C949B0074
:1000A0002800280600013A0011241FBECFEFCDBF63
:1000B000DFE3DEBFE0EAF0E040E017C0B591A591D4
:1000C00035912591059107FD0CC095918591EF0122
:1000D000F92FE82F05900D92A217B307D9F7FE016B
:1000E00004C01D92A217B307E1F7E73AF40731F70E
:0C00F0000E947E000C947C00F894FFCF6E
:1000FC00E0E4F4E08FEF818380910528848385E030
:10010C00A0E4B4E001C086E08150E2ECF2EA319761
:10011C00F1F700C0E82FF0E0E050F84D9081149614
:0A012C009C931497882379F3EFCF1A
:040136000C94000025
:06013A0020100804020180
:00000001FF
