:100000000C9468000C94CA0E0C94CA0E0C94CA0E80
:100010000C94CA0E0C94CA0E0C94CA0E0C94CA0E00
:100020000C94CA0E0C94CA0E0C94CA0E0C94CA0EF0
:100030000C94940E0C94CA0E0C94CA0E0C94CA0E16
:100040000C94CA0E0C94CA0E0C94CA0E0C94CA0ED0
:100050000C94CA0E0C94CA0E0C94CA0E0C94CA0EC0
:100060000C94CA0E0C94CA0E0C94CA0E0C94CA0EB0
:100070000C94CA0E0C94CA0E0C94CA0E0C94CA0EA0
:100080000C94CA0E0C94CA0E0C94CA0E0C94CA0E90
:100090000C94CA0E0C94CA0E0C94CA0E0C94CA0E80
:1000A00022042204510456046C0422042204510444
:1000B00056042800382C80382C3838001D9A3838DF
:1000C000388F80388F3890001D65389038968000C2
:1000D00011241FBECFEFCDBFDFE3DEBFE2EBF0E0C8
:1000E00040E017C0B591A59135912591059107FD87
:1000F0000CC095918591EF01F92FE82F05900D9295
:10010000A217B307D9F7FE0104C01D92A217B307C7
:10011000E1F7EF3CF40731F70E94FB0B0C949000E1
:04012000F894FFCF81
:100124004F925F926F927F928F929F92AF92BF9203
:10013400CF92DF92EF92FF920F93CF93DF934C0114
:100144006B015A012901CA010E94F20A3C01892B60
:1001540009F408C188E290E00E94F20AEC01892BBC
:1001640059F06F8A788E81E0A81AB1086A0C7B1C5A
:10017400C114D10429F420C0C3010E94CC0EF2C0E2
:10018400D6018C91898F8C918823A1F0AE01465EB3
:100194005F4FF6013196B8E0CB0ED11CCF0121910F
:1001A400DA012D93AD01DC018C91882319F0EC1553
:1001B400FD05A1F718A201C0198E043008F003E070
:1001C4000E8B09A31AA26E01B2E0CB0ED11CC6019C
:1001D4000E94BF0ECE010C960E94BF0EC887D9871D
:1001E40084E090E0801B91098C879D87CA8BDB8B10
:1001F40084E0FE01B396DF011D928A95E9F71FA200
:10020400A201B401C3010E94340E88839983E114CE
:10021400F10419F0F701C083D1830FB6F8940F925B
:10022400809195388F5F8093953880917A3890913A
:100234007B38892BA9F5C0937A38D0937B38809189
:1002440095388130E9F588E098E30E94550E81E104
:1002540098E30E94550E8AE198E30E94550E83E2CA
:1002640098E30E94550E83E598E30E94550E8AE4B4
:1002740098E30E94550E81E498E30E94550E88E3AA
:1002840098E30E94550E83E598E380937838909321
:1002940079388AE498E3809376389093773810C05D
:1002A4008091933881110CC0E0917A38F0917B38B9
:1002B40096898E89891720F0C0937A38D0937B3839
:1002C400809190388F5F809390388E899091943884
:1002D400981710F48093943890E0FC01EE0FFF1F00
:1002E400EE0FFF1FEE0FFF1F8E0F9F1FFC01E85F35
:1002F400F74C0180F281E02DEC83FD8384819581AC
:100304008E839F83A481B5811296CD92DC9213973C
:10031400C482D582EE89F0E0CF01880F991F880F3F
:10032400991F880F991FE80FF91FE85FF74CEA87B8
:10033400FB8780818F5F80830F900FBE80919338FD
:10034400882361F0E0917A38F0917B3896898E8920
:10035400981730F40E94ED0881E005C081E003C0E5
:1003640081E001C08FEFDF91CF910F91FF90EF906B
:10037400DF90CF90BF90AF909F908F907F906F90C1
:060384005F904F90089508
:10038A000F931F93CF93DF9380918E38811102C10F
:10039A00C0917438D09175388E010F5F1F4F00934A
:1003AA0074381093753801151105B9F480917838AD
:1003BA00909179382091763830917738209378382F
:1003CA003093793880937638909377388091913842
:1003DA008F5F809391380E94C50D809170389091FB
:1003EA0071380817190710F480E0B8C080E0E0916E
:1003FA007838F09179389081911107C02FEF3FEF4B
:10040A002093703830937138A9C0E0917838F09110
:10041A0079380580F681E02D0680F781E02D22816A
:10042A0033810217130728F42093703830937138F8
:10043A0095C0A285B3852481358146815781E9011A
:10044A004C835D832681378144815581E9014A8342
:10045A005B83AF014E5F5F4F11962D913C911297CE
:10046A002417350731F42681378111962D933C9351
:10047A001297128613869C9191509C93A489B589F0
:10048A00109719F12685378560897189E9016C838E
:10049A007D832089318966857785E9016A837B8333
:1004AA0011966D917C9112979F01245F3F4F6217BD
:1004BA00730731F42089318911962D933C93129751
:1004CA00148A158A9C9191509C932689909194380C
:1004DA00921710F42093943830E0D901AA0FBB1F69
:1004EA00AA0FBB1FAA0FBB1F2A0F3B1FD901A85F68
:1004FA00B74C11960D90BC91A02DA483B583149688
:10050A002D913C9115972683378314962D913C9112
:10051A001597E9014A835B8314964D935C9315976B
:10052A00A689B0E09D01220F331F220F331F220F2D
:10053A00331FA20FB31FA85FB74CA287B3879C9142
:10054A009F5F9C93A0917A38B0917B382689569602
:10055A009C91291708F44BCF81E049CFE0917A3872
:10056A00F0917B38268930E0F901EE0FFF1FEE0F7C
:10057A00FF1FEE0FFF1F2E0F3F1FF901E85FF74C19
:10058A009081923008F081E090919238992361F03D
:10059A0081E00AC0809172389091733801968093F5
:1005AA0072389093733880E0DF91CF911F910F9149
:0205BA000895A2
:1005BC001F93CF93DF930FB6F8940F9280918E38E0
:1005CC00815080938E3880918E388111C6C0809175
:1005DC00953881119BC0C4C0DB011596ED91FC913F
:1005EC0016970680F781E02DA489B58986859785B5
:1005FC0020893189EC012C833D8380899189268562
:10060C003785EC012A833B83CF010C9611962D91F3
:10061C003C9112972817390731F4808991891196EA
:10062C008D939C931297148A158A8C9181508C937C
:10063C00A285B3858481958126813781EC012C8339
:10064C003D838681978124813581EC012A833B830C
:10065C009F012E5F3F4F11968D919C91129782179F
:10066C00930731F48681978111968D939C93129701
:10067C00128613868C9181508C9386899091943834
:10068C00981710F48093943890E0DC01AA0FBB1FEC
:10069C00AA0FBB1FAA0FBB1F8A0F9B1FDC01A85FF1
:1006AC00B74C11960D90BC91A02DA483B5831496D4
:1006BC008D919C9115978683978314968D919C911F
:1006CC001597EC012A833B8314962D933C93159735
:1006DC00A689B0E0CD01880F991F880F991F880F4C
:1006EC00991FA80FB91FA85FB74CA287B3878C912D
:1006FC008F5F8C93A0917A38B0917B3896895696FF
:10070C008C91981740F04093923805C0E0E0F0E0EF
:10071C0061E478E341E0DB018C9181115DCFEF2B3B
:10072C0011F00E94C50DC0917238D091733820978A
:10073C0061F011E00E94C50181111093923821974C
:10074C00C9F71092723810927338809192388823BE
:10075C0031F00E94ED0881E003C080E001C080E030
:0C076C000F900FBEDF91CF911F910895F8
:10077800CF93DF93CDB7DEB72697CDBFDEBFCE01CF
:1007880001965C01082F1B2DE0918438F091853883
:100798008081882309F4B3C00580F681E02DE080CC
:1007A800F1800E94B30EC5010E94B00A6C018981D4
:1007B80081111BC0CE14DF0438F00E94DE02B6019E
:1007C800C7010E94890C8EC040E0B7016C197D09F1
:1007D80080918038909181380E94A80D0E94DE0295
:1007E800811180C00E94ED087DC00E94DE027AC09F
:1007F800898188230CF476C0EC80FD80D7011A9695
:100808008D919C911B97892B21F0C70102960E941C
:10081800B40CCE0106960E94B00A6C01E9818E2FB5
:10082800EE0F990BAA0BBB0BFC013197E930F105D0
:1008380008F058C0E05BFF4F0C94B90EF7018289AD
:100848008160828B2A813B8164857585620F731F65
:10085800A601C7010E942B0C882309F443C0D701C5
:1008680052968C91529782FF0DC06A817B811C96AB
:100878008D919C911D97680F791FA601C7010E9451
:10088800DB0C03C08E7FF701828BD7015096ED9168
:10089800FC915197C701099525C0F70182898E7F80
:1008A800828B20C0D70152968C91529781605296C4
:1008B8008C9352976A817B811C966D937C931D97CC
:1008C8006C0D7D1D9601A601C7010E942B0C0AC064
:1008D800F701828981FD04C0C7010E94CC0E02C0C5
:1008E8008E7F828B40E050E0602F712F809180389E
:1008F800909181380E94F10581117ACF45CF0E94ED
:10090800B30EC5010E94B00A6C01898181116DCFB7
:10091800E0918238F0918338808141E0811140E094
:06092800E12CF12C52CF7E
:10092E00CF93DF93DC011596ED91FC91169706801F
:10093E00F781E02DA489B589C685D78580899189EF
:10094E008C839D83C089D189868597858A839B8375
:10095E009F01245F3F4F11968D919C9112978217A4
:10096E00930731F48089918911968D939C931297F8
:10097E00148A158A8C9181508C9380918E388111B6
:10098E0060C0A285B385C481D581868197818C8311
:10099E009D83C681D781848195818A839B839F01A4
:1009AE002E5F3F4F11968D919C9112978217930750
:1009BE0031F48681978111968D939C9312971286AE
:1009CE0013868C9181508C938689909194389817C8
:1009DE0010F48093943890E0DC01AA0FBB1FAA0F8D
:1009EE00BB1FAA0FBB1F8A0F9B1FDC01A85FB74C52
:1009FE0011960D90BC91A02DA483B58314968D9164
:100A0E009C911597868397831496CD91DC911597BB
:100A1E002A833B8314962D933C931597A689B0E0B9
:100A2E00CD01880F991F880F991F880F991FA80F46
:100A3E00B91FA85FB74CA287B3878C918F5F8C9339
:100A4E001CC041E458E3DA011196CD91DC91129766
:100A5E00C687D7878C819D81808B918B8C819D8160
:100A6E00DC0112962D933C9313972C833D83448B7C
:100A7E00558BDA018C918F5F8C93A0917A38B0915F
:100A8E007B38968956968C91891720F481E0809355
:0C0A9E00923801C080E0DF91CF910895F4
:100AAA00AF92BF92CF92DF92EF92FF920F931F9372
:100ABA00CF93DF93CDB7DEB72597CDBFDEBF8C01CD
:100ACA006B014C835D83A22EB12C7C0188E0E80E79
:100ADA00F11C0FB6F8940F92F801928D838D981736
:100AEA0018F0F2E0AF1219C04A2DB601C8010E94EF
:100AFA003208F8019189992349F0C80141960E9468
:100B0A009704882331F00E94ED0803C081110E94E6
:100B1A00ED080F900FBE81E051C08C819D81892B19
:100B2A0021F40F900FBE80E049C0B11006C0CE017B
:100B3A0001960E946E0EBB24B3940F900FBE0E94C2
:100B4A00B30E0FB6F8940F92F801858D8F3F09F412
:100B5A00158EF801868D8F3F09F4168E0F900FBE01
:100B6A00BE016C5F7F4FCE0101960E942C0B811152
:100B7A001FC00FB6F8940F92F801928D0F900FBE16
:100B8A00838D98130FC06C817D81C7010E94220E4C
:100B9A00C8010E9446090E94DE0281119ACF0E9472
:100BAA00ED0897CFC8010E9446090E94DE0291CF44
:100BBA00C8010E9446090E94DE0280E02596CDBF48
:100BCA00DEBFDF91CF911F910F91FF90EF90DF90E1
:080BDA00CF90BF90AF90089589
:100BE200AF92BF92CF92DF92EF92FF920F931F9339
:100BF200CF93DF93CDB7DEB72597CDBFDEBF8C0194
:100C02005B014C835D83E12C6C0181E1C80ED11C38
:100C12000FB6F8940F92F801F28CFF20A9F0B501FB
:100C2200C8010E94E10DFA94F801F28E80858823B2
:100C320039F0C80108960E94970481110E94ED08BC
:100C42000F900FBE81E052C08C819D81892B21F4CF
:100C52000F900FBE80E04AC0E11006C0CE0101969F
:100C62000E946E0EEE24E3940F900FBE0E94B30E0C
:100C72000FB6F8940F92F801858D8F3F09F4158E07
:100C8200F801868D8F3F09F4168E0F900FBEBE01BC
:100C92006C5F7F4FCE0101960E942C0B81111AC00E
:100CA200C8010E94630E882379F06C817D81C601A0
:100CB2000E94220EC8010E9446090E94DE02811192
:100CC200A7CF0E94ED08A4CFC8010E9446090E9446
:100CD200DE029ECFC8010E9446090E94DE02C801C0
:100CE2000E94630E882309F493CF80E02596CDBF3E
:100CF200DEBFDF91CF911F910F91FF90EF90DF90B8
:080D0200CF90BF90AF9008955F
:100D0A00FF920F931F93CF93DF93EC01F62E00917E
:100D1A0074381091753880917A3890917B380296A0
:100D2A000E94B40CCF3F8FEFD807B1F5FF20A1F195
:100D3A00E8E3F8E3A181B281C0917A38D0917B3897
:100D4A00AC83BD83C0917A38D0917B3814968D914B
:100D5A009C9115978E839F831496CD91DC9115975C
:100D6A0080917A3890917B3802968A839B8380910E
:100D7A007A3890917B38029614968D939C931597A6
:100D8A00A0917A38B0917B381A96ED93FC931B9711
:100D9A0080818F5F80832FC0C00FD11FE0917A3886
:100DAA00F0917B38C283D383C017D10768F460916E
:100DBA007A3870917B3880917638909177386E5F67
:100DCA007F4F0E949A0B17C060917A3870917B38D6
:100DDA0080917838909179386E5F7F4F0E949A0B94
:100DEA008091703890917138C817D90720F4C09350
:100DFA007038D0937138DF91CF911F910F91FF9086
:020E0A00089549
:100E0C0080918E38882321F081E080939238089568
:100E1C001092923820919438822F90E0FC01EE0FC2
:100E2C00FF1FEE0FFF1FEE0FFF1FE80FF91FE85F0C
:100E3C00F74C3081311111C02150822F90E0FC0110
:100E4C00EE0FFF1FEE0FFF1FEE0FFF1FE80FF91F36
:100E5C00E85FF74C3081332379F3AC01440F551F15
:100E6C00440F551F440F551F480F591FDA01A85F37
:100E7C00B74C1196ED91FC9112970280F381E02D05
:100E8C001196ED93FC931297455F574CE417F507B9
:100E9C0029F442815381FD0141835283FC01EE0F01
:100EAC00FF1FEE0FFF1FEE0FFF1F8E0F9F1FFC018A
:100EBC00E85FF74C0180F281E02D86819781809369
:0C0ECC007A3890937B3820939438089576
:100ED800EF92FF920F931F93CF93DF93FC01362F6E
:100EE800892B09F44CC0238D222309F44AC0022F10
:100EF80010E0448DE42EF12C8FEF9FEFB8010E9493
:100F0800FB0D6E157F0508F43EC0EF010FB6F8948F
:100F18000F9260817181CB01249F800D911D112456
:100F280084839583128E62837383015011090E9D09
:100F3800C0010F9D900D1E9D900D1124860F971FC7
:100F4800868397838FEF858F868F31110CC08085BC
:100F5800882389F0CF0108960E949704882359F0C6
:100F68000E94ED0808C0CF0108960E94550ECE01D8
:100F780041960E94550E0F900FBE81E005C080E09B
:100F880003C080E001C080E0DF91CF911F910F91F5
:060F9800FF90EF900895A8
:100F9E000F931F93CF93DF93FC01892B09F451C05C
:100FAE0082A1815082A3268991A1291709F44BC0F1
:100FBE0081114BC0EF018F010E5F1F4FC8010E94C0
:100FCE00B40C89A18E8B24E030E0281B31092C87CC
:100FDE003D8790919438981710F48093943890E050
:100FEE00FC01EE0FFF1FEE0FFF1FEE0FFF1F8E0F08
:100FFE009F1FFC01E85FF74C0180F281E02DEC832E
:10100E00FD83848195818E839F83A481B581129601
:10101E000D931C93139704831583EE89F0E0CF0193
:10102E00880F991F880F991F880F991FE80FF91FB6
:10103E00E85FF74CEA87FB8780818F5F808381E0D2
:10104E0005C080E003C080E001C080E0DF91CF9159
:06105E001F910F9108959F
:101064000F931F93CF93DF93EC01042F1A8D4C8DB4
:1010740041110CC088819981892B09F042C08C816F
:101084009D810E94CF071C821D8242C0011117C09E
:1010940050E08A819B810E94830E2C8D8A819B81E2
:1010A400820F911D8A839B832C813D818217930734
:1010B40050F1888199818A839B8380E029C050E024
:1010C4008E819F810E94830E8C8D90E091958195F5
:1010D40091092E813F81280F391F2E833F83488138
:1010E40059812417350730F42C813D81820F931FD9
:1010F4008E839F83023049F4112349F0115080E01C
:1011040007C080E005C080E003C080E001C080E04B
:0E1114001F5F1A8FDF91CF911F910F910895E9
:101122000F920FB6F8940F921F9211242F923F92B2
:101132004F925F926F927F928F929F92AF92BF92E5
:10114200CF92DF92EF92FF920F931F932F933F93D1
:101152004F935F936F937F938F939F93AF93BF93BD
:10116200CF93DF93EF93FF93A0917A38B0917B38BE
:101172000DB60D920EB60D920E94C50181110E940C
:101182000607A0917A38B0917B38CD91CDBFDD9121
:10119200DEBFFF91EF91DF91CF91BF91AF919F9110
:1011A2008F917F916F915F914F913F912F911F91FD
:1011B2000F91FF90EF90DF90CF90BF90AF909F90F4
:1011C2008F907F906F905F904F903F902F901F90E5
:0811D2000F900FBE0F9018955D
:1011DA000F920FB6F8940F921F9211242F923F92FA
:1011EA004F925F926F927F928F929F92AF92BF922D
:1011FA00CF92DF92EF92FF920F931F932F933F9319
:10120A004F935F936F937F938F939F93AF93BF9304
:10121A00CF93DF93EF93FF93A0917A38B0917B3805
:10122A000DB60D920EB60D920E940607A0917A385D
:10123A00B0917B38CD91CDBFDD91DEBFFF91EF91AB
:10124A00DF91CF91BF91AF919F918F917F916F91D4
:10125A005F914F913F912F911F910F91FF90EF90C6
:10126A00DF90CF90BF90AF909F908F907F906F90BC
:10127A005F904F903F902F901F900F900FBE0F904E
:02128A000895C5
:10128C00EF92FF920F931F93CF938C010FB6F894AC
:10129C000F92FC01C68D1C16ACF48189811106C01D
:1012AC0011C0F8018189811105C00CC07801F1E1F0
:1012BC00EF0EF11CC7010E94970481110E94C30E0E
:1012CC00C15079F78FEFF801868F0F900FBE0FB6D4
:1012DC00F8940F92C58D1C16ACF48085811106C054
:1012EC0011C0F8018085811105C00CC07801F8E0AF
:1012FC00EF0EF11CC7010E94970481110E94C30ECE
:10130C00C15079F78FEFF801858F0F900FBECF91F9
:0A131C001F910F91FF90EF900895CC
:10132600CF93DF931F92CDB7DEB78FEF8093410443
:10133600E0EAF4E080E28183858300E414E08091B2
:101346008C3890918D3840E050E0BE016F5F7F4F42
:101356000E94F105813099F789818033A1F08133AC
:10136600A1F08233A1F08333A1F08433A1F0853359
:10137600A1F08633A1F08733A1F08833A1F0893339
:10138600A1F0EAE013C0E0E011C0E1E00FC0E2E046
:101396000DC0E3E00BC0E4E009C0E5E007C0E6E00D
:1013A60005C0E7E003C0E8E001C0E9E0F0E0E45D85
:0A13B600F74C8081F8018483C2CF58
:1013C0000F931F93CF93DF93FC018B01A181B28117
:1013D00080917A3890917B38EC01AE87BF878091FD
:1013E0007A3890917B3814962D913C911597EC01A9
:1013F000288B398B14968D919C91159720917A3872
:1014000030917B38245F3F4FEC012A833B8320914E
:101410007A3830917B38245F3F4F14962D933C935C
:101420001597A0917A38B0917B385496ED93FC9340
:10143000559790819F5F9083442311F00FEF1FEF2A
:10144000642FC8010E948506DF91CF911F910F91F3
:021450000895FD
:101452006115710509F440C02091022830910328DA
:101462008217930779F4E0E0F0E005C0E1E0F0E0F4
:1014720002C0E1E0F0E0EE0FFF1FEE0FFF1FE050B1
:10148200F84D12C02091002830910128232BE1F45D
:1014920020910628309107288217930739F3E0E05C
:1014A200F8E202C0E4E0F8E23097B1F060837183C1
:1014B2008283938308952091042830910528232B59
:1014C20089F3E0E0F0E0F0CF209106283091072880
:0A14D2008217930771F2EFCF08951F
:1014DC000F931F93CF93DF93282F362F882361F11F
:1014EC00682F70E08FEF9FEF0E94FB0D832F90E031
:1014FC006817790720F1239FC0011124813E4FEF1B
:10150C00940700F5D32FC22F4F960E94F20A8C013C
:10151C000097D1F0D11104C0FC018083918304C0E9
:10152C004F96F80180839183F801C38FD48F61E0CB
:10153C00C8010E946C0708C000E010E005C000E084
:10154C0010E002C000E010E0C801DF91CF911F91C4
:04155C000F9108954E
:101560000F931F93CF93DF938C010E94790EEC01B0
:1015700080917C3890917D38C817D90738F5E09173
:101580008438F09185388081882381F00580F68148
:10159000E02D6FEF7FEF808191810E94890CE091B7
:1015A0008438F091853880818111F0CF8091823824
:1015B000909183388093843890938538E093823873
:1015C000F093833881E0F801808302C0F801108233
:1015D000C0937C38D0937D38CE01DF91CF911F919D
:0415E0000F910895CA
:1015E400CF93DF93EC010E94B30E809186389091E3
:1015F4008738892B31F488E098E280938638909379
:1016040087382097C9F080918838909189389E0155
:10161400280F391F2F3F4FE0340788F482179307B0
:1016240088F4C0918638D0918738C80FD91F209389
:1016340088383093893808C0C0E0D0E005C0C0E0E5
:10164400D0E002C0C0E0D0E00E94DE02CE01DF9113
:04165400CF91089595
:10165800CF93DF930FB6F8940F922091743830919E
:101668007538DB014D915C914F3FBFEF5B0719F176
:10167800EC01E981FA81A0919138B881BA1741F05B
:101688002E173F0728F0FB011082118281E014C059
:101698002E1B3F0B2417350748F4FB01421B530B45
:1016A800408351830E946E0E80E006C0DB011D92CC
:1016B8001C9281E001C080E00F900FBEDF91CF91B6
:0216C800089583
:1016CA00E0E8FAE080E197E28487958781E0858304
:1016DA008083A0917A38B0917B38CD91CDBFDD91CE
:1016EA00DEBFFF91EF91DF91CF91BF91AF919F91B3
:1016FA008F917F916F915F914F913F912F911F91A0
:10170A000F91FF90EF90DF90CF90BF90AF909F9096
:10171A008F907F906F905F904F903F902F901F9087
:0A172A000F900FBE0F900895089570
:10173400CF93DF93EB01488159814F3F2FEF52073D
:1017440021F4FC01A781B0850DC0DC01139601C012
:10175400DF011296ED91FC9113972081318142179C
:101764005307B0F71296ED91FC911397EA83FB832C
:10177400C483D583AC83BD831296CD93DC93139736
:1017840088879987FC0120812F5F2083DF91CF9187
:021794000895B6
:10179600EF92FF920F930F2EFEE6EF2EF8E3FF2E49
:1017A600F02D00E020E030E04EE650E06EE87DE50A
:1017B6008CE89EE00E9492008130A1F40E94230DE5
:1017C600813081F4F8948FEF9FEF80937038909377
:1017D600713881E08093933810927438109275387E
:1017E6000E94650B80918F380F91FF90EF900895BE
:1017F600EF92FF920F930E940F0E0E94450EE12C6E
:10180600F12C00E020E030E04EE650E069E27AE5B7
:1018160083E999E00E94920020E030E04EE650E035
:1018260061E37AE588E89DE00E94920020E030E0DE
:101836004EE650E06AE37AE587E69DE00E94920074
:101846000E94CB0B80E090E00F91FF90EF900895FF
:10185600FC0162837383808791874617570790F050
:10186600421B530B8485958548175907E0F4BF0141
:101876006E5F7F4F80918238909183380E949A0BD9
:1018860080E008954217530718F46217730768F447
:10189600BF016E5F7F4F80918438909185380E949A
:0E18A6009A0B80E0089581E0089581E0089596
:1018B4000FB6F8940F928091803890918138892BDB
:1018C40019F585E698E30E94550E8CE598E30E948D
:1018D400550E85E698E380938438909385388CE59B
:1018E40098E3809382389093833840E065E085E004
:1018F4000E946E0A8093803890938138009721F07B
:0E19040068E57DE50E94290A0F900FBE089548
:10191200EF92FF920F931F93CF93DF938C017B0182
:10192200E0918438F09185380580F681E02DC681FA
:10193200D781CE0102960E94B40C8A8982FF06C02A
:10194200A701B801CE010E94DB0C02C08E7F8A8BF8
:10195200E889F989CE010995DF91CF911F910F9105
:06196200FF90EF900895D4
:10196800CF93DF93FC01A085B185C281D3818481A7
:1019780095818C839D83C481D581828193818A835B
:101988009B8311968D919C911297E817F90731F472
:101998008481958111968D939C9312971086118658
:0E19A8008C9181508C938C91DF91CF9108959A
:1019B600EF92FF920F931F93CF93DF93EC018B016E
:1019C6007A0108C08C859D85080F191FE889F98959
:1019D600CE0109956C857D85600F711F9801A70161
:1019E600CE010E942B0C8111EDCFDF91CF911F917B
:0819F6000F91FF90EF9008959E
:1019FE0056616C6964206469676974210D0A00453B
:101A0E0072726F7221204E6F7420612076616C6944
:101A1E00642064696769742E0D0A007365676D65CD
:101A2E006E740073656E645F6D73670072656365D7
:081A3E006976655F6D736700B6
:101A4600EF92FF920F930E945A0C809180389091EA
:101A56008138892B91F00F2EFEE7EF2EF8E3FF2E4B
:101A6600F02D03E020E030E04CED50E06DE57DE543
:101A76008CEB93E00E94920001C080E00F91FF90F2
:041A8600EF90089540
:101A8A00EF92FF920F931F93CF93DF938C017C0108
:101A9A00C0E0D0E006C0F70181917F010E949C0E50
:101AAA002196F80101900020E9F73197E01BF10B2C
:101ABA00CE17DF0780F3DF91CF911F910F91FF902F
:041ACA00EF900895FC
:101ACE00CF93DF931F92CDB7DEB70E94A40E89830A
:101ADE0080918C3890918D3820E04AE050E0BE0124
:101AEE006F5F7F4F0E94550580918A3890918B3899
:101AFE0020E04AE050E0BE016F5F7F4F0E94550527
:021B0E00E4CF22
:101B1000CF93DF931F92CDB7DEB780918A38909133
:101B20008B3840E050E0BE016F5F7F4F0E94F105AF
:101B3000813099F7898180538A3028F48EEF99E5B6
:101B40000E94450DEACF8DE09AE50E94450DE5CF54
:101B5000CF93DF93EC010FB6F8940F928D8D8F3FEA
:101B600009F41D8E8E8D8F3F09F41E8E0F900FBECF
:101B70008A8D811104C0CE0141960E94E009CE01F8
:0A1B80000E944609DF91CF910895FD
:101B8A00E0917838F09179388081811107C08FEF20
:101B9A009FEF80937038909371380895E091783868
:101BAA00F09179380580F681E02D808191818093CA
:081BBA00703890937138089512
:101BC200FC01448D4423A9F050E026813781240F83
:101BD200351F26833783848195812817390720F0A2
:101BE2008081918186839783CB01668177810E9470
:041BF200830E0895C1
:101BF600AA1BBB1B51E107C0AA1FBB1FA617B7072D
:101C060010F0A61BB70B881F991F5A95A9F7809548
:081C16009095BC01CD01089579
:101C1E0040E061E08AE00E946E0A80938C389093D7
:101C2E008D3840E061E08AE00E946E0A80938A3827
:061C3E0090938B3808951D
:101C4400CF93DF93EB0160917A3870917B38645FB6
:101C54007F4F0E949A0B61E0CE010E948506DF91BE
:041C6400CF9108957F
:101C6800FC0160833197708331971082319720E8A7
:101C780020833197108277974083319750838397D9
:021C88000895BD
:101C8A00E0E0F4E081E0818382E08283E0E0F8E052
:101C9A008DE695E0808791878681806C868308959A
:101CAA00FC010396818392832FEF3FEF23833483D2
:0C1CBA00858396838783908710820895AD
:101CC6000FB6F8940F92FC01928D0F900FBE81E033
:061CD600911180E0089569
:101CDC0020919138FC012083209174383091753813
:061CEC00218332830895FC
:101CF2000FB6F8940F9280917438909175380F90C6
:041D02000FBE089573
:101D0600FB01DC0102C001900D9241505040D8F712
:021D160008952E
:101D1800C8E0D8E388818230E8F30E94ED08FACF62
:101D28000F9301E00093860A0F910E94910818957D
:101D3800E0E0F8E0948195FFFDCF809302080895D4
:101D4800E0E0F8E084818823ECF7809100080895AA
:0D1D5800546D725100546D7220537663007B
:011D6500037A
:0C1D660080918E388F5F80938E38089536
:0C1D7200EE0FFF1F0590F491E02D099486
:081D7E00FC0110861186089596
:081D860081E08093923808957A
:051D8E0049444C450032
:041D94000C940000AB
:021D98000895AC
:0C1D9A003F065B4F666D7D077F67790098
:00000001FF
