:100000000C9456000C9485010C9485010C941001FD
:100010000C9485010C9485010C9485010C94850148
:100020000C9485010C9485010C9485010C94850138
:100030000C9485010C9485010C9485010C94850128
:100040000C9485010C9485010C9485010C94850118
:100050000C9485010C9485010C9485010C94850108
:100060000C9485010C9485010C9485010C948501F8
:100070000C9485010C9485010C9485010C948501E8
:100080000C9485010C9485010C9485010C948501D8
:100090000C9485010C9485010C9485010C948501C8
:1000A0002800280B00030E280B280C8011241FBEEB
:1000B000CFEFCDBFDFE3DEBFE0EAF0E040E017C006
:1000C000B591A59135912591059107FD0CC09591AC
:1000D0008591EF01F92FE82F05900D92A217B30734
:1000E000D9F7FE0104C01D92A217B307E1F7EC3A5D
:1000F000F40731F70E9480000C947E00F894FFCF43
:100100000E94E3008FEF80934104A0E8B4E081E017
:1001100012968C931297E0EAF4E080E1828384E007
:100120008093210450968C93848B848BE0EAF0E0DA
:10013000808180628083E0E0F6E08081816080835E
:10014000E0EEF5E0848181608483E0E0FAE088E01D
:10015000808381818360818386E490E186AB97AB65
:1001600088E391E084AF95AF818180648183808151
:10017000816080837894CC24C394C0E4D1E0E12CE6
:100180006894FF24F4F800E414E00E943801D82EAB
:100190000E945601282F30E08D2D90E082179307A2
:1001A00058F480910B28811107C0C0920B289981C7
:1001B0009111FDCFEA86FB86F901E050F84D808170
:0601C000F8018483E2CF88
:1001C600CF93DF9360917C006E7F8CE790E00E9476
:1001D6007F01E0E6F0E0838186FDFDCFC0E6D0E05A
:1001E6006C8D6B7F8CE790E00E947F016C8D616067
:1001F6008CE790E00E947F01E0E4F1E081818111CB
:10020600FDCFE0E4F1E082E0878382818160828332
:0A02160081E08083DF91CF9108950D
:100220001F920F920FB60F9211248F939F938FEF0F
:100230008093430180910B28882349F010920B286A
:1002400080ED90E080933C0A90933D0A0AC0809133
:100250000B28811106C088E391E080933C0A9093BB
:100260003D0A9F918F910F900FBE0F901F90189590
:10027000E0E0F6E082818F7E8283828180618283EA
:1002800088E0868381E08087838580FFFDCF209191
:100290001006309111063695279536952795ABE7D0
:0C02A000B4E10E947001969587950895C6
:1002AC00E0E0F6E0828182838EE0868381E08087C5
:1002BC00838580FFFDCF2091100630911106369575
:1002CC00279536952795ABE7B4E10E94700196957A
:0402DC008795089565
:1002E000A29FB001B39FC001A39F700D811D112477
:0E02F000911DB29F700D811D1124911D089566
:0C02FE00DC0128ED209334006C9308957F
:04030A000C9400004F
:0B030E003F065B4F666D7D077F677741
:00000001FF
