:100000000C9454000C942D010C942D010C942D0192
:100010000C942D010C942D010C942D010C942D01A8
:100020000C942D010C942D010C942D010C942D0198
:100030000C942D010C942D010C942D010C942D0188
:100040000C942D010C942D010C942D010C942D0178
:100050000C942D010C942D010C942D010C942D0168
:100060000C942D010C942D010C942D010C942D0158
:100070000C942D010C942D010C942D010C942D0148
:100080000C942D010C942D010C942D010C942D0138
:100090000C942D010C942D010C942D010C942D0128
:1000A0002800280B00025E0011241FBECFEFCDBF39
:1000B000DFE3DEBFE0EAF0E040E017C0B591A591D4
:1000C00035912591059107FD0CC095918591EF0122
:1000D000F92FE82F05900D92A217B307D9F7FE016B
:1000E00004C01D92A217B307E1F7E73AF40731F70E
:0C00F0000E947E000C947C00F894FFCF6E
:1000FC008FEF80934104A0E8B4E081E012968C93DA
:10010C001297E0EAF4E080E1828384E0809321049A
:10011C0050968C93848BE0EAF0E08081806280833F
:10012C00E0E0F6E0808181608083E0EEF5E08481A0
:10013C0081608483E0E0FAE088E0808381818360E1
:10014C00818386E490E186AB97AB88E391E084AF42
:10015C0095AF818180648183808181608083E0E0C0
:10016C00F6E00F2EFEE09F2EF02DBB24B394689486
:10017C00AA24A3F800E01AE00F2EF0EDCF2ED12C1C
:10018C00F02D0F2EF8E3EF2EFF24F394F02DC0E4A6
:10019C00D4E0828182839682B086838580FFFDCFF6
:1001AC00208931893695279536952795ABE7B4E1AB
:1001BC000E941E01AC015695479582818F7E8283E9
:1001CC00828180618283A682B086838580FFFDCF89
:1001DC00208931893695279536952795ABE7B4E17B
:1001EC000E941E01969587958417950770F4D80187
:1001FC00DC96ED92FC92DD97BAE624E081E0B150FA
:10020C0020408040E1F700C00DC0D801DC96CD92B3
:10021C00DC92DD97BAE624E081E0B15020408040CA
:10022C00E1F700C0DA01A050B84D8C918C83B1CFAE
:10023C00A29FB001B39FC001A39F700D811D11241B
:0E024C00911DB29F700D811D1124911D08950A
:04025A000C94000000
:0B025E003F065B4F666D7D077F6777F2
:00000001FF
