:100000000C9456000C9444010C9444010C9444014B
:100010000C9444010C9444010C9444010C9444014C
:100020000C9444010C9444010C9444010C9444013C
:100030000C9444010C9444010C9444010C9444012C
:100040000C9444010C9444010C9444010C9444011C
:100050000C9444010C9444010C9444010C9444010C
:100060000C9444010C9444010C9444010C944401FC
:100070000C9444010C9444010C9444010C944401EC
:100080000C9444010C9444010C9444010C944401DC
:100090000C9444010C9444010C9444010C944401CC
:1000A0002800280B00028C280B280F8011241FBE6B
:1000B000CFEFCDBFDFE3DEBFE0EAF0E040E017C006
:1000C000B591A59135912591059107FD0CC09591AC
:1000D0008591EF01F92FE82F05900D92A217B30734
:1000E000D9F7FE0104C01D92A217B307E1F7EC3A5D
:1000F000F40731F70E9480000C947E00F894FFCF43
:100100008FEF80934104A0E8B4E081E012968C93D5
:100110001297E0EAF4E080E1828384E08093210496
:1001200050968C93848BE0EAF0E08081806280833B
:10013000E0E0F6E0808181608083E0EEF5E084819C
:1001400081608483E0E0FAE088E0808381818360DD
:10015000818386E490E186AB97AB88E391E084AF3E
:1001600095AF81818064818380818160808300E09C
:100170001AE00F2EF0EDCF2ED12CF02D0F2EF8E33C
:10018000EF2EFF24F394F02DC0E4D4E00E94F5009C
:100190000E94170120910D2830910E2880910B2884
:1001A00090910C282817390760F4F801E4AEF5AEF9
:1001B000FAE624E081E0F15020408040E1F700C001
:1001C0000BC0F801C4AED5AEFAE624E081E0F150F0
:1001D00020408040E1F700C0E0910B28F0910C280E
:0A01E000E050F84D80818C83D1CFF0
:1001EA00E0E0F6E082818F7E828382818061828371
:1001FA0088E0868381E08087838580FFFDCF209118
:10020A001006309111063695279536952795ABE756
:10021A00B4E10E9435019695879580930D289093B5
:04022A000E280895FD
:10022E00E0E0F6E0828182838EE0868381E0808743
:10023E00838580FFFDCF20911006309111063695F3
:10024E00279536952795ABE7B4E10E943501969533
:0C025E00879580930B2890930C2808953E
:10026A00A29FB001B39FC001A39F700D811D1124ED
:0E027A00911DB29F700D811D1124911D0895DC
:040288000C940000D2
:0B028C003F065B4F666D7D077F6777C4
:00000001FF
