:100000000C9450000C9476000C9476000C947600BE
:100010000C9476000C9476000C9476000C94760088
:100020000C9476000C9476000C9476000C94760078
:100030000C9476000C9476000C9476000C94760068
:100040000C9476000C9476000C9476000C94760058
:100050000C9476000C9476000C9476000C94760048
:100060000C9476000C9476000C9476000C94760038
:100070000C9476000C9476000C9476000C94760028
:100080000C9476000C9476000C9476000C94760018
:100090000C9476000C9476000C9476000C94760008
:1000A00011241FBECFEFCDBFDFE3DEBF0E945C0097
:0800B0000C945A00F894FFCFF4
:1000B800E0EAF4E080818062808325E186E195E0D2
:1000C800215080409040E1F785898068858B25E143
:1000D80086E195E0215080409040E1F785898F774F
:0400E800858BEBCF4A
:0400EC000C94000070
:00000001FF
