:100000000C945A000C942C010C942C010C942C018F
:100010000C94F4000C942C010C9411010C942C0100
:100020000C942C010C942C010C942C010C942C019C
:100030000C942C010C942C010C942C010C942C018C
:100040000C942C010C942C010C942C010C942C017C
:100050000C942C010C942C010C942C010C942C016C
:100060000C942C010C942C010C942C010C942C015C
:100070000C942C010C942C010C942C010C942C014C
:100080000C942C010C942C010C942C010C942C013C
:100090000C942C010C942C010C942C010C942C012C
:1000A0002800280B00025C280B280D80280D280E44
:1000B0000002670011241FBECFEFCDBFDFE3DEBF1C
:1000C000E0EAF0E040E017C0B591A59135912591A7
:1000D000059107FD0CC095918591EF01F92FE82F4F
:1000E00005900D92A217B307D9F7FE0104C01D9227
:1000F000A217B307E1F7E33BF40731F70E9484004E
:080100000C948200F894FFCF7B
:100108000E94C800E0E0F4E080E18283A0EAB4E065
:1001180080E211968C93119715968C938FEF8093AC
:1001280041048AE0848B789420EA34E090E249E044
:1001380060E474E0A0E5B0E080910D288823E1F345
:1001480080910D28811101C0F89480910C28893084
:1001580028F480910C28E42FE81B21F4E9019F83FF
:10016800E1E004C0E23010F4E9019F83F0E0E050E0
:10017800F84D8081FB0184838C9181608C938895F4
:080188008C918E7F8C93D8CF7F
:10019000CF93DF9360917C006E7F8CE790E00E94AC
:1001A0002601E0E6F0E0838186FDFDCFC0E6D0E0E9
:1001B0006C8D6B7F8CE790E00E9426016C8D6160F6
:1001C0008CE790E00E942601E0E4F1E0818181115A
:1001D000FDCFE0E4F1E082E0878381E0828B89E576
:0801E000808BDF91CF9108959F
:1001E8001F920F920FB60F9211248F938FEF809367
:1001F800530180910B288F5F80930B28883039F446
:1002080080910C288F5F80930C2810920B288F9177
:0A0218000F900FBE0F901F90189575
:100222001F920F920FB60F9211248F938FEF80932C
:10023200090480910C28893010F410920D288F91B6
:0A0242000F900FBE0F901F9018954B
:0C024C00DC0128ED209334006C93089531
:040258000C94000002
:0B025C00003F065B4F666D7D077F676B
:010267000195
:00000001FF
