:100000000C945A000C942A010C942A010C942A0195
:100010000C94F6000C942A010C9413010C942A0100
:100020000C942A010C942A010C942A010C942A01A4
:100030000C942A010C942A010C942A010C942A0194
:100040000C942A010C942A010C942A010C942A0184
:100050000C942A010C942A010C942A010C942A0174
:100060000C942A010C942A010C942A010C942A0164
:100070000C942A010C942A010C942A010C942A0154
:100080000C942A010C942A010C942A010C942A0144
:100090000C942A010C942A010C942A010C942A0134
:1000A0002800280B000258280B280D80280D280E48
:1000B0000002630011241FBECFEFCDBFDFE3DEBF20
:1000C000E0EAF0E040E017C0B591A59135912591A7
:1000D000059107FD0CC095918591EF01F92FE82F4F
:1000E00005900D92A217B307D9F7FE0104C01D9227
:1000F000A217B307E1F7E33BF40731F70E9484004E
:080100000C948200F894FFCF7B
:100108000E94CA00E0E0F4E080E18283A0EAB4E063
:1001180080E211968C93119715968C938FEF8093AC
:1001280041048AE0848B78949AE020EA34E040E243
:10013800C0E4D4E0E0E5F0E080910D288823E1F305
:1001480080910D28811101C0F894923038F0809187
:100158000C28981B10920C28923020F4D90117967D
:100168004C9306C0911104C0D90117964C9391E0A5
:10017800A92FB0E0A050B84D8C918C83808181600C
:0C0188008083889580818E7F8083D6CF95
:10019400CF93DF9360917C006E7F8CE790E00E94A8
:1001A4002401E0E6F0E0838186FDFDCFC0E6D0E0E7
:1001B4006C8D6B7F8CE790E00E9424016C8D6160F4
:1001C4008CE790E00E942401E0E4F1E08181811158
:1001D400FDCFE0E4F1E082E0878381E0828B89E572
:0801E400808BDF91CF9108959B
:1001EC001F920F920FB60F9211248F938FEF809363
:1001FC00530180910B288F5F80930B28883039F442
:10020C0080910C288F5F80930C2810920B288F9173
:0A021C000F900FBE0F901F90189571
:100226001F920F920FB60F9211248F938FEF809328
:10023600090410920D288F910F900FBE0F901F90FA
:02024600189509
:0C024800DC0128ED209334006C93089535
:040254000C94000006
:0B025800003F065B4F666D7D077F676F
:010263000199
:00000001FF
