:100000000C9454000C94CE000C94CE000C94CE00B2
:100010000C94CE000C94CE000C94BD000C94CE0039
:100020000C94CE000C94CE000C94CE000C94CE0018
:100030000C94CE000C94CE000C94CE000C94CE0008
:100040000C94CE000C94CE000C94CE000C94CE00F8
:100050000C94CE000C94CE000C94CE000C94CE00E8
:100060000C94CE000C94CE000C94CE000C94CE00D8
:100070000C94CE000C94CE000C94CE000C94CE00C8
:100080000C94CE000C94CE000C94CE000C94CE00B8
:100090000C94CE000C94CE000C94CE000C94CE00A8
:1000A0002800280C0001A00011241FBECFEFCDBFF7
:1000B000DFE3DEBFE0EAF0E040E017C0B591A591D4
:1000C00035912591059107FD0CC095918591EF0122
:1000D000F92FE82F05900D92A217B307D9F7FE016B
:1000E00004C01D92A217B307E1F7E73AF40731F70E
:0C00F0000E947E000C947C00F894FFCF6E
:1000FC008FEF80934104E0E0F4E080E182838AE0BA
:10010C00848B7894EBE0F8E221E038E2A0E4B4E0F0
:10011C0080910B288823E1F3829114968C93149789
:10012C00E217F307D9F4A0E0B8E2E0E4F4E08C9134
:10013C0084832AE644E081E0215040408040E1F78E
:10014C0000C011968C91119784839AE624E041E0CB
:10015C00915020404040E1F700C0E9CF8AE29CE298
:0E016C004AE0815090404040E1F70000D1CFC2
:10017A001F920F920FB60F9211248F938FEF8093D5
:10018A00090410920B288F910F900FBE0F901F90A9
:02019A001895B6
:04019C000C940000BF
:0B01A000003F065B4F666D7D077F6728
:0101AB000152
:00000001FF
