:100000000C9454000C94E2000C94E2000C94E20076
:100010000C94E2000C94E2000C94CB000C94E200EF
:100020000C94E2000C94E2000C94E2000C94E200C8
:100030000C94E2000C94E2000C94E2000C94E200B8
:100040000C94E2000C94E2000C94E2000C94E200A8
:100050000C94E2000C94E2000C94E2000C94E20098
:100060000C94E2000C94E2000C94E2000C94E20088
:100070000C94E2000C94E2000C94E2000C94E20078
:100080000C94E2000C94E2000C94E2000C94E20068
:100090000C94E2000C94E2000C94E2000C94E20058
:1000A000280028010001C30011241FBECFEFCDBFDF
:1000B000DFE3DEBFE0EAF0E040E017C0B591A591D4
:1000C00035912591059107FD0CC095918591EF0122
:1000D000F92FE82F05900D92A217B307D9F7FE016B
:1000E00004C01D92A217B307E1F7E73AF40731F70E
:0C00F0000E947E000C947C00F894FFCF6E
:1000FC00CF93DF93CDB7DEB72B97CDBFDEBF8BE0B1
:10010C00E8EBF1E4DE01119601900D928A95E1F78E
:10011C008FEF80934104E0E0F4E080E182838BE098
:10012C00848B789489E0A0E4B4E0E1E0F0E0EC0F9B
:10013C00FD1FE80FF11D908114969C931497882352
:10014C0091F08A30C9F02AE23CE29AE0215030402A
:10015C009040E1F700009FEF980F993030F79091A5
:10016C000028891BE2CF25ED38E082E02150304099
:10017C008040E1F78AE0D9CF95ED28E032E091504C
:0A018C0020403040E1F780E0D0CFC2
:100196001F920F920FB60F9211248F938FEF8093B9
:1001A6000904109200288F910F900FBE0F901F9098
:0201B60018959A
:0B01B8003F065B4F666D7D077F670010
:0101C300013A
:0401C4000C94000097
:00000001FF
