:100000000C9462000C9431180C9431180C94311833
:100010000C9431180C9431180C9431180C9431183C
:100020000C9431180C9431180C9431180C9431182C
:100030000C94FC170C9431180C9431180C94311852
:100040000C9431180C9431180C9431180C9431180C
:100050000C9431180C9431180C9431180C943118FC
:100060000C9431180C9431180C9431180C943118EC
:100070000C9431180C9431180C9431180C943118DC
:100080000C9431180C9431180C9431180C943118CC
:100090000C9431180C9431180C9431180C943118BC
:1000A000FD05FD052C0631064706FD05FD052C0660
:1000B0003106280038A08038A038A100296938A16D
:1000C00038A7800011241FBECFEFCDBFDFE3DEBF16
:1000D000E2EBF0E040E017C0B591A5913591259194
:1000E000059107FD0CC095918591EF01F92FE82F3F
:1000F00005900D92A217B307D9F7FE0104C01D9217
:10010000A217B307E1F7E33CF40731F70E941C0C98
:080110000C948A00F894FFCF63
:10011800ABE0B0E0E2E9F0E00C943F166C017B0143
:100128008A01FC0116821782838181FFCCC1CE012E
:1001380001963C01F6019381F70193FD859193FFA8
:1001480081917F01882309F4BAC1853239F493FD7E
:10015800859193FF81917F01853229F4B60190E062
:100168000E94D611E7CF912C212C312CFFE1F315F9
:10017800D8F08B3279F038F4803279F08332A1F4F8
:10018800232D20611DC08D3261F0803369F4232D49
:10019800216016C0832D8260382EE32DE4603E2E48
:1001A8002AC0F32DF8601DC037FC2DC020ED280FA4
:1001B8002A3040F08E32B9F436FC81C1232D2064F8
:1001C800322E19C036FE06C08AE0989E200D1124F2
:1001D800922E11C0EAE02E9E200D1124222EF32D1E
:1001E800F0623F2E08C08C3621F4832D8068382EAB
:1001F80002C0883641F4F70193FD859193FF819100
:100208007F018111B3CF982F9F7D9554933028F4A7
:100218000C5F1F4F9FE399830DC0833631F08337FE
:1002280071F0833509F059C021C0F80180818983B4
:100238000E5F1F4F88248394912C530113C028010B
:10024800F2E04F0E511CF801A080B18036FE03C0C9
:10025800692D70E002C06FEF7FEFC5010E94C417DF
:100268004C018201F32DFF773F2E16C0280122E0B2
:10027800420E511CF801A080B18036FE03C0692DE2
:1002880070E002C06FEF7FEFC5010E94B9174C0103
:10029800F32DF0683F2E820133FC1BC0822D90E0C5
:1002A80088169906B0F4B60180E290E00E94D61153
:1002B8002A94F4CFF50137FC859137FE81915F01CF
:1002C800B60190E00E94D61121102A9421E0821AEA
:1002D80091088114910471F7E8C0843611F08936C9
:1002E80041F5F80137FE07C06081718182819381F1
:1002F8000C5F1F4F08C060817181072E000C880BAE
:10030800990B0E5F1F4FF32DFF763F2E97FF09C005
:1003180090958095709561957F4F8F4F9F4FF068AE
:100328003F2E2AE030E0A3010E94960E882E861800
:1003380045C0853731F4232D2F7EB22E2AE030E0D8
:1003480025C0932D997FB92E8F36C1F018F48835C2
:1003580079F0B5C0803719F0883721F0B0C0E92F9F
:10036800E061BE2EB4FE0DC0FB2DF460BF2E09C0A7
:1003780034FE0AC0292F2660B22E06C028E030E0DD
:1003880005C020E130E002C020E132E0F801B7FE0C
:1003980007C060817181828193810C5F1F4F06C005
:1003A8006081718180E090E00E5F1F4FA3010E9481
:1003B800960E882E8618FB2DFF773F2E36FE0DC031
:1003C800232D2E7FA22E891458F434FE0BC032FC44
:1003D80009C0832D8E7EA82E05C0B82CA32C03C07F
:1003E800B82C01C0B92CA4FE0FC0FE01E80DF11D08
:1003F8008081803321F49A2D997EA92E09C0A2FE0E
:1004080006C0B394B39404C08A2D867809F0B394D7
:10041800A3FC11C0A0FE06C0B21488F4280C922CCC
:100428009B180EC0B21460F4B60180E290E00E94FE
:10043800D611B394F7CFB21418F42B1802C0982C25
:10044800212CA4FE10C0B60180E390E00E94D611D2
:10045800A2FE17C0A1FC03C088E790E002C088E5AF
:1004680090E0B6010CC08A2D867859F0A1FE02C032
:100478008BE201C080E2A7FC8DE2B60190E00E9409
:10048800D611891438F4B60180E390E00E94D611A1
:100498009A94F7CF8A94F301E80DF11D8081B60193
:1004A80090E00E94D6118110F5CF222009F442CEA7
:1004B800B60180E290E00E94D6112A94F6CFF601A8
:1004C8008681978102C08FEF9FEF2B96E2E10C9413
:0204D80070169C
:1004DA004F925F926F927F928F929F92AF92BF924A
:1004EA00CF92DF92EF92FF920F93CF93DF934C015B
:1004FA006B015A012901CA010E9412123C01892B7F
:10050A0009F408C188E290E00E941212EC01892BDA
:10051A0059F06F8A788E81E0A81AB1086A0C7B1CA0
:10052A00C114D10429F420C0C3010E943518F2C0B5
:10053A00D6018C91898F8C918823A1F0AE01465EF9
:10054A005F4FF6013196B8E0CB0ED11CCF01219155
:10055A00DA012D93AD01DC018C91882319F0EC1599
:10056A00FD05A1F718A201C0198E043008F003E0B6
:10057A000E8B09A31AA26E01B2E0CB0ED11CC601E2
:10058A000E942618CE010C960E942618C887D98781
:10059A0084E090E0801B91098C879D87CA8BDB8B56
:1005AA0084E0FE01B396DF011D928A95E9F71FA246
:1005BA00A201B401C3010E94111788839983E1142F
:1005CA00F10419F0F701C083D1830FB6F8940F92A2
:1005DA008091A6388F5F8093A63880918F3890914A
:1005EA009038892BA9F5C0938F38D0939038809191
:1005FA00A6388130E9F589E298E30E94521782E32E
:10060A0098E30E9452178BE398E30E94521784E4FE
:10061A0098E30E94521788E698E30E9452178FE5E2
:10062A0098E30E94521786E598E30E9452178DE4D8
:10063A0098E30E94521788E698E380938D38909346
:10064A008E388FE598E380938B3890938C3810C05E
:10065A008091A43881110CC0E0918F38F0919038C4
:10066A0096898E89891720F0C0938F38D093903855
:10067A008091A1388F5F8093A1388E899091A53897
:10068A00981710F48093A53890E0FC01EE0FFF1F35
:10069A00EE0FFF1FEE0FFF1F8E0F9F1FFC01E75D7E
:1006AA00F74C0180F281E02DEC83FD8384819581F2
:1006BA008E839F83A481B5811296CD92DC92139783
:1006CA00C482D582EE89F0E0CF01880F991F880F86
:1006DA00991F880F991FE80FF91FE75DF74CEA8702
:1006EA00FB8780818F5F80830F900FBE8091A43833
:1006FA00882361F0E0918F38F091903896898E893D
:10070A00981730F40E94500F81E005C081E003C0C1
:10071A0081E001C08FEFDF91CF910F91FF90EF90B1
:10072A00DF90CF90BF90AF909F908F907F906F9007
:06073A005F904F9008954E
:100740000F931F93CF93DF9380919F38811102C144
:10075000C0918938D0918A388E010F5F1F4F009366
:10076000893810938A3801151105B9F480918D38B4
:1007700090918E3820918B3830918C3820938D3821
:1007800030938E3880938B3890938C388091A23838
:100790008F5F8093A2380E94D61580918538909102
:1007A00086380817190710F480E0B8C080E0E0919F
:1007B0008D38F0918E389081911107C02FEF3FEF67
:1007C0002093853830938638A9C0E0918D38F09118
:1007D0008E380580F681E02D0680F781E02D22819C
:1007E00033810217130728F4209385383093863815
:1007F00095C0A285B3852481358146815781E90161
:100800004C835D832681378144815581E9014A8388
:100810005B83AF014E5F5F4F11962D913C91129714
:100820002417350731F42681378111962D933C9397
:100830001297128613869C9191509C93A489B58936
:10084000109719F12685378560897189E9016C83D4
:100850007D832089318966857785E9016A837B8379
:1008600011966D917C9112979F01245F3F4F621703
:10087000730731F42089318911962D933C93129797
:10088000148A158A9C9191509C9326899091A53841
:10089000921710F42093A53830E0D901AA0FBB1F9E
:1008A000AA0FBB1FAA0FBB1F2A0F3B1FD901A75DB1
:1008B000B74C11960D90BC91A02DA483B5831496CE
:1008C0002D913C9115972683378314962D913C9159
:1008D0001597E9014A835B8314964D935C931597B2
:1008E000A689B0E09D01220F331F220F331F220F74
:1008F000331FA20FB31FA75DB74CA287B3879C918C
:100900009F5F9C93A0918F38B0919038268956961E
:100910009C91291708F44BCF81E049CFE0918F38A3
:10092000F0919038268930E0F901EE0FFF1FEE0FAD
:10093000FF1FEE0FFF1F2E0F3F1FF901E75DF74C62
:100940009081923008F081E09091A338992361F072
:1009500081E00AC080918738909188380196809311
:1009600087389093883880E0DF91CF911F910F9165
:020970000895E8
:100972001F93CF93DF930FB6F8940F9280919F3815
:10098200815080939F3880919F388111C6C0809199
:10099200A63881119BC0C4C0DB011596ED91FC9174
:1009A20016970680F781E02DA489B58986859785FB
:1009B20020893189EC012C833D83808991892685A8
:1009C2003785EC012A833B83CF010C9611962D913A
:1009D2003C9112972817390731F480899189119631
:1009E2008D939C931297148A158A8C9181508C93C3
:1009F200A285B3858481958126813781EC012C8380
:100A02003D838681978124813581EC012A833B8352
:100A12009F012E5F3F4F11968D919C9112978217E5
:100A2200930731F48681978111968D939C93129747
:100A3200128613868C9181508C9386899091A53869
:100A4200981710F48093A53890E0DC01AA0FBB1F21
:100A5200AA0FBB1FAA0FBB1F8A0F9B1FDC01A75D3A
:100A6200B74C11960D90BC91A02DA483B58314961A
:100A72008D919C9115978683978314968D919C9165
:100A82001597EC012A833B8314962D933C9315977B
:100A9200A689B0E0CD01880F991F880F991F880F92
:100AA200991FA80FB91FA75DB74CA287B3878C9176
:100AB2008F5F8C93A0918F38B0919038968956961B
:100AC2008C91981740F04093A33805C0E0E0F0E025
:100AD20066E578E341E0DB018C9181115DCFEF2B7C
:100AE20011F00E94D615C0918738D091883820978E
:100AF20061F011E00E94A00381111093A3382197A5
:100B0200C9F710928738109288388091A3388823C9
:100B120031F00E94500F81E003C080E001C080E00C
:0C0B22000F900FBEDF91CF911F9108953E
:100B2E00CF93DF93CDB7DEB72697CDBFDEBFCE0115
:100B3E0001965C01082F1B2DE0919938F0919A389F
:100B4E008081882309F4B3C00580F681E02DE08012
:100B5E00F1800E941A18C5010E9458116C018981FA
:100B6E0081111BC0CE14DF0438F00E94B904B60107
:100B7E00C7010E941B148EC040E0B7016C197D099D
:100B8E0080919538909196380E949C150E94B904D8
:100B9E00811180C00E94500F7DC00E94B9047AC09E
:100BAE00898188230CF476C0EC80FD80D7011A96DB
:100BBE008D919C911B97892B21F0C70102960E9463
:100BCE004614CE0106960E9458116C01E9818E2FB3
:100BDE00EE0F990BAA0BBB0BFC013197E930F10517
:100BEE0008F058C0E05BFF4F0C942018F701828983
:100BFE008160828B2A813B8164857585620F731FAC
:100C0E00A601C7010E94BD13882309F443C0D70172
:100C1E0052968C91529782FF0DC06A817B811C96F1
:100C2E008D919C911D97680F791FA601C7010E9497
:100C3E006D1403C08E7FF701828BD7015096ED9114
:100C4E00FC915197C701099525C0F70182898E7FC6
:100C5E00828B20C0D70152968C915297816052960A
:100C6E008C9352976A817B811C966D937C931D9712
:100C7E006C0D7D1D9601A601C7010E94BD130AC011
:100C8E00F701828981FD04C0C7010E94351802C098
:100C9E008E7F828B40E050E0602F712F80919538CF
:100CAE00909196380E94E30981117ACF45CF0E9428
:100CBE001A18C5010E9458116C01898181116DCFDE
:100CCE00E0919738F0919838808141E0811140E0B1
:060CDE00E12CF12C52CFC5
:100CE400CF92DF92EF92FF920F931F93CF93DF93F4
:100CF400CDB7DEB72597CDBFDEBF8C016C837D8376
:100D0400C12CD12C7C0181E1E80EF11C0FB6F894C2
:100D14000F92D8015A968C915A978823E9F0815002
:100D24005A968C935A978D919C91892B29F40E9401
:100D3400FF16F80184839583D80118968C91882333
:100D440039F0C80108960E943A0781110E94500F99
:100D54000F900FBE81E080C08C819D81892B21F48E
:100D64000F900FBE80E078C0D11006C0CE0101966E
:100D74000E94A317DD24D3940F900FBE0E941A186B
:100D84000FB6F8940F92F801858D8F3F09F4158EF4
:100D9400D8015E968C915E978F3F11F45E961C92FB
:100DA4000F900FBEBE016C5F7F4FCE0101960E9473
:100DB4004C12811129C0C8010E9498178823F1F0B0
:100DC400F80180819181892B51F40FB6F8940F9228
:100DD400848195810E94770AC82E0F900FBE6C8182
:100DE4007D81C7010E94ED16C8010E94A90F0E94CF
:100DF400B90481118BCF0E94500F88CFC8010E9483
:100E0400A90F0E94B90482CFC8010E94A90F0E94B1
:100E1400B904C8010E949817882309F477CFCC201D
:100E2400D1F00FB6F8940F92F8018189882339F034
:100E34000688F789E02D808164E0681B01C060E0CA
:100E4400D80114968D919C9115970E94980C0F903F
:100E54000FBE80E001C080E02596CDBFDEBFDF91EC
:100E6400CF911F910F91FF90EF90DF90CF90089555
:100E7400CF93DF93DC011596ED91FC9116970680D4
:100E8400F781E02DA489B589C685D78580899189A4
:100E94008C839D83C089D189868597858A839B832A
:100EA4009F01245F3F4F11968D919C911297821759
:100EB400930731F48089918911968D939C931297AD
:100EC400148A158A8C9181508C9380919F3881115A
:100ED40060C0A285B385C481D581868197818C83C6
:100EE4009D83C681D781848195818A839B839F0159
:100EF4002E5F3F4F11968D919C9112978217930705
:100F040031F48681978111968D939C931297128662
:100F140013868C9181508C9386899091A53898176B
:100F240010F48093A53890E0DC01AA0FBB1FAA0F30
:100F3400BB1FAA0FBB1F8A0F9B1FDC01A75DB74C09
:100F440011960D90BC91A02DA483B58314968D9118
:100F54009C911597868397831496CD91DC91159770
:100F64002A833B8314962D933C931597A689B0E06E
:100F7400CD01880F991F880F991F880F991FA80FFB
:100F8400B91FA75DB74CA287B3878C918F5F8C93F1
:100F94001CC046E558E3DA011196CD91DC91129715
:100FA400C687D7878C819D81808B918B8C819D8115
:100FB400DC0112962D933C9313972C833D83448B31
:100FC400558BDA018C918F5F8C93A0918F38B091FF
:100FD4009038968956968C91891720F481E08093F5
:0C0FE400A33801C080E0DF91CF91089598
:100FF000CF93DF93CDB7DEB76097CDBFDEBF0E9442
:10100000F60F10920B2810920A280EEA17E120E042
:1010100030E041E06AE972E084EB9DE60E948512CF
:101020007C0106E216E121E030E041E068EC70E08E
:101030008AEB9DE60E9485126C010E94CF170AE0A0
:1010400010E020E030E0AC0161E0C6010E948B10AE
:101050000E94CF1720E030E0AC0161E0C7010E94A0
:101060008B100F2EF9ECAF2EFDE6BF2EF02D8E016A
:101070000F5F1F4F0F2EF1ECCF2EFDE6DF2EF02D70
:101080000F2EF1EDEF2EFDE6FF2EF02D44E650E0A1
:10109000BE01655F7F4F80910D2890910E280E94C0
:1010A000E309813009F049C080910C288130D1F0EA
:1010B00018F0823069F141C08E858F938D858F93B2
:1010C000DF92CF921F930F930E941C150E948816E7
:1010D000C8010E9458160F900F900F900F900F901C
:1010E0000F902BC088898F938F858F93BF92AF927B
:1010F0001F930F930E941C150E948816C8010E941E
:1011000058160F900F900F900F900F900F9015C0E2
:101110008C858F938B858F93FF92EF921F930F9304
:101120000E941C150E948816C8010E9458160F9034
:101130000F900F900F900F900F9060E081E00E9451
:101140003E1560910A2870E0665C724940E150E00B
:101150008FE098E20E9443178FE098E20E945816B1
:0211600095CF29
:10116200AF92BF92CF92DF92EF92FF920F931F93B3
:10117200CF93DF93CDB7DEB72597CDBFDEBF8C010E
:101182006B014C835D83A22EB12C7C0188E0E80EBA
:10119200F11C0FB6F8940F92F801928D838D981777
:1011A20018F0F2E0AF1219C04A2DB601C8010E9430
:1011B200370EF8019189992349F0C80141960E949E
:1011C2003A07882331F00E94500F03C081110E9418
:1011D200500F0F900FBE81E051C08C819D81892BF1
:1011E20021F40F900FBE80E049C0B11006C0CE01BD
:1011F20001960E94A317BB24B3940F900FBE0E94C6
:101202001A180FB6F8940F92F801858D8F3F09F4E2
:10121200158EF801868D8F3F09F4168E0F900FBE42
:10122200BE016C5F7F4FCE0101960E944C1281116C
:101232001FC00FB6F8940F92F801928D0F900FBE57
:10124200838D98130FC06C817D81C7010E94ED16BA
:10125200C8010E94A90F0E94B90481119ACF0E946D
:10126200500F97CFC8010E94A90F0E94B90491CFD5
:10127200C8010E94A90F0E94B90480E02596CDBF43
:10128200DEBFDF91CF911F910F91FF90EF90DF9022
:08129200CF90BF90AF900895CA
:10129A0005EB14E123E030E041E064E670E084EC21
:1012AA009FE60E94851280931F28909320280EE7BC
:1012BA0015E124E030E040E060E177E28EEC9FE661
:1012CA000E9485127C010E94CF1700E010E020E006
:1012DA0030E0AC0161E080911F28909120280E94A3
:1012EA008B1088EC90E00E94B216C1E2D8E264E664
:1012FA0070E080910828909109280E9472060E9445
:10130A000C182093212830932228409323285093A5
:10131A002428609325287093262820E040E050E096
:10132A0060E070E080910828909109280E94B10835
:10133A0028813981809127289091282828173907F0
:10134A0089F4C7010E94D9178111D1CF0E94CF1702
:10135A0000E010E020E030E0AC0161E0C7010E944B
:10136A008B10C5CF80911F28909120280E94D917F1
:10137A0081110EC00E94CF1700E010E020E030E09B
:10138A00AC0161E080911F28909120280E948B1067
:10139A00C7010E94D917813051F400E010E020E023
:1013AA0030E040E050E063E0C7010E948B10888182
:0C13BA009981809327289093282899CFD0
:1013C600AF92BF92CF92DF92EF92FF920F931F934D
:1013D600CF93DF93CDB7DEB72597CDBFDEBF8C01A8
:1013E6005B014C835D83E12C6C0181E1C80ED11C4D
:1013F6000FB6F8940F92F801F28CFF20A9F0B50110
:10140600C8010E94F215FA94F801F28E80858823AD
:1014160039F0C80108960E943A0781110E94500FC0
:101426000F900FBE81E052C08C819D81892B21F4E3
:101436000F900FBE80E04AC0E11006C0CE010196B3
:101446000E94A317EE24E3940F900FBE0E941A1871
:101456000FB6F8940F92F801858D8F3F09F4158E1B
:10146600F801868D8F3F09F4168E0F900FBEBE01D0
:101476006C5F7F4FCE0101960E944C1281111AC0FB
:10148600C8010E949817882379F06C817D81C60176
:101496000E94ED16C8010E94A90F0E94B90481118D
:1014A600A7CF0E94500FA4CFC8010E94A90F0E9487
:1014B600B9049ECFC8010E94A90F0E94B904C801B1
:1014C6000E949817882309F493CF80E02596CDBF14
:1014D600DEBFDF91CF911F910F91FF90EF90DF90CC
:0814E600CF90BF90AF90089574
:1014EE000F931F93CF93DF93FC01892B09F486C0D2
:1014FE002689A0918F38B091903856968C912817E6
:10150E0008F070C084859585992364F0A0918F387A
:10151E00B091903856963C9184E090E0831B9109EF
:10152E008487958730E0C901880F991F880F991F0E
:10153E00880F991F280F391F275D374C8285938599
:10154E008217930709F045C0EF018F010E5F1F4F01
:10155E00C8010E944614E0918F38F0919038868928
:10156E008E8B9091A538981710F48093A53890E043
:10157E00FC01EE0FFF1FEE0FFF1FEE0FFF1F8E0F72
:10158E009F1FFC01E75DF74C0180F281E02DEC839B
:10159E00FD83848195818E839F83A481B58112966C
:1015AE000D931C931397048315838E8990E0FC0191
:1015BE00EE0FFF1FEE0FFF1FEE0FFF1FE80FF91FBD
:1015CE00E75DF74CEA87FB8780818F5F808381E040
:1015DE0016C0A0918F38B091903856968C91868B0C
:1015EE0081E00DC0A0918F38B091903881E021A19B
:1015FE0056969C91291718F080E001C080E0DF918B
:08160E00CF911F910F91089587
:10161600CF93DF93CDB7DEB7C257D940CDBFDEBF7C
:101626000F2EF2E28F2EF9E69F2EF02DCE010196B7
:101636005C016E019FEDC91A9CEFD90A7E012FEB62
:10164600E21A29EFF20A8E010959164F0E946E1707
:10165600382E292E0E947C17582E492E0E948A1752
:10166600782E692E2F923F929F928F92BF92AF92C1
:101676000E941C154F925F9282E399E69F938F9387
:10168600DF92CF920E941C156F927F9283E499E6B7
:101696009F938F93FF92EF920E941C1583E599E624
:1016A6000E94FA14C5010E94FA14C6010E94FA1497
:1016B600C7010E94FA1488EE93E00E94B21664E60F
:1016C60070E080910828909109280E9472060E9475
:1016D6000C18CD59D64F4883C356D940CC59D64F4E
:1016E6005883C456D94020E040E050E060E070E006
:1016F60080910828909109280E94B108CC59D64FAC
:101706008881C456D9408F93CD59D64F8881C35608
:10171600D9408F938FE599E69F938F931F930F93ED
:101726000E941C15C8010E94FA14CDBFDEBF8ECFE1
:10173600FF920F931F93CF93DF93EC01F62E009148
:10174600893810918A3880918F3890919038029616
:101756000E944614CF3F8FEFD807B1F5FF20A1F1C5
:10176600EDE4F8E3A181B281C0918F38D091903831
:10177600AC83BD83C0918F38D091903814968D91EB
:101786009C9115978E839F831496CD91DC91159726
:1017960080918F389091903802968A839B838091AE
:1017A6008F3890919038029614968D939C93159746
:1017B600A0918F38B09190381A96ED93FC931B97B1
:1017C60080818F5F80832FC0C00FD11FE0918F383B
:1017D600F0919038C283D383C017D10768F4609123
:1017E6008F387091903880918B3890918C386E5FDD
:1017F6007F4F0E945C1317C060918F3870919038AC
:1018060080918D3890918E386E5F7F4F0E945C1369
:101816008091853890918638C817D90720F4C093EF
:101826008538D0938638DF91CF911F910F91FF9025
:02183600089513
:10183800EF92FF920F9381E00E940C168093082884
:10184800909309280E9433170E94B91540E066E07A
:1018580081E00E94161180930D2890930E28E0E2F3
:10186800F4E080E281838583A0EAB4E080E1129607
:101878008C931297E0E8F4E081E0828382E082832F
:1018880084E0808B818B54968C93E0EAF0E0808131
:1018980080628083E0E0F6E082818F7E82838281AD
:1018A8008283808181608083828183608283E12C4E
:1018B800F12C00E020E030E04EE650E064E47EE603
:1018C8008BE09BE00E946D0220E030E04EE650E0A5
:1018D8006AE47EE688EF97E00E946D0220E030E03F
:1018E8004EE650E06EE47EE68DE499E00E946D02DB
:1018F80020E030E04EE650E068E57EE68CEB92E1D1
:101908000E946D0220E030E04EE650E060E67EE6A0
:101918008FE595E10E946D020E948D1380E090E0B2
:081928000F91FF90EF9008956C
:101930000F931F93CF93DF93FC01892B09F466C0AB
:1019400091A1961708F4962F8689891709F45EC02D
:1019500022A1213009F05AC0968B24853585332386
:1019600034F024E030E0291B31092487358790E0EA
:101970009C01220F331F220F331F220F331F820FB0
:10198000931F875D974C2285338528173907F1F51A
:10199000EF018F010E5F1F4FC8010E9446148E8910
:1019A0009091A538981710F48093A53890E0FC0129
:1019B000EE0FFF1FEE0FFF1FEE0FFF1F8E0F9F1F7B
:1019C000FC01E75DF74C0180F281E02DEC83FD83A3
:1019D000848195818E839F83A481B58112960D9316
:1019E0001C931397048315838E8990E0FC01EE0FFE
:1019F000FF1FEE0FFF1FEE0FFF1FE80FF91FE75D40
:101A0000F74CEA87FB8780818F5F8083DF91CF91DE
:061A10001F910F910895E3
:101A160080919F38882321F081E08093A338089530
:101A26001092A3382091A538822F90E0FC01EE0F8A
:101A3600FF1FEE0FFF1FEE0FFF1FE80FF91FE75DF9
:101A4600F74C3081311111C02150822F90E0FC01FA
:101A5600EE0FFF1FEE0FFF1FEE0FFF1FE80FF91F20
:101A6600E75DF74C3081332379F3AC01440F551F02
:101A7600440F551F440F551F480F591FDA01A75D24
:101A8600B74C1196ED91FC9112970280F381E02DEF
:101A96001196ED93FC931297445D574CE417F507A6
:101AA60029F442815381FD0141835283FC01EE0FEB
:101AB600FF1FEE0FFF1FEE0FFF1F8E0F9F1FFC0174
:101AC600E75DF74C0180F281E02D86819781809356
:0C1AD6008F38909390382093A538089525
:101AE200EF92FF920F931F93CF93DF93FC01362F58
:101AF200892B09F44CC0238D222309F44AC0022FFA
:101B020010E0448DE42EF12C8FEF9FEFB8010E947C
:101B1200C6166E157F0508F43EC0EF010FB6F894A5
:101B22000F9260817181CB01249F800D911D112440
:101B320084839583128E62837383015011090E9DF3
:101B4200C0010F9D900D1E9D900D1124860F971FB1
:101B5200868397838FEF858F868F31110CC08085A6
:101B6200882389F0CF0108960E943A07882359F00A
:101B72000E94500F08C0CF0108960E945217CE0152
:101B820041960E9452170F900FBE81E005C080E07F
:101B920003C080E001C080E0DF91CF911F910F91DF
:061BA200FF90EF90089592
:101BA8000F931F93CF93DF93FC01892B09F451C046
:101BB80082A1815082A3268991A1291709F44BC0DB
:101BC80081114BC0EF018F010E5F1F4FC8010E94AA
:101BD800461489A18E8B24E030E0281B31092C871C
:101BE8003D879091A538981710F48093A53890E018
:101BF800FC01EE0FFF1FEE0FFF1FEE0FFF1F8E0FF2
:101C08009F1FFC01E75DF74C0180F281E02DEC831A
:101C1800FD83848195818E839F83A481B5811296EB
:101C28000D931C93139704831583EE89F0E0CF017D
:101C3800880F991F880F991F880F991FE80FF91FA0
:101C4800E75DF74CEA87FB8780818F5F808381E0BF
:101C580005C080E003C080E001C080E0DF91CF9143
:061C68001F910F91089589
:101C6E000F931F93CF93DF93EC01042F1A8D4C8D9E
:101C7E0041110CC088819981892B09F042C08C8159
:101C8E009D810E94D40D1C821D8242C0011117C07D
:101C9E0050E08A819B810E94EB172C8D8A819B815B
:101CAE00820F911D8A839B832C813D81821793071E
:101CBE0050F1888199818A839B8380E029C050E00E
:101CCE008E819F810E94EB178C8D90E0919581956E
:101CDE0091092E813F81280F391F2E833F83488122
:101CEE0059812417350730F42C813D81820F931FC3
:101CFE008E839F83023049F4112349F0115080E006
:101D0E0007C080E005C080E003C080E001C080E035
:0E1D1E001F5F1A8FDF91CF911F910F910895D3
:101D2C00FA01AA27283051F1203181F1E8946F9300
:101D3C006E7F6E5F7F4F8F4F9F4FAF4FB1E03ED0A6
:101D4C00B4E03CD0670F781F891F9A1FA11D680F44
:101D5C00791F8A1F911DA11D6A0F711D811D911D77
:101D6C00A11D20D009F468943F912AE0269F1124EC
:101D7C003019305D3193DEF6CF010895462F477050
:101D8C00405D4193B3E00FD0C9F7F6CF462F4F70AB
:101D9C00405D4A3318F0495D31FD4052419302D009
:101DAC00A9F7EACFB4E0A6959795879577956795AF
:101DBC00BA95C9F700976105710508959B01AC01AF
:101DCC000A2E06945795479537952795BA95C9F7D6
:0C1DDC00620F731F841F951FA01D089547
:101DE8000F920FB6F8940F921F9211242F923F92E0
:101DF8004F925F926F927F928F929F92AF92BF9213
:101E0800CF92DF92EF92FF920F931F932F933F93FE
:101E18004F935F936F937F938F939F93AF93BF93EA
:101E2800CF93DF93EF93FF93A0918F38B0919038C1
:101E38000DB60D920EB60D920E94A00381110E945C
:101E48000B0DA0918F38B0919038CD91CDBFDD9119
:101E5800DEBFFF91EF91DF91CF91BF91AF919F913D
:101E68008F917F916F915F914F913F912F911F912A
:101E78000F91FF90EF90DF90CF90BF90AF909F9021
:101E88008F907F906F905F904F903F902F901F9012
:081E98000F900FBE0F9018958A
:101EA0000F920FB6F8940F921F9211242F923F9227
:101EB0004F925F926F927F928F929F92AF92BF925A
:101EC000CF92DF92EF92FF920F931F932F933F9346
:101ED0004F935F936F937F938F939F93AF93BF9332
:101EE000CF93DF93EF93FF93A0918F38B091903809
:101EF0000DB60D920EB60D920E940B0DA0918F386B
:101F0000B0919038CD91CDBFDD91DEBFFF91EF91C3
:101F1000DF91CF91BF91AF919F918F917F916F9101
:101F20005F914F913F912F911F910F91FF90EF90F3
:101F3000DF90CF90BF90AF909F908F907F906F90E9
:101F40005F904F903F902F901F900F900FBE0F907B
:021F50000895F2
:101F5200EF92FF920F931F93CF938C010FB6F894D9
:101F62000F92FC01C68D1C16ACF48189811106C04A
:101F720011C0F8018189811105C00CC07801F1E11D
:101F8200EF0EF11CC7010E943A0781110E942A1824
:101F9200C15079F78FEFF801868F0F900FBE0FB601
:101FA200F8940F92C58D1C16ACF48085811106C081
:101FB20011C0F8018085811105C00CC07801F8E0DC
:101FC200EF0EF11CC7010E943A0781110E942A18E4
:101FD200C15079F78FEFF801858F0F900FBECF9127
:0A1FE2001F910F91FF90EF900895FA
:101FEC0088E1809321048FEF8093610484E690E074
:101FFC000E94B2162C988CE38DB90FB6F8940F9200
:10200C002B9A00C000C02B980F900FBE9CE29A95A3
:10201C00F1F700C02C988DB90FB6F8940F922B9A4B
:10202C0000C000C02B980F900FBE8CE28A95F1F780
:10203C0000C02C988CE08DB90FB6F8940F922B9AA7
:10204C0000C000C02B980F900FBE9CE29A95F1F740
:10205C0000C00E9488162C9886E08DB90FB6F894B3
:10206C000F922B9A00C000C02B980F900FBE8CE2E1
:08207C008A95F1F700C00895F8
:102084000F931F93CF93DF93FC018B01A181B28146
:1020940080918F3890919038EC01AE87BF87809102
:1020A4008F389091903814962D913C911597EC01AE
:1020B400288B398B14968D919C91159720918F388C
:1020C40030919038245F3F4FEC012A833B83209169
:1020D4008F3830919038245F3F4F14962D933C9362
:1020E4001597A0918F38B09190385496ED93FC9346
:1020F400559790819F5F9083442311F00FEF1FEF5A
:10210400642FC8010E949B0BDF91CF911F910F9107
:0221140008952C
:102116000F931F93CF93DF93CDB7DEB72597CDBF30
:10212600DEBFE0919538F0919638309771F1D9017C
:1021360069834A835B838C839D836630ECF40E94BB
:102146006017823061F420E0A801BE016F5F7F4F07
:1021560080919538909196380E94B10817C020E07A
:1021660040E050E0BE016F5F7F4F809195389091BF
:1021760096380E94B1080AC020E0AD01BE016F5F2B
:102186007F4FCF010E949A1101C080E02596CDBFF6
:0C219600DEBFDF91CF911F910F910895E3
:1021A2006115710509F440C020910228309103287D
:1021B2008217930779F4E0E0F0E005C0E1E0F0E097
:1021C20002C0E1E0F0E0EE0FFF1FEE0FFF1FE05054
:1021D200F84D12C02091002830910128232BE1F400
:1021E20020910628309107288217930739F3E0E0FF
:1021F200F8E202C0E4E0F8E23097B1F06083718364
:102202008283938308952091042830910528232BFB
:1022120089F3E0E0F0E0F0CF209106283091072822
:0A2222008217930771F2EFCF0895C1
:10222C000F931F93CF93DF93282F362F882361F1C1
:10223C00682F70E08FEF9FEF0E94C616832F90E0FF
:10224C006817790720F1239FC0011124813E4FEFBD
:10225C00940700F5D32FC22F4F960E9412128C01B7
:10226C000097D1F0D11104C0FC018083918304C08C
:10227C004F96F80180839183F801C38FD48F61E06E
:10228C00C8010E94710D08C000E010E005C000E01C
:10229C0010E002C000E010E0C801DF91CF911F9167
:0422AC000F910895F1
:1022B0000F931F93CF93DF938C010E94CF17EC01F4
:1022C0008091913890919238C817D90738F5E091EC
:1022D0009938F0919A388081882381F00580F681C1
:1022E000E02D6FEF7FEF808191810E941B14E091C0
:1022F0009938F0919A3880818111F0CF8091973888
:10230000909198388093993890939A38E0939738C1
:10231000F093983881E0F801808302C0F8011082C0
:10232000C0939138D0939238CE01DF91CF911F9115
:042330000F9108956C
:10233400EF92FF920F931F93CF93DF938A01FC01D7
:10234400528D338D531710F0223001F5422F78014E
:10235400EC011E8D8A8DCE010E94370E1F3F81F441
:1023640089898823A9F0CE0141960E943A078823DF
:1023740089F0E114F10481F081E0F70180830DC05C
:10238400FF24F394F10EFE8E81E007C080E005C0C7
:1023940081E003C081E001C081E0DF91CF911F9112
:0823A4000F91FF90EF900895E6
:1023AC000F931F93CF93DF93FB01238121FD03C078
:1023BC008FEF9FEF2CC022FF16C0468157812481DE
:1023CC0035814217530744F4A081B1819D012F5FE1
:1023DC003F4F208331838C93268137812F5F3F4F72
:1023EC002683378314C08B01EC01FB010084F1853B
:1023FC00E02D0995892BE1F6D80116968D919C91CB
:10240C001797019616968D939C931797CE01DF9193
:08241C00CF911F910F9108956B
:10242400CF93DF93EC010E941A1880919B3890910E
:102434009C38892B31F489E298E280939B389093FD
:102444009C382097C9F080919D3890919E389E01C8
:10245400280F391F2F3F4FE0340788F48217930762
:1024640088F4C0919B38D0919C38C80FD91F209311
:102474009D3830939E3808C0C0E0D0E005C0C0E06D
:10248400D0E002C0C0E0D0E00E94B904CE01DF91E8
:04249400CF91089547
:10249800CF93DF930FB6F8940F922091893830913B
:1024A8008A38DB014D915C914F3FBFEF5B0719F113
:1024B800EC01E981FA81A091A238B881BA1741F0FC
:1024C8002E173F0728F0FB011082118281E014C00B
:1024D8002E1B3F0B2417350748F4FB01421B530BF7
:1024E800408351830E94A31780E006C0DB011D9240
:1024F8001C9281E001C080E00F900FBEDF91CF9168
:02250800089534
:10250A008F929F92AF92BF92CF92DF92FF920F93D8
:10251A001F93CF93DF934C015B01F42E690183E192
:10252A0090E00E941212EC01892BA1F01A8A0E94F3
:10253A00EC1388829982AC86BD86CE86DF86088BAC
:10254A00198BCE0102960E942618FF2019F08A895B
:10255A0084608A8BCE01DF91CF911F910F91FF90FA
:0E256A00DF90CF90BF90AF909F908F9008951C
:10257800CF93DF93CDB7DEB72697CDBFDEBF88EC0C
:1025880090E00E94B21664E670E08091082890916D
:1025980009280E9472060E940C1829833A834B83EB
:1025A8005C836D837E8322E040E050E0BE016F5F74
:1025B8007F4F80910D2890910E280E94B10820E04D
:1025C80040E050E060E070E0809108289091092890
:0E25D8000E94B10884E690E00E94B216D4CFB3
:1025E600E0E8FAE085E09DE08487958781E08583D1
:1025F6008083A0918F38B0919038CD91CDBFDD9179
:10260600DEBFFF91EF91DF91CF91BF91AF919F9187
:102616008F917F916F915F914F913F912F911F9174
:102626000F91FF90EF90DF90CF90BF90AF909F906B
:102636008F907F906F905F904F903F902F901F905C
:0A2646000F900FBE0F900895089545
:10265000CF93DF93CDB7DEB72697CDBFDEBF64E65D
:1026600070E080910828909109280E9472060E94CB
:102670000C1829833A836D837E8320E040E050E08C
:1026800060E070E080910828909109280E94B108CC
:102690002D813E8189819A818217930720F480E2FF
:1026A0008093A50403C080E28093A6042696CDBF44
:0826B000DEBFDF91CF91089518
:1026B800CF93DF93EB01488159814F3F2FEF5207AA
:1026C80021F4FC01A781B0850DC0DC01139601C07F
:1026D800DF011296ED91FC91139720813181421709
:1026E8005307B0F71296ED91FC911397EA83FB8399
:1026F800C483D583AC83BD831296CD93DC931397A3
:1027080088879987FC0120812F5F2083DF91CF91F3
:02271800089522
:10271A00EF92FF920F930F2EF3E8EF2EF8E3FF2EBE
:10272A00F02D00E020E030E04EE650E06CE570E786
:10273A0084EF97E10E946D028130A1F40E94D814BF
:10274A00813081F4F8948FEF9FEF809385389093CE
:10275A00863881E08093A4381092893810928A389A
:10276A000E94F3128091A0380F91FF90EF90089584
:10277A00FC0162837383808791874617570790F01D
:10278A00421B530B8485958548175907E0F4BF010E
:10279A006E5F7F4F80919738909198380E945C13B2
:1027AA0080E008954217530718F46217730768F414
:1027BA00BF016E5F7F4F8091993890919A380E943D
:0E27CA005C1380E0089581E0089581E0089599
:1027D8000FB6F8940F928091953890919638892B7E
:1027E80019F58AE798E30E94521781E798E30E9457
:1027F80052178AE798E38093993890939A3881E73B
:1028080098E3809397389093983840E065E085E0A6
:102818000E9416118093953890939638009721F06E
:0E28280066E270E70E94D1100F900FBE089577
:10283600EF92FF920F931F93CF93DF938C017B014F
:10284600E0919938F0919A380580F681E02DC6819D
:10285600D781CE0102960E9446148A8982FF06C05D
:10286600A701B801CE010E946D1402C08E7F8A8B2B
:10287600E889F989CE010995DF91CF911F910F91D2
:06288600FF90EF900895A1
:10288C00CF93DF93FC01A085B185C281D381848174
:10289C0095818C839D83C481D581828193818A8328
:1028AC009B8311968D919C911297E817F90731F43F
:1028BC008481958111968D939C9312971086118625
:0E28CC008C9181508C938C91DF91CF91089567
:1028DA00EF92FF920F931F93CF93DF93EC018B013B
:1028EA007A0108C08C859D85080F191FE889F98926
:1028FA00CE0109956C857D85600F711F9801A7012E
:10290A00CE010E94BD138111EDCFDF91CF911F91AE
:08291A000F91FF90EF9008956A
:10292200504D2076616C75653A2028256429200077
:102932004C44522076616C75653A20282564292022
:10294200004E54432076616C75653A20282564292F
:10295200000A0D56616C756573202D20004C44529F
:072962003A2025640D0A0074
:01296900036A
:10296A002091232830912428C901880F991F220F0A
:10297A00331F220F331F220F331F820F931F6FEF54
:10298A0073E00E94C61629E939E1629FC001639F7C
:10299A00900D729F900D1124809590958093BC0A9A
:0629AA009093BD0A0895A0
:1029B000EF92FF920F930E94EC13809195389091C3
:1029C0009638892B91F00F2EF3E9EF2EF8E3FF2EC6
:1029D000F02D03E020E030E04CED50E06BE270E7DA
:1029E00087E995E00E946D0201C080E00F91FF90A1
:0429F000EF900895C7
:1029F400EF92FF920F931F93CF93DF938C017C018F
:102A0400C0E0D0E006C0F70181917F010E94041864
:102A14002196F80101900020E9F73197E01BF10BB2
:102A2400CE17DF0780F3DF91CF911F910F91FF90B5
:042A3400EF90089582
:102A3800AEE0B0E0E2E2F5E10C944D160D891E8996
:102A480086E08C8309831A838FEF9FE78D839E83AB
:102A5800AE01475E5F4F6F89788DCE0101960E9467
:102A68008C00EF81F885E00FF11F10822E96E4E0CC
:042A78000C947E1626
:102A7C002C98282F217030E0002436952795079448
:102A8C00369527950794322F202D603108F06FE092
:102A9C006068622B6DB90FB6F8940F922B9A00C038
:102AAC0000C02B980F900FBE8CE28A95F1F700C0F6
:022ABC0008957B
:102ABE0080E28093A10408E213E125E030E041E0DA
:102ACE0064E670E086E690E70E948512EC010E94B3
:102ADE00CF1700E010E020E030E0AC0161E0CE0165
:0E2AEE000E948B1088EC90E00E94B216FFCF81
:102AFC000F931F9380911F28909120280E94D91723
:102B0C00813069F400E010E020E030E040E050E07B
:102B1C0063E080911F28909120280E948B101092C6
:0C2B2C00BC0A1092BD0A1F910F91089581
:102B3800CF93DF93EC010FB6F8940F928D8D8F3FF2
:102B480009F41D8E8E8D8F3F09F41E8E0F900FBED7
:102B58008A8D811104C0CE0141960E944210CE0197
:0A2B68000E94A90FDF91CF9108959C
:102B7200E0E2F4E0808180628083E4E2F4E080813C
:102B820080628083E0EBFAE08FEF90E8848795879C
:102B92008081816080838081826080838181806185
:0A2BA200818381818760818308959B
:102BAC00E0918D38F0918E388081811107C08FEFC4
:102BBC009FEF80938538909386380895E0918D38F7
:102BCC00F0918E380580F681E02D80819181809383
:082BDC008538909386380895B6
:102BE400FC01448D4423A9F050E026813781240F51
:102BF400351F26833783848195812817390720F070
:102C04008081918186839783CB01668177810E943D
:042C1400EB1708951D
:102C1800CF93DF93482F60E081E00E941611EC010A
:102C2800009761F01C821D82188219821E8220E0A2
:102C380040E050E060E070E00E94B108CE01DF9112
:042C4800CF9108958B
:102C4C0080910A28883121F491E090930B280DC0D3
:102C5C00811103C010920B2804C090910B28911184
:102C6C0004C08F5F80930A280895815080930A28AE
:022C7C000895B9
:102C7E002F923F924F925F926F927F928F929F927E
:102C8E00AF92BF92CF92DF92EF92FF920F931F936C
:102C9E00CF93DF93CDB7DEB7CA1BDB0BCDBFDEBF45
:022CAE00099487
:102CB000FC012081222399F02C9A81918DB90FB6C5
:102CC000F8940F922B9A00C000C02B980F900FBE63
:102CD0008CE28A95F1F700C080818111EDCF0895D3
:102CE0002A88398848885F846E847D848C849B849C
:102CF000AA84B984C884DF80EE80FD800C811B81AA
:102D0000AA81B981CE0FD11DCDBFDEBFED010895DF
:102D10002C9881E08DB90FB6F8940F922B9A00C0D1
:102D200000C02B980F900FBE8CE28A95F1F700C07F
:0A2D300082E090E00E94B2160895C0
:102D3A004454454B3030363820456D6265646465CD
:102D4A0064204D6963726F70726F636573736F721B
:092D5A002053797374656D730058
:102D6400CF93DF93EC01892B51F00E941A1860E095
:102D7400CE010E949B0B0E94B904811102C00E94E3
:082D8400500FDF91CF9108957B
:102D8C00AA1BBB1B51E107C0AA1FBB1FA617B70785
:102D9C0010F0A61BB70B881F991F5A95A9F78095A1
:082DAC009095BC01CD010895D2
:102DB40054696D6572005363726F6C6C006C64725D
:102DC4003A202564006E74633A20256400706F74A1
:052DD4003A2025640017
:102DDA00CF93DF93EB0160918F3870919038645FE5
:102DEA007F4F0E945C1361E0CE010E949B0BDF9132
:042DFA00CF910895D8
:102DFE0080918F3890919038892B39F0E0918F38EF
:102E0E00F091903882A18F5F82A380918F3890913C
:042E1E00903808954B
:102E2200FC0160833197708331971082319720E8DB
:102E3200208331971082779740833197508383970D
:022E42000895F1
:102E44007072696E74006C6364006261636B6C69B8
:102E540067687400646973706C61790064756D6D82
:022E64007900F3
:102E6600E0E0F4E081E0818382E08283E0E0F8E064
:102E76008DE695E0808791878681806486830895B4
:102E8600FB01DC014150504048F001900D920020BA
:0E2E9600C9F701C01D9241505040E0F7089569
:102EA400FC010396818392832FEF3FEF23833483C6
:0C2EB400858396838783908710820895A1
:102EC0008091A438882331F080919F38882321F0A5
:0C2ED00080E0089581E0089582E00895FC
:102EDC00E0E0F6E08EE0868381E08087838580FFEA
:0C2EEC00FDCF8091100690911106089512
:102EF800E0E0F6E088E0868381E08087838580FFD4
:0C2F0800FDCF80911006909111060895F5
:102F1400E0E0F6E089E0868381E08087838580FFB6
:0C2F2400FDCF80911006909111060895D9
:102F30000FB6F8940F92FC01928D0F900FBE81E0B6
:062F4000911180E00895EC
:102F46002091A238FC0120832091893830918A385B
:062F56002183328308957F
:102F5C0080910C28823019F410920C2808958F5F00
:062F6C0080930C2808957B
:102F7200FC010590615070400110D8F78095909542
:062F82008E0F9F1F089551
:102F8800FC016150704001900110D8F78095909530
:062F98008E0F9F1F08953B
:102F9E000FB6F8940F928091893890918A380F90DD
:042FAE000FBE0895B5
:102FB2000FB6F8940F920F900FBEFC0182898170B8
:022FC200089570
:102FC4004261636B6C696768740074696D656F75E1
:022FD400740087
:102FD600FB01DC0102C001900D9241505040D8F730
:022FE60008954C
:102FE800C9E2D8E388818230E8F30E94500FFACF13
:102FF8000F9301E00093860A0F910E94F40E189532
:10300800E0E0F8E0948195FFFDCF809302080895F1
:0E3018000E947C170E946E170E948A1708956E
:0D302600546D725100546D7220537663009A
:0C30340080919F388F5F80939F38089533
:0C304000EE0FFF1F0590F491E02D0994A5
:08304C00FC01108611860895B5
:0830540081E08093A338089588
:05305C0049444C450051
:043062000C940000CA
:043066006C65640031
:02306A000895C7
:00000001FF
