:100000000C9462000C944F180C944F180C944F18D9
:100010000C944F180C944F180C944F180C944F18C4
:100020000C944F180C944F180C944F180C944F18B4
:100030000C9421180C944F180C944F180C944F18D2
:100040000C944F180C944F180C944F180C944F1894
:100050000C944F180C944F180C944F180C944F1884
:100060000C944F180C944F180C944F180C944F1874
:100070000C944F180C944F180C944F180C944F1864
:100080000C944F180C944F180C944F180C944F1854
:100090000C944F180C944F180C944F180C944F1844
:1000A000FD05FD052C0631064706FD05FD052C0660
:1000B0003106280038A88038A838A9002DAF38A903
:1000C00038AF800011241FBECFEFCDBFDFE3DEBF0E
:1000D000E2EBF0E040E017C0B591A5913591259194
:1000E000059107FD0CC095918591EF01F92FE82F3F
:1000F00005900D92A217B307D9F7FE0104C01D9217
:10010000A217B307E1F7E33CF40731F70E94A40B11
:080110000C948A00F894FFCF63
:10011800ABE0B0E0E2E9F0E00C9465166C017B011D
:100128008A01FC0116821782838181FFCCC1CE012E
:1001380001963C01F6019381F70193FD859193FFA8
:1001480081917F01882309F4BAC1853239F493FD7E
:10015800859193FF81917F01853229F4B60190E062
:100168000E942512E7CF912C212C312CFFE1F315A9
:10017800D8F08B3279F038F4803279F08332A1F4F8
:10018800232D20611DC08D3261F0803369F4232D49
:10019800216016C0832D8260382EE32DE4603E2E48
:1001A8002AC0F32DF8601DC037FC2DC020ED280FA4
:1001B8002A3040F08E32B9F436FC81C1232D2064F8
:1001C800322E19C036FE06C08AE0989E200D1124F2
:1001D800922E11C0EAE02E9E200D1124222EF32D1E
:1001E800F0623F2E08C08C3621F4832D8068382EAB
:1001F80002C0883641F4F70193FD859193FF819100
:100208007F018111B3CF982F9F7D9554933028F4A7
:100218000C5F1F4F9FE399830DC0833631F08337FE
:1002280071F0833509F059C021C0F80180818983B4
:100238000E5F1F4F88248394912C530113C028010B
:10024800F2E04F0E511CF801A080B18036FE03C0C9
:10025800692D70E002C06FEF7FEFC5010E94E917BA
:100268004C018201F32DFF773F2E16C0280122E0B2
:10027800420E511CF801A080B18036FE03C0692DE2
:1002880070E002C06FEF7FEFC5010E94DE174C01DE
:10029800F32DF0683F2E820133FC1BC0822D90E0C5
:1002A80088169906B0F4B60180E290E00E94251203
:1002B8002A94F4CFF50137FC859137FE81915F01CF
:1002C800B60190E00E94251221102A9421E0821A9A
:1002D80091088114910471F7E8C0843611F08936C9
:1002E80041F5F80137FE07C06081718182819381F1
:1002F8000C5F1F4F08C060817181072E000C880BAE
:10030800990B0E5F1F4FF32DFF763F2E97FF09C005
:1003180090958095709561957F4F8F4F9F4FF068AE
:100328003F2E2AE030E0A3010E94A50E882E8618F1
:1003380045C0853731F4232D2F7EB22E2AE030E0D8
:1003480025C0932D997FB92E8F36C1F018F48835C2
:1003580079F0B5C0803719F0883721F0B0C0E92F9F
:10036800E061BE2EB4FE0DC0FB2DF460BF2E09C0A7
:1003780034FE0AC0292F2660B22E06C028E030E0DD
:1003880005C020E130E002C020E132E0F801B7FE0C
:1003980007C060817181828193810C5F1F4F06C005
:1003A8006081718180E090E00E5F1F4FA3010E9481
:1003B800A50E882E8618FB2DFF773F2E36FE0DC022
:1003C800232D2E7FA22E891458F434FE0BC032FC44
:1003D80009C0832D8E7EA82E05C0B82CA32C03C07F
:1003E800B82C01C0B92CA4FE0FC0FE01E80DF11D08
:1003F8008081803321F49A2D997EA92E09C0A2FE0E
:1004080006C0B394B39404C08A2D867809F0B394D7
:10041800A3FC11C0A0FE06C0B21488F4280C922CCC
:100428009B180EC0B21460F4B60180E290E00E94FE
:100438002512B394F7CFB21418F42B1802C0982CD5
:10044800212CA4FE10C0B60180E390E00E94251282
:10045800A2FE17C0A1FC03C088E790E002C088E5AF
:1004680090E0B6010CC08A2D867859F0A1FE02C032
:100478008BE201C080E2A7FC8DE2B60190E00E9409
:100488002512891438F4B60180E390E00E94251201
:100498009A94F7CF8A94F301E80DF11D8081B60193
:1004A80090E00E9425128110F5CF222009F442CE57
:1004B800B60180E290E00E9425122A94F6CFF60158
:1004C8008681978102C08FEF9FEF2B96E2E10C9413
:0204D800961676
:1004DA004F925F926F927F928F929F92AF92BF924A
:1004EA00CF92DF92EF92FF920F93CF93DF934C015B
:1004FA006B015A012901CA010E9461123C01892B30
:10050A0009F408C188E290E00E946112EC01892B8B
:10051A0059F06F8A788E81E0A81AB1086A0C7B1CA0
:10052A00C114D10429F420C0C3010E945318F2C097
:10053A00D6018C91898F8C918823A1F0AE01465EF9
:10054A005F4FF6013196B8E0CB0ED11CCF01219155
:10055A00DA012D93AD01DC018C91882319F0EC1599
:10056A00FD05A1F718A201C0198E043008F003E0B6
:10057A000E8B09A31AA26E01B2E0CB0ED11CC601E2
:10058A000E944418CE010C960E944418C887D98745
:10059A0084E090E0801B91098C879D87CA8BDB8B56
:1005AA0084E0FE01B396DF011D928A95E9F71FA246
:1005BA00A201B401C3010E94361788839983E1140A
:1005CA00F10419F0F701C083D1830FB6F8940F92A2
:1005DA008091AE388F5F8093AE3880919738909132
:1005EA009838892BA9F5C0939738D0939838809179
:1005FA00AE388130E9F581E398E30E9477178AE300
:10060A0098E30E94771783E498E30E9477178CE4B3
:10061A0098E30E94771780E798E30E94771787E6A6
:10062A0098E30E9477178EE598E30E94771785E58D
:10063A0098E30E94771780E798E380939538909320
:10064A00963887E698E3809393389093943810C04D
:10065A008091AC3881110CC0E0919738F0919838AC
:10066A0096898E89891720F0C0939738D093983845
:10067A008091A9388F5F8093A9388E899091AD387F
:10068A00981710F48093AD3890E0FC01EE0FFF1F2D
:10069A00EE0FFF1FEE0FFF1F8E0F9F1FFC01EF5C77
:1006AA00F74C0180F281E02DEC83FD8384819581F2
:1006BA008E839F83A481B5811296CD92DC92139783
:1006CA00C482D582EE89F0E0CF01880F991F880F86
:1006DA00991F880F991FE80FF91FEF5CF74CEA87FB
:1006EA00FB8780818F5F80830F900FBE8091AC382B
:1006FA00882361F0E0919738F091983896898E892D
:10070A00981730F40E945F0F81E005C081E003C0B2
:10071A0081E001C08FEFDF91CF910F91FF90EF90B1
:10072A00DF90CF90BF90AF909F908F907F906F9007
:06073A005F904F9008954E
:100740000F931F93CF93DF938091A738811102C13C
:10075000C0919138D09192388E010F5F1F4F009356
:1007600091381093923801151105B9F4809195389C
:100770009091963820919338309194382093953801
:100780003093963880939338909394388091AA3818
:100790008F5F8093AA380E94FC1580918D389091CC
:1007A0008E380817190710F480E0B8C080E0E09197
:1007B0009538F09196389081911107C02FEF3FEF57
:1007C00020938D3830938E38A9C0E0919538F09100
:1007D00096380580F681E02D0680F781E02D228194
:1007E00033810217130728F420938D3830938E3805
:1007F00095C0A285B3852481358146815781E90161
:100800004C835D832681378144815581E9014A8388
:100810005B83AF014E5F5F4F11962D913C91129714
:100820002417350731F42681378111962D933C9397
:100830001297128613869C9191509C93A489B58936
:10084000109719F12685378560897189E9016C83D4
:100850007D832089318966857785E9016A837B8379
:1008600011966D917C9112979F01245F3F4F621703
:10087000730731F42089318911962D933C93129797
:10088000148A158A9C9191509C9326899091AD3839
:10089000921710F42093AD3830E0D901AA0FBB1F96
:1008A000AA0FBB1FAA0FBB1F2A0F3B1FD901AF5CAA
:1008B000B74C11960D90BC91A02DA483B5831496CE
:1008C0002D913C9115972683378314962D913C9159
:1008D0001597E9014A835B8314964D935C931597B2
:1008E000A689B0E09D01220F331F220F331F220F74
:1008F000331FA20FB31FAF5CB74CA287B3879C9185
:100900009F5F9C93A0919738B0919838268956960E
:100910009C91291708F44BCF81E049CFE09197389B
:10092000F0919838268930E0F901EE0FFF1FEE0FA5
:10093000FF1FEE0FFF1F2E0F3F1FF901EF5CF74C5B
:100940009081923008F081E09091AB38992361F06A
:1009500081E00AC080918F38909190380196809301
:100960008F389093903880E0DF91CF911F910F9155
:020970000895E8
:100972001F93CF93DF930FB6F8940F928091A7380D
:1009820081508093A7388091A7388111C6C0809189
:10099200AE3881119BC0C4C0DB011596ED91FC916C
:1009A20016970680F781E02DA489B58986859785FB
:1009B20020893189EC012C833D83808991892685A8
:1009C2003785EC012A833B83CF010C9611962D913A
:1009D2003C9112972817390731F480899189119631
:1009E2008D939C931297148A158A8C9181508C93C3
:1009F200A285B3858481958126813781EC012C8380
:100A02003D838681978124813581EC012A833B8352
:100A12009F012E5F3F4F11968D919C9112978217E5
:100A2200930731F48681978111968D939C93129747
:100A3200128613868C9181508C9386899091AD3861
:100A4200981710F48093AD3890E0DC01AA0FBB1F19
:100A5200AA0FBB1FAA0FBB1F8A0F9B1FDC01AF5C33
:100A6200B74C11960D90BC91A02DA483B58314961A
:100A72008D919C9115978683978314968D919C9165
:100A82001597EC012A833B8314962D933C9315977B
:100A9200A689B0E0CD01880F991F880F991F880F92
:100AA200991FA80FB91FAF5CB74CA287B3878C916F
:100AB2008F5F8C93A0919738B0919838968956960B
:100AC2008C91981740F04093AB3805C0E0E0F0E01D
:100AD2006EE578E341E0DB018C9181115DCFEF2B74
:100AE20011F00E94FC15C0918F38D0919038209758
:100AF20061F011E00E94A00381111093AB3821979D
:100B0200C9F710928F38109290388091AB388823B1
:100B120031F00E945F0F81E003C080E001C080E0FD
:0C0B22000F900FBEDF91CF911F9108953E
:100B2E00CF93DF93CDB7DEB72697CDBFDEBFCE0115
:100B3E0001965C01082F1B2DE091A138F091A2388F
:100B4E008081882309F4B3C00580F681E02DE08012
:100B5E00F1800E943818C5010E9467116C018981CD
:100B6E0081111BC0CE14DF0438F00E94B904B60107
:100B7E00C7010E94FF138EC040E0B7016C197D09BA
:100B8E0080919D3890919E380E94C2150E94B904A2
:100B9E00811180C00E945F0F7DC00E94B9047AC08F
:100BAE00898188230CF476C0EC80FD80D7011A96DB
:100BBE008D919C911B97892B21F0C70102960E9463
:100BCE002A14CE0106960E9467116C01E9818E2FC0
:100BDE00EE0F990BAA0BBB0BFC013197E930F10517
:100BEE0008F058C0E05BFF4F0C943E18F701828965
:100BFE008160828B2A813B8164857585620F731FAC
:100C0E00A601C7010E94A113882309F443C0D7018E
:100C1E0052968C91529782FF0DC06A817B811C96F1
:100C2E008D919C911D97680F791FA601C7010E9497
:100C3E00511403C08E7FF701828BD7015096ED9130
:100C4E00FC915197C701099525C0F70182898E7FC6
:100C5E00828B20C0D70152968C915297816052960A
:100C6E008C9352976A817B811C966D937C931D9712
:100C7E006C0D7D1D9601A601C7010E94A1130AC02D
:100C8E00F701828981FD04C0C7010E94531802C07A
:100C9E008E7F828B40E050E0602F712F80919D38C7
:100CAE0090919E380E94F30981117ACF45CF0E9410
:100CBE003818C5010E9467116C01898181116DCFB1
:100CCE00E0919F38F091A038808141E0811140E0A1
:060CDE00E12CF12C52CFC5
:100CE400CF92DF92EF92FF920F931F93CF93DF93F4
:100CF400CDB7DEB72597CDBFDEBF8C016C837D8376
:100D0400C12CD12C7C0181E1E80EF11C0FB6F894C2
:100D14000F92D8015A968C915A978823E9F0815002
:100D24005A968C935A978D919C91892B29F40E9401
:100D34001217F80184839583D80118968C9188231F
:100D440039F0C80108960E94010881110E945F0FC2
:100D54000F900FBE81E080C08C819D81892B21F48E
:100D64000F900FBE80E078C0D11006C0CE0101966E
:100D74000E94C817DD24D3940F900FBE0E94381828
:100D84000FB6F8940F92F801858D8F3F09F4158EF4
:100D9400D8015E968C915E978F3F11F45E961C92FB
:100DA4000F900FBEBE016C5F7F4FCE0101960E9473
:100DB4009B12811129C0C8010E94BD178823F1F03C
:100DC400F80180819181892B51F40FB6F8940F9228
:100DD400848195810E94870AC82E0F900FBE6C8172
:100DE4007D81C7010E940017C8010E94B80F0E94AC
:100DF400B90481118BCF0E945F0F88CFC8010E9474
:100E0400B80F0E94B90482CFC8010E94B80F0E9493
:100E1400B904C8010E94BD17882309F477CFCC20F8
:100E2400D1F00FB6F8940F92F8018189882339F034
:100E34000688F789E02D808164E0681B01C060E0CA
:100E4400D80114968D919C9115970E94A70C0F9030
:100E54000FBE80E001C080E02596CDBFDEBFDF91EC
:100E6400CF911F910F91FF90EF90DF90CF90089555
:100E7400CF93DF93CDB7DEB7C656D940CDBFDEBF23
:100E84000E940510109213281092122803ED17E106
:100E940020E030E041E064E972E088E49EE60E94EC
:100EA400D4127C010CE416E121E030E041E068EC6E
:100EB40070E08EE49EE60E94D4126C010E94F41746
:100EC4000AE010E020E030E0AC0161E0C6010E94DD
:100ED4009A100E94F41720E030E0AC0161E0C701F1
:100EE4000E949A1088EC90E00E94D8160F2EFDE51F
:100EF4008F2EFEE69F2EF02D6E0189EDC81A8CEF21
:100F0400D80A0F2EF5E5AF2EFEE6BF2EF02D7E019A
:100F140087E0E80EF11C0F2EF5E66F2EFEE67F2E1D
:100F2400F02D8E01095B194F44E650E0BE016F5F5E
:100F34007F4F80911528909116280E94F3098130E3
:100F440009F049C0809114288130D1F018F0823022
:100F540069F141C08A818F9389818F93BF92AF9247
:100F6400FF92EF920E9400150E94AE16C7010E94E4
:100F74007E160F900F900F900F900F900F902BC034
:100F84008C818F938B818F939F928F92DF92CF92DC
:100F94000E9400150E94AE16C6010E947E160F9094
:100FA4000F900F900F900F900F9015C08E818F931C
:100FB4008D818F937F926F921F930F930E940015E0
:100FC4000E94AE16C8010E947E160F900F900F90DB
:100FD4000F900F900F9060E081E00E9422156091C5
:100FE400122870E06A57724940E150E087E198E2C4
:0E0FF4000E94681787E198E20E947E1695CF52
:10100200CF93DF93DC011596ED91FC911697068044
:10101200F781E02DA489B589C685D7858089918914
:101022008C839D83C089D189868597858A839B839A
:101032009F01245F3F4F11968D919C9112978217C9
:10104200930731F48089918911968D939C9312971D
:10105200148A158A8C9181508C938091A7388111C2
:1010620060C0A285B385C481D581868197818C8336
:101072009D83C681D781848195818A839B839F01C9
:101082002E5F3F4F11968D919C9112978217930775
:1010920031F48681978111968D939C9312971286D3
:1010A20013868C9181508C9386899091AD389817D4
:1010B20010F48093AD3890E0DC01AA0FBB1FAA0F99
:1010C200BB1FAA0FBB1F8A0F9B1FDC01AF5CB74C73
:1010D20011960D90BC91A02DA483B58314968D9189
:1010E2009C911597868397831496CD91DC911597E1
:1010F2002A833B8314962D933C931597A689B0E0DF
:10110200CD01880F991F880F991F880F991FA80F6B
:10111200B91FAF5CB74CA287B3878C918F5F8C935A
:101122001CC04EE558E3DA011196CD91DC9112977D
:10113200C687D7878C819D81808B918B8C819D8185
:10114200DC0112962D933C9313972C833D83448BA1
:10115200558BDA018C918F5F8C93A0919738B09167
:101162009838968956968C91891720F481E080935D
:0C117200AB3801C080E0DF91CF91089500
:10117E00AF92BF92CF92DF92EF92FF920F931F9397
:10118E00CF93DF93CDB7DEB72597CDBFDEBF8C01F2
:10119E006B014C835D83A22EB12C7C0188E0E80E9E
:1011AE00F11C0FB6F8940F92F801928D838D98175B
:1011BE0018F0F2E0AF1219C04A2DB601C8010E9414
:1011CE00460EF8019189992349F0C80141960E9473
:1011DE000108882331F00E945F0F03C081110E9425
:1011EE005F0F0F900FBE81E051C08C819D81892BC6
:1011FE0021F40F900FBE80E049C0B11006C0CE01A1
:10120E0001960E94C817BB24B3940F900FBE0E9484
:10121E0038180FB6F8940F92F801858D8F3F09F4A8
:10122E00158EF801868D8F3F09F4168E0F900FBE26
:10123E00BE016C5F7F4FCE0101960E949B12811101
:10124E001FC00FB6F8940F92F801928D0F900FBE3B
:10125E00838D98130FC06C817D81C7010E9400178A
:10126E00C8010E94B80F0E94B90481119ACF0E9442
:10127E005F0F97CFC8010E94B80F0E94B90491CF9B
:10128E00C8010E94B80F0E94B90480E02596CDBF18
:10129E00DEBFDF91CF911F910F91FF90EF90DF9006
:0812AE00CF90BF90AF900895AE
:1012B60003E415E123E030E041E064E670E08EE00F
:1012C60090E70E94D41280932D2890932E2804EA4A
:1012D60015E124E030E040E060E177E288E190E764
:1012E6000E94D4127C010E94F41700E010E020E076
:1012F60030E0AC0161E080912D2890912E280E946B
:101306009A1010922B2810922C2888EC90E00E94BC
:10131600D816CAE0D8E20E94A91120930A28309371
:101326000B2840930C2850930D2860930E28709339
:101336000F288C819D8180930828909309282091FD
:101346002B2830912C28AC014C5E5F4F4217530777
:10135600A8F044972817390788F0C7010E94FE179E
:10136600811131C00E94F41700E010E020E030E067
:10137600AC0161E0C7010E949A1025C080912D281A
:1013860090912E280E94FE1781110EC00E94F4171C
:1013960000E010E020E030E0AC0161E080912D2813
:1013A60090912E280E949A10C7010E94FE17813044
:1013B60051F400E010E020E030E040E050E063E06F
:1013C600C7010E949A1082E390E00E94D81680918D
:1013D60008289091092880932B2890932C289BCF3E
:1013E600AF92BF92CF92DF92EF92FF920F931F932D
:1013F600CF93DF93CDB7DEB72597CDBFDEBF8C0188
:101406005B014C835D83E12C6C0181E1C80ED11C2C
:101416000FB6F8940F92F801F28CFF20A9F0B501EF
:10142600C8010E941816FA94F801F28E8085882366
:1014360039F0C80108960E94010881110E945F0FC9
:101446000F900FBE81E052C08C819D81892B21F4C3
:101456000F900FBE80E04AC0E11006C0CE01019693
:101466000E94C817EE24E3940F900FBE0E9438180E
:101476000FB6F8940F92F801858D8F3F09F4158EFB
:10148600F801868D8F3F09F4168E0F900FBEBE01B0
:101496006C5F7F4FCE0101960E949B1281111AC08C
:1014A600C8010E94BD17882379F06C817D81C60131
:1014B6000E940017C8010E94B80F0E94B90481114A
:1014C600A7CF0E945F0FA4CFC8010E94B80F0E9449
:1014D600B9049ECFC8010E94B80F0E94B904C80182
:1014E6000E94BD17882309F493CF80E02596CDBFCF
:1014F600DEBFDF91CF911F910F91FF90EF90DF90AC
:08150600CF90BF90AF90089553
:10150E000F931F93CF93DF93FC01892B09F486C0B1
:10151E002689A0919738B091983856968C912817B5
:10152E0008F070C084859585992364F0A091973852
:10153E00B091983856963C9184E090E0831B9109C7
:10154E008487958730E0C901880F991F880F991FEE
:10155E00880F991F280F391F2F5C374C8285938572
:10156E008217930709F045C0EF018F010E5F1F4FE1
:10157E00C8010E942A14E0919738F0919838868914
:10158E008E8B9091AD38981710F48093AD3890E013
:10159E00FC01EE0FFF1FEE0FFF1FEE0FFF1F8E0F52
:1015AE009F1FFC01EF5CF74C0180F281E02DEC8374
:1015BE00FD83848195818E839F83A481B58112964C
:1015CE000D931C931397048315838E8990E0FC0171
:1015DE00EE0FFF1FEE0FFF1FEE0FFF1FE80FF91F9D
:1015EE00EF5CF74CEA87FB8780818F5F808381E019
:1015FE0016C0A0919738B091983856968C91868BDC
:10160E0081E00DC0A0919738B091983881E021A16A
:10161E0056969C91291718F080E001C080E0DF916A
:08162E00CF911F910F91089567
:10163600CF93DF93CDB7DEB7C656D940CDBFDEBF59
:1016460088EC90E00E94D8160F2EFAE08F2EFBE66B
:101656009F2EF02DCE0101965C010F2EFBE1CF2EC1
:10166600FBE6DF2EF02D7E019FEDE91A9CEFF90ACD
:101676000F2EFCE26F2EFBE67F2EF02D8E010F5B08
:10168600194F0E94A911CF59D64F2883C156D94068
:10169600CD59D64F4883C356D940CC59D64F5883D7
:1016A600C456D940CB59D64F6883C556D940CA5976
:1016B600D64F7883C656D9403F93CF59D64F8881A7
:1016C600C156D9408F939F928F92BF92AF920E943C
:1016D6000015CC59D64F8881C456D9408F93CD5921
:1016E600D64F8881C356D9408F93DF92CF92FF920F
:1016F600EF920E940015CA59D64F8881C656D94026
:101706008F93CB59D64F8881C556D9408F937F92F8
:101716006F921F930F930E9400158CE39BE60E9425
:10172600DE14C5010E94DE14C7010E94DE14C80142
:101736000E94DE1488EE93E00E94D816CDBFDEBF6D
:02174600A0CF32
:10174800EF92FF920F931F93CF93DF93E0E2F4E0C1
:1017580080E28183858300EA14E080E1F8018283D6
:10176800C0E8D4E081E08A8382E08A8381E00E9435
:10177800321680931028909311280E9458170E94BF
:10178800DF1540E066E081E00E942511809315286E
:101798009093162884E0888B898BF801848BE0EA83
:1017A800F0E0808180628083E0E0F6E082818F7ED5
:1017B8008283828182838081816080838281836049
:1017C8008283E12CF12C00E020E030E04EE650E08E
:1017D8006EE87EE68BE19BE00E946D0220E030E03F
:1017E8004EE650E064E97EE68AE397E00E946D02E7
:1017F80020E030E04EE650E068E97EE68BE599E0CF
:101808000E946D0220E030E04EE650E062EA7EE69B
:1018180085E794E10E946D0201E020E030E04EE6A9
:1018280050E06AEA7EE689E994E10E946D020E942E
:10183800711380E090E0DF91CF911F910F91FF909D
:04184800EF90089580
:10184C00FF920F931F93CF93DF93EC01F62E009131
:10185C0091381091923880919738909198380296DF
:10186C000E942A14CF3F8FEFD807B1F5FF20A1F1CA
:10187C00E5E5F8E3A181B281C0919738D091983811
:10188C00AC83BD83C0919738D091983814968D91C4
:10189C009C9115978E839F831496CD91DC9115970F
:1018AC00809197389091983802968A839B83809187
:1018BC00973890919838029614968D939C9315971F
:1018CC00A0919738B09198381A96ED93FC931B978A
:1018DC0080818F5F80832FC0C00FD11FE09197381C
:1018EC00F0919838C283D383C017D10768F4609104
:1018FC0097387091983880919338909194386E5FA6
:10190C007F4F0E94401317C06091973870919838A0
:10191C0080919538909196386E5F7F4F0E9440135E
:10192C0080918D3890918E38C817D90720F4C093C8
:10193C008D38D0938E38DF91CF911F910F91FF90FE
:02194C000895FC
:10194E000F931F93CF93DF93FC01892B09F466C08D
:10195E0091A1961708F4962F8689891709F45EC00F
:10196E0022A1213009F05AC0968B24853585332368
:10197E0034F024E030E0291B31092487358790E0CC
:10198E009C01220F331F220F331F220F331F820F92
:10199E00931F8F5C974C2285338528173907F1F5F5
:1019AE00EF018F010E5F1F4FC8010E942A148E890E
:1019BE009091AD38981710F48093AD3890E0FC01FB
:1019CE00EE0FFF1FEE0FFF1FEE0FFF1F8E0F9F1F5D
:1019DE00FC01EF5CF74C0180F281E02DEC83FD837E
:1019EE00848195818E839F83A481B58112960D93F8
:1019FE001C931397048315838E8990E0FC01EE0FE0
:101A0E00FF1FEE0FFF1FEE0FFF1FE80FF91FEF5C1A
:101A1E00F74CEA87FB8780818F5F8083DF91CF91C0
:061A2E001F910F910895C5
:101A34008091A738882321F081E08093AB38089502
:101A44001092AB382091AD38822F90E0FC01EE0F5C
:101A5400FF1FEE0FFF1FEE0FFF1FE80FF91FEF5CD4
:101A6400F74C3081311111C02150822F90E0FC01DC
:101A7400EE0FFF1FEE0FFF1FEE0FFF1FE80FF91F02
:101A8400EF5CF74C3081332379F3AC01440F551FDD
:101A9400440F551F440F551F480F591FDA01AF5CFF
:101AA400B74C1196ED91FC9112970280F381E02DD1
:101AB4001196ED93FC9312974C5C574CE417F50781
:101AC40029F442815381FD0141835283FC01EE0FCD
:101AD400FF1FEE0FFF1FEE0FFF1F8E0F9F1FFC0156
:101AE400EF5CF74C0180F281E02D86819781809331
:0C1AF4009738909398382093AD380895EF
:101B0000EF92FF920F931F93CF93DF93FC01362F39
:101B1000892B09F44CC0238D222309F44AC0022FDB
:101B200010E0448DE42EF12C8FEF9FEFB8010E945E
:101B3000EC166E157F0508F43EC0EF010FB6F89461
:101B40000F9260817181CB01249F800D911D112422
:101B500084839583128E62837383015011090E9DD5
:101B6000C0010F9D900D1E9D900D1124860F971F93
:101B7000868397838FEF858F868F31110CC0808588
:101B8000882389F0CF0108960E940108882359F024
:101B90000E945F0F08C0CF0108960E947717CE0100
:101BA00041960E9477170F900FBE81E005C080E03C
:101BB00003C080E001C080E0DF91CF911F910F91C1
:061BC000FF90EF90089574
:101BC6000F931F93CF93DF93FC01892B09F451C028
:101BD60082A1815082A3268991A1291709F44BC0BD
:101BE60081114BC0EF018F010E5F1F4FC8010E948C
:101BF6002A1489A18E8B24E030E0281B31092C871A
:101C06003D879091AD38981710F48093AD3890E0E9
:101C1600FC01EE0FFF1FEE0FFF1FEE0FFF1F8E0FD3
:101C26009F1FFC01EF5CF74C0180F281E02DEC83F5
:101C3600FD83848195818E839F83A481B5811296CD
:101C46000D931C93139704831583EE89F0E0CF015F
:101C5600880F991F880F991F880F991FE80FF91F82
:101C6600EF5CF74CEA87FB8780818F5F808381E09A
:101C760005C080E003C080E001C080E0DF91CF9125
:061C86001F910F9108956B
:101C8C000F931F93CF93DF93EC01042F1A8D4C8D80
:101C9C0041110CC088819981892B09F042C08C813B
:101CAC009D810E94E30D1C821D8242C0011117C050
:101CBC0050E08A819B810E9410182C8D8A819B8117
:101CCC00820F911D8A839B832C813D818217930700
:101CDC0050F1888199818A839B8380E029C050E0F0
:101CEC008E819F810E9410188C8D90E0919581952A
:101CFC0091092E813F81280F391F2E833F83488104
:101D0C0059812417350730F42C813D81820F931FA4
:101D1C008E839F83023049F4112349F0115080E0E7
:101D2C0007C080E005C080E003C080E001C080E017
:0E1D3C001F5F1A8FDF91CF911F910F910895B5
:101D4A00FA01AA27283051F1203181F1E8946F93E2
:101D5A006E7F6E5F7F4F8F4F9F4FAF4FB1E03ED088
:101D6A00B4E03CD0670F781F891F9A1FA11D680F26
:101D7A00791F8A1F911DA11D6A0F711D811D911D59
:101D8A00A11D20D009F468943F912AE0269F1124CE
:101D9A003019305D3193DEF6CF010895462F477032
:101DAA00405D4193B3E00FD0C9F7F6CF462F4F708D
:101DBA00405D4A3318F0495D31FD4052419302D0EB
:101DCA00A9F7EACFB4E0A695979587957795679591
:101DDA00BA95C9F700976105710508959B01AC0191
:101DEA000A2E06945795479537952795BA95C9F7B8
:0C1DFA00620F731F841F951FA01D089529
:101E06000F920FB6F8940F921F9211242F923F92C1
:101E16004F925F926F927F928F929F92AF92BF92F4
:101E2600CF92DF92EF92FF920F931F932F933F93E0
:101E36004F935F936F937F938F939F93AF93BF93CC
:101E4600CF93DF93EF93FF93A0919738B091983893
:101E56000DB60D920EB60D920E94A00381110E943E
:101E66001A0DA0919738B0919838CD91CDBFDD91DC
:101E7600DEBFFF91EF91DF91CF91BF91AF919F911F
:101E86008F917F916F915F914F913F912F911F910C
:101E96000F91FF90EF90DF90CF90BF90AF909F9003
:101EA6008F907F906F905F904F903F902F901F90F4
:081EB6000F900FBE0F9018956C
:101EBE000F920FB6F8940F921F9211242F923F9209
:101ECE004F925F926F927F928F929F92AF92BF923C
:101EDE00CF92DF92EF92FF920F931F932F933F9328
:101EEE004F935F936F937F938F939F93AF93BF9314
:101EFE00CF93DF93EF93FF93A0919738B0919838DB
:101F0E000DB60D920EB60D920E941A0DA091973835
:101F1E00B0919838CD91CDBFDD91DEBFFF91EF919D
:101F2E00DF91CF91BF91AF919F918F917F916F91E3
:101F3E005F914F913F912F911F910F91FF90EF90D5
:101F4E00DF90CF90BF90AF909F908F907F906F90CB
:101F5E005F904F903F902F901F900F900FBE0F905D
:021F6E000895D4
:101F7000EF92FF920F931F93CF938C010FB6F894BB
:101F80000F92FC01C68D1C16ACF48189811106C02C
:101F900011C0F8018189811105C00CC07801F1E1FF
:101FA000EF0EF11CC7010E94010881110E94481820
:101FB000C15079F78FEFF801868F0F900FBE0FB6E3
:101FC000F8940F92C58D1C16ACF48085811106C063
:101FD00011C0F8018085811105C00CC07801F8E0BE
:101FE000EF0EF11CC7010E94010881110E944818E0
:101FF000C15079F78FEFF801858F0F900FBECF9109
:0A2000001F910F91FF90EF900895DB
:10200A0088E1809321048FEF8093610484E690E055
:10201A000E94D8162C988CE38DB90FB6F8940F92BB
:10202A002B9A00C000C02B980F900FBE9CE29A9585
:10203A00F1F700C02C988DB90FB6F8940F922B9A2D
:10204A0000C000C02B980F900FBE8CE28A95F1F762
:10205A0000C02C988CE08DB90FB6F8940F922B9A89
:10206A0000C000C02B980F900FBE9CE29A95F1F722
:10207A0000C00E94AE162C9886E08DB90FB6F8946F
:10208A000F922B9A00C000C02B980F900FBE8CE2C3
:08209A008A95F1F700C00895DA
:1020A2000F931F93CF93DF93FC018B01A181B28128
:1020B2008091973890919838EC01AE87BF878091D4
:1020C20097389091983814962D913C911597EC0180
:1020D200288B398B14968D919C9115972091973866
:1020E20030919838245F3F4FEC012A833B83209143
:1020F200973830919838245F3F4F14962D933C9334
:102102001597A0919738B09198385496ED93FC9317
:10211200559790819F5F9083442311F00FEF1FEF3B
:10212200642FC8010E94260CDF91CF911F910F915D
:0221320008950E
:102134000F931F93CF93DF93CDB7DEB72597CDBF12
:10214400DEBFE0919D38F0919E38309771F1D9014E
:1021540069834A835B838C839D836630ECF40E949D
:102164008517823061F420E0A801BE016F5F7F4FC4
:1021740080919D3890919E380E94BF0817C020E03E
:1021840040E050E0BE016F5F7F4F80919D38909199
:102194009E380E94BF080AC020E0AD01BE016F5FF7
:1021A4007F4FCF010E94E91101C080E02596CDBF89
:0C21B400DEBFDF91CF911F910F910895C5
:1021C0006115710509F440C020910228309103285F
:1021D0008217930779F4E0E0F0E005C0E1E0F0E079
:1021E00002C0E1E0F0E0EE0FFF1FEE0FFF1FE05036
:1021F000F84D12C02091002830910128232BE1F4E2
:1022000020910628309107288217930739F3E0E0E0
:10221000F8E202C0E4E0F8E23097B1F06083718345
:102220008283938308952091042830910528232BDD
:1022300089F3E0E0F0E0F0CF209106283091072804
:0A2240008217930771F2EFCF0895A3
:10224A000F931F93CF93DF93282F362F882361F1A3
:10225A00682F70E08FEF9FEF0E94EC16832F90E0BB
:10226A006817790720F1239FC0011124813E4FEF9F
:10227A00940700F5D32FC22F4F960E9461128C014A
:10228A000097D1F0D11104C0FC018083918304C06E
:10229A004F96F80180839183F801C38FD48F61E050
:1022AA00C8010E94800D08C000E010E005C000E0EF
:1022BA0010E002C000E010E0C801DF91CF911F9149
:0422CA000F910895D3
:1022CE000F931F93CF93DF938C010E94F417EC01B1
:1022DE008091993890919A38C817D90738F5E091BE
:1022EE00A138F091A2388081882381F00580F68193
:1022FE00E02D6FEF7FEF808191810E94FF13E091BF
:10230E00A138F091A23880818111F0CF80919F3851
:10231E009091A0388093A1389093A238E0939F3883
:10232E00F093A03881E0F801808302C0F80110829A
:10233E00C0939938D0939A38CE01DF91CF911F91E7
:04234E000F9108954E
:10235200CF92DF92EF92FF920F931F93CF93DF936F
:10236200CDB7DEB72697CDBFDEBF64E670E08091C1
:102372001028909111280E9472060E949317F82E3D
:10238200C92E0E94A117082FD92E0E94AF17182F0D
:10239200E92E20E040E050E060E070E080911028FB
:1023A200909111280E94BF082F2D3C2D402F5D2DAA
:1023B200612F7E2D80E090E02696CDBFDEBFDF91BB
:1023C200CF911F910F91FF90EF90DF90CF900895E2
:1023D200EF92FF920F931F93CF93DF938A01FC0139
:1023E200528D338D531710F0223001F5422F7801B0
:1023F200EC011E8D8A8DCE010E94460E1F3F81F494
:1024020089898823A9F0CE0141960E940108882378
:1024120089F0E114F10481F081E0F70180830DC0BD
:10242200FF24F394F10EFE8E81E007C080E005C028
:1024320081E003C081E001C081E0DF91CF911F9173
:082442000F91FF90EF90089547
:10244A000F931F93CF93DF93FB01238121FD03C0D9
:10245A008FEF9FEF2CC022FF16C04681578124813F
:10246A0035814217530744F4A081B1819D012F5F42
:10247A003F4F208331838C93268137812F5F3F4FD3
:10248A002683378314C08B01EC01FB010084F1859C
:10249A00E02D0995892BE1F6D80116968D919C912C
:1024AA001797019616968D939C931797CE01DF91F5
:0824BA00CF911F910F910895CD
:1024C200CF93DF93EC010E9438188091A33890914A
:1024D200A438892B31F481E398E28093A338909356
:1024E200A4382097C9F08091A5389091A6389E0112
:1024F200280F391F2F3F4FE0340788F482179307C4
:1025020088F4C091A338D091A438C80FD91F209362
:10251200A5383093A63808C0C0E0D0E005C0C0E0BE
:10252200D0E002C0C0E0D0E00E94B904CE01DF9149
:04253200CF910895A8
:10253600CF93DF930FB6F8940F9220919138309194
:102546009238DB014D915C914F3FBFEF5B0719F16C
:10255600EC01E981FA81A091AA38B881BA1741F055
:102566002E173F0728F0FB011082118281E014C06C
:102576002E1B3F0B2417350748F4FB01421B530B58
:10258600408351830E94C81780E006C0DB011D927C
:102596001C9281E001C080E00F900FBEDF91CF91C9
:0225A600089596
:1025A8008F929F92AF92BF92CF92DF92FF920F933A
:1025B8001F93CF93DF934C015B01F42E690183E1F4
:1025C80090E00E946112EC01892BA1F01A8A0E9406
:1025D800D01388829982AC86BD86CE86DF86088B2A
:1025E800198BCE0102960E944418FF2019F08A899F
:1025F80084608A8BCE01DF91CF911F910F91FF905C
:0E260800DF90CF90BF90AF909F908F9008957D
:10261600E0E8FAE085E09DE08487958781E08583A0
:102626008083A0919738B0919838CD91CDBFDD9138
:10263600DEBFFF91EF91DF91CF91BF91AF919F9157
:102646008F917F916F915F914F913F912F911F9144
:102656000F91FF90EF90DF90CF90BF90AF909F903B
:102666008F907F906F905F904F903F902F901F902C
:0A2676000F900FBE0F900895089515
:10268000CF93DF93EB01488159814F3F2FEF5207E2
:1026900021F4FC01A781B0850DC0DC01139601C0B7
:1026A000DF011296ED91FC91139720813181421741
:1026B0005307B0F71296ED91FC911397EA83FB83D1
:1026C000C483D583AC83BD831296CD93DC931397DB
:1026D00088879987FC0120812F5F2083DF91CF912C
:0226E00008955B
:1026E200EF92FF920F930F2EFBE8EF2EF8E3FF2EEF
:1026F200F02D00E020E030E04EE650E068E970E7BF
:1027020089E198E10E946D028130A1F40E94BC141B
:10271200813081F4F8948FEF9FEF80938D389093FE
:102722008E3881E08093AC381092913810929238B2
:102732000E940B138091A8380F91FF90EF9008959B
:10274200FC0162837383808791874617570790F055
:10275200421B530B8485958548175907E0F4BF0146
:102762006E5F7F4F80919F389091A0380E944013F6
:1027720080E008954217530718F46217730768F44C
:10278200BF016E5F7F4F8091A1389091A2380E9465
:0E279200401380E0089581E0089581E00895ED
:1027A0000FB6F8940F9280919D3890919E38892BA6
:1027B00019F582E898E30E94771789E798E30E9469
:1027C000771782E898E38093A1389093A23889E73D
:1027D00098E380939F389093A03840E065E085E0CF
:1027E0000E94251180939D3890939E38009721F088
:0E27F00062E670E70E94E0100F900FBE0895A1
:1027FE00EF92FF920F931F93CF93DF938C017B0188
:10280E00E091A138F091A2380580F681E02DC681C5
:10281E00D781CE0102960E942A148A8982FF06C0B1
:10282E00A701B801CE010E94511402C08E7F8A8B7F
:10283E00E889F989CE010995DF91CF911F910F910A
:06284E00FF90EF900895D9
:10285400CF93DF93FC01A085B185C281D3818481AC
:1028640095818C839D83C481D581828193818A8360
:102874009B8311968D919C911297E817F90731F477
:102884008481958111968D939C931297108611865D
:0E2894008C9181508C938C91DF91CF9108959F
:1028A200EF92FF920F931F93CF93DF93EC018B0173
:1028B2007A0108C08C859D85080F191FE889F9895E
:1028C200CE0109956C857D85600F711F9801A70166
:1028D200CE010E94A1138111EDCFDF91CF911F9103
:0828E2000F91FF90EF900895A3
:1028EA00CF93DF93CDB7DEB72697CDBFDEBF88EC97
:1028FA0090E00E94D8160E94A91129833A834B833B
:10290A005C836D837E8322E040E050E0BE016F5F0E
:10291A007F4F80911528909116280E94BF0884E65F
:08292A0090E00E94D816E7CFEF
:1029320080E28093A10404E615E125E030E041E065
:1029420064E670E082EA90E70E94D412EC010E94F1
:10295200F41700E010E020E030E0AC0161E0CE01CD
:102962000E949A1088EC90E00E94D81684E690E0CB
:062972000E94D816FBCF05
:10297800EF92FF920F930E94D01380919D3890910F
:102988009E38892B91F00F2EFBE9EF2EF8E3FF2EEE
:10299800F02D03E020E030E04CED50E067E670E712
:1029A80087E995E00E946D0201C080E00F91FF90D9
:0429B800EF900895FF
:1029BC00EF92FF920F931F93CF93DF938C017C01C7
:1029CC00C0E0D0E006C0F70181917F010E94291878
:1029DC002196F80101900020E9F73197E01BF10BEB
:1029EC00CE17DF0780F3DF91CF911F910F91FF90EE
:0429FC00EF900895BB
:102A0000AEE0B0E0E6E0F5E10C9473160D891E89A6
:102A100086E08C8309831A838FEF9FE78D839E83E3
:102A2000AE01475E5F4F6F89788DCE0101960E949F
:102A30008C00EF81F885E00FF11F10822E96E4E004
:042A40000C94A41638
:102A44002C98282F217030E0002436952795079480
:102A5400369527950794322F202D603108F06FE0CA
:102A64006068622B6DB90FB6F8940F922B9A00C070
:102A740000C02B980F900FBE8CE28A95F1F700C02E
:022A84000895B3
:102A860020910A2830910B28C901880F991F220F1F
:102A9600331F220F331F220F331F820F931F6FEF37
:102AA60073E00E94EC162CEC3CE0629FC001639F31
:102AB600900D729F900D11248093BC0A9093BD0ACD
:022AC600089571
:102AC800CF93DF93CDB7DEB72697CDBFDEBF0E9489
:102AD800A9114B835C836D837E832B813C818D811F
:102AE8009E818217930720F480E28093A60403C096
:102AF80080E28093A5042696CDBFDEBFDF91CF91FB
:022B080008952E
:102B0A004C44522076616C75653A20282564292048
:102B1A00004E54432076616C75653A202825642955
:102B2A002000504D2076616C75653A20282564296D
:0E2B3A0020000A0D56616C756573202D200079
:102B48000F931F9380912D2890912E280E94FE1795
:102B5800813069F400E010E020E030E040E050E02F
:102B680063E080912D2890912E280E949A1010924F
:0C2B7800BC0A1092BD0A1F910F91089535
:102B8400CF93DF93EC010FB6F8940F928D8D8F3FA6
:102B940009F41D8E8E8D8F3F09F41E8E0F900FBE8B
:102BA4008A8D811104C0CE0141960E945110CE013C
:0A2BB4000E94B80FDF91CF91089541
:102BBE00E0E2F4E0808180628083E4E2F4E08081F0
:102BCE0080628083E0EBFAE08FEF90E88487958750
:102BDE008081816080838081826080838181806139
:0A2BEE00818381818760818308954F
:102BF800E0919538F09196388081811107C08FEF68
:102C08009FEF80938D3890938E380895E091953892
:102C1800F09196380580F681E02D8081918180932E
:082C28008D3890938E38089559
:102C3000FC01448D4423A9F050E026813781240F04
:102C4000351F26833783848195812817390720F023
:102C50008081918186839783CB01668177810E94F1
:042C600010180895AB
:102C6400CF93DF93482F60E081E00E942511EC01AF
:102C7400009761F01C821D82188219821E8220E056
:102C840040E050E060E070E00E94BF08CE01DF91B8
:042C9400CF9108953F
:102C980080911228883121F491E0909313280DC077
:102CA800811103C01092132804C090911328911128
:102CB80004C08F5F80931228089581508093122852
:022CC80008956D
:102CCA002F923F924F925F926F927F928F929F9232
:102CDA00AF92BF92CF92DF92EF92FF920F931F9320
:102CEA00CF93DF93CDB7DEB7CA1BDB0BCDBFDEBFF9
:022CFA0009943B
:102CFC00FC012081222399F02C9A81918DB90FB679
:102D0C00F8940F922B9A00C000C02B980F900FBE16
:102D1C008CE28A95F1F700C080818111EDCF089586
:102D2C002A88398848885F846E847D848C849B844F
:102D3C00AA84B984C884DF80EE80FD800C811B815D
:102D4C00AA81B981CE0FD11DCDBFDEBFED01089593
:102D5C002C9881E08DB90FB6F8940F922B9A00C085
:102D6C0000C02B980F900FBE8CE28A95F1F700C033
:0A2D7C0082E090E00E94D81608954E
:102D86004454454B3030363820456D626564646581
:102D960064204D6963726F70726F636573736F72CF
:092DA6002053797374656D73000C
:012DAF000320
:102DB000CF93DF93EC01892B51F00E94381860E02B
:102DC000CE010E94260C0E94B904811102C00E940B
:082DD0005F0FDF91CF91089520
:102DD800AA1BBB1B51E107C0AA1FBB1FA617B70739
:102DE80010F0A61BB70B881F991F5A95A9F7809555
:082DF8009095BC01CD01089586
:102E0000CF93DF93EB016091973870919838645FAE
:102E10007F4F0E94401361E0CE010E94260CDF919B
:042E2000CF910895B1
:102E24008091973890919838892B39F0E0919738B0
:102E3400F091983882A18F5F82A380919738909106
:042E4400983808951D
:102E480074696D6572007363726F6C6C004C4452E8
:102E58003A202564004E54433A20256400504D3AE8
:042E680020256400BD
:102E6C00FC0160833197708331971082319720E891
:102E7C0020833197108277974083319750838397C3
:022E8C000895A7
:102E8E007072696E74006C6364006261636B6C696E
:102E9E0067687400646973706C61790064756D6D38
:022EAE007900A9
:102EB000E0E0F4E081E0818382E08283E0E0F8E01A
:102EC0008DE695E08087918786818064868308956A
:102ED000FB01DC014150504048F001900D92002070
:0E2EE000C9F701C01D9241505040E0F708951F
:102EEE00FC010396818392832FEF3FEF238334837C
:0C2EFE0085839683878390871082089557
:102F0A008091AC38882331F08091A738882321F04A
:0C2F1A0080E0089581E0089582E00895B1
:102F2600E0E0F6E088E0868381E08087838580FFA5
:0C2F3600FDCF80911006909111060895C7
:102F4200E0E0F6E089E0868381E08087838580FF88
:0C2F5200FDCF80911006909111060895AB
:102F5E00E0E0F6E08EE0868381E08087838580FF67
:0C2F6E00FDCF809110069091110608958F
:102F7A000FB6F8940F92FC01928D0F900FBE81E06C
:062F8A00911180E00895A2
:102F90002091AA38FC0120832091913830919238F9
:062FA00021833283089535
:102FA60080911428823019F41092142808958F5FA6
:062FB60080931428089529
:102FBC00FC010590615070400110D8F780959095F8
:062FCC008E0F9F1F089507
:102FD200FC016150704001900110D8F780959095E6
:062FE2008E0F9F1F0895F1
:102FE8000FB6F8940F9280919138909192380F9083
:042FF8000FBE08956B
:102FFC000FB6F8940F920F900FBEFC01828981706E
:02300C00089525
:10300E006261636B6C696768740074696D656F7576
:02301E0074003C
:10302000FB01DC0102C001900D9241505040D8F7E5
:02303000089501
:10303200C1E3D8E388818230E8F30E945F0FFACFC0
:103042000F9301E00093860A0F910E94030F1895D7
:10305200E0E0F8E0948195FFFDCF809302080895A7
:0D306200546D725100546D7220537663005E
:0C3070008091A7388F5F8093A7380895E7
:0C307C00EE0FFF1F0590F491E02D099469
:08308800FC0110861186089579
:0830900081E08093AB38089544
:0530980049444C450015
:04309E000C9400008E
:0430A2006C656400F5
:0230A60008958B
:00000001FF
