:100000000C9462000C94ED130C94ED130C94ED130E
:100010000C94ED130C94ED130C94ED130C94ED1360
:100020000C94ED130C94ED130C94ED130C94ED1350
:100030000C94BF130C94ED130C94ED130C94ED136E
:100040000C94ED130C94ED130C94ED130C94ED1330
:100050000C94ED130C94ED130C94ED130C94ED1320
:100060000C94ED130C94ED130C94ED130C94ED1310
:100070000C94ED130C94ED130C94ED130C94ED1300
:100080000C94ED130C94ED130C94ED130C94ED13F0
:100090000C94ED130C94ED130C94ED130C94ED13E0
:1000A000FD05FD052C0631064706FD05FD052C0660
:1000B00031062800388180388138820024BD38829A
:1000C0003888800011241FBECFEFCDBFDFE3DEBF35
:1000D000E2EBF0E040E017C0B591A5913591259194
:1000E000059107FD0CC095918591EF01F92FE82F3F
:1000F00005900D92A217B307D9F7FE0104C01D9217
:10010000A217B307E1F7E33CF40731F70E94840E2E
:080110000C948A00F894FFCF63
:10011800ABE0B0E0E2E9F0E00C94CC126C017B01BA
:100128008A01FC0116821782838181FFCCC1CE012E
:1001380001963C01F6019381F70193FD859193FFA8
:1001480081917F01882309F4BAC1853239F493FD7E
:10015800859193FF81917F01853229F4B60190E062
:100168000E944D0FE7CF912C212C312CFFE1F31584
:10017800D8F08B3279F038F4803279F08332A1F4F8
:10018800232D20611DC08D3261F0803369F4232D49
:10019800216016C0832D8260382EE32DE4603E2E48
:1001A8002AC0F32DF8601DC037FC2DC020ED280FA4
:1001B8002A3040F08E32B9F436FC81C1232D2064F8
:1001C800322E19C036FE06C08AE0989E200D1124F2
:1001D800922E11C0EAE02E9E200D1124222EF32D1E
:1001E800F0623F2E08C08C3621F4832D8068382EAB
:1001F80002C0883641F4F70193FD859193FF819100
:100208007F018111B3CF982F9F7D9554933028F4A7
:100218000C5F1F4F9FE399830DC0833631F08337FE
:1002280071F0833509F059C021C0F80180818983B4
:100238000E5F1F4F88248394912C530113C028010B
:10024800F2E04F0E511CF801A080B18036FE03C0C9
:10025800692D70E002C06FEF7FEFC5010E9499130E
:100268004C018201F32DFF773F2E16C0280122E0B2
:10027800420E511CF801A080B18036FE03C0692DE2
:1002880070E002C06FEF7FEFC5010E948E134C0132
:10029800F32DF0683F2E820133FC1BC0822D90E0C5
:1002A80088169906B0F4B60180E290E00E944D0FDE
:1002B8002A94F4CFF50137FC859137FE81915F01CF
:1002C800B60190E00E944D0F21102A9421E0821A75
:1002D80091088114910471F7E8C0843611F08936C9
:1002E80041F5F80137FE07C06081718182819381F1
:1002F8000C5F1F4F08C060817181072E000C880BAE
:10030800990B0E5F1F4FF32DFF763F2E97FF09C005
:1003180090958095709561957F4F8F4F9F4FF068AE
:100328003F2E2AE030E0A3010E943B0C882E86185D
:1003380045C0853731F4232D2F7EB22E2AE030E0D8
:1003480025C0932D997FB92E8F36C1F018F48835C2
:1003580079F0B5C0803719F0883721F0B0C0E92F9F
:10036800E061BE2EB4FE0DC0FB2DF460BF2E09C0A7
:1003780034FE0AC0292F2660B22E06C028E030E0DD
:1003880005C020E130E002C020E132E0F801B7FE0C
:1003980007C060817181828193810C5F1F4F06C005
:1003A8006081718180E090E00E5F1F4FA3010E9481
:1003B8003B0C882E8618FB2DFF773F2E36FE0DC08E
:1003C800232D2E7FA22E891458F434FE0BC032FC44
:1003D80009C0832D8E7EA82E05C0B82CA32C03C07F
:1003E800B82C01C0B92CA4FE0FC0FE01E80DF11D08
:1003F8008081803321F49A2D997EA92E09C0A2FE0E
:1004080006C0B394B39404C08A2D867809F0B394D7
:10041800A3FC11C0A0FE06C0B21488F4280C922CCC
:100428009B180EC0B21460F4B60180E290E00E94FE
:100438004D0FB394F7CFB21418F42B1802C0982CB0
:10044800212CA4FE10C0B60180E390E00E944D0F5D
:10045800A2FE17C0A1FC03C088E790E002C088E5AF
:1004680090E0B6010CC08A2D867859F0A1FE02C032
:100478008BE201C080E2A7FC8DE2B60190E00E9409
:100488004D0F891438F4B60180E390E00E944D0FB7
:100498009A94F7CF8A94F301E80DF11D8081B60193
:1004A80090E00E944D0F8110F5CF222009F442CE32
:1004B800B60180E290E00E944D0F2A94F6CFF60133
:1004C8008681978102C08FEF9FEF2B96E2E10C9413
:0204D800E5122B
:1004DA004F925F926F927F928F929F92AF92BF924A
:1004EA00CF92DF92EF92FF920F93CF93DF934C015B
:1004FA006B015A012901CA010E94890F3C01892B0B
:10050A0009F408C188E290E00E94890FEC01892B66
:10051A0059F06F8A788E81E0A81AB1086A0C7B1CA0
:10052A00C114D10429F420C0C3010E94EF13F2C000
:10053A00D6018C91898F8C918823A1F0AE01465EF9
:10054A005F4FF6013196B8E0CB0ED11CCF01219155
:10055A00DA012D93AD01DC018C91882319F0EC1599
:10056A00FD05A1F718A201C0198E043008F003E0B6
:10057A000E8B09A31AA26E01B2E0CB0ED11CC601E2
:10058A000E94E213CE010C960E94E213C887D98713
:10059A0084E090E0801B91098C879D87CA8BDB8B56
:1005AA0084E0FE01B396DF011D928A95E9F71FA246
:1005BA00A201B401C3010E94491388839983E114FB
:1005CA00F10419F0F701C083D1830FB6F8940F92A2
:1005DA00809187388F5F8093873880916E389091A9
:1005EA006F38892BA9F5C0936E38D0936F388091F4
:1005FA0087388130E9F588E098E30E946A1381E13F
:10060A0098E30E946A138AE198E30E946A1383E2DC
:10061A0098E30E946A1387E498E30E946A138EE3C0
:10062A0098E30E946A1385E398E30E946A138CE2B6
:10063A0098E30E946A1387E498E380936C38909356
:10064A006D388EE398E380936A3890936B3810C0C4
:10065A008091853881110CC0E0916E38F0916F3825
:10066A0096898E89891720F0C0936E38D0936F3897
:10067A00809182388F5F809382388E8990918638F4
:10068A00981710F48093863890E0FC01EE0FFF1F54
:10069A00EE0FFF1FEE0FFF1F8E0F9F1FFC01E85F7B
:1006AA00F74C0180F281E02DEC83FD8384819581F2
:1006BA008E839F83A481B5811296CD92DC92139783
:1006CA00C482D582EE89F0E0CF01880F991F880F86
:1006DA00991F880F991FE80FF91FE85FF74CEA87FF
:1006EA00FB8780818F5F80830F900FBE8091853852
:1006FA00882361F0E0916E38F0916F3896898E897F
:10070A00981730F40E94500D81E005C081E003C0C3
:10071A0081E001C08FEFDF91CF910F91FF90EF90B1
:10072A00DF90CF90BF90AF909F908F907F906F9007
:06073A005F904F9008954E
:100740000F931F93CF93DF9380918038811102C163
:10075000C0916838D09169388E010F5F1F4F0093A8
:1007600068381093693801151105B9F480916C3817
:1007700090916D3820916A3830916B3820936C38A5
:1007800030936D3880936A3890936B3880918338BA
:100790008F5F809383380E947C128091643890919F
:1007A00065380817190710F480E0B8C080E0E091C0
:1007B0006C38F0916D389081911107C02FEF3FEFA9
:1007C0002093643830936538A9C0E0916C38F0917B
:1007D0006D380580F681E02D0680F781E02D2281BD
:1007E00033810217130728F4209364383093653857
:1007F00095C0A285B3852481358146815781E90161
:100800004C835D832681378144815581E9014A8388
:100810005B83AF014E5F5F4F11962D913C91129714
:100820002417350731F42681378111962D933C9397
:100830001297128613869C9191509C93A489B58936
:10084000109719F12685378560897189E9016C83D4
:100850007D832089318966857785E9016A837B8379
:1008600011966D917C9112979F01245F3F4F621703
:10087000730731F42089318911962D933C93129797
:10088000148A158A9C9191509C9326899091863860
:10089000921710F42093863830E0D901AA0FBB1FBD
:1008A000AA0FBB1FAA0FBB1F2A0F3B1FD901A85FAE
:1008B000B74C11960D90BC91A02DA483B5831496CE
:1008C0002D913C9115972683378314962D913C9159
:1008D0001597E9014A835B8314964D935C931597B2
:1008E000A689B0E09D01220F331F220F331F220F74
:1008F000331FA20FB31FA85FB74CA287B3879C9189
:100900009F5F9C93A0916E38B0916F382689569660
:100910009C91291708F44BCF81E049CFE0916E38C4
:10092000F0916F38268930E0F901EE0FFF1FEE0FCE
:10093000FF1FEE0FFF1F2E0F3F1FF901E85FF74C5F
:100940009081923008F081E090918438992361F091
:1009500081E00AC080916638909167380196809353
:1009600066389093673880E0DF91CF911F910F91A7
:020970000895E8
:100972001F93CF93DF930FB6F8940F928091803834
:10098200815080938038809180388111C6C08091D7
:10099200873881119BC0C4C0DB011596ED91FC9193
:1009A20016970680F781E02DA489B58986859785FB
:1009B20020893189EC012C833D83808991892685A8
:1009C2003785EC012A833B83CF010C9611962D913A
:1009D2003C9112972817390731F480899189119631
:1009E2008D939C931297148A158A8C9181508C93C3
:1009F200A285B3858481958126813781EC012C8380
:100A02003D838681978124813581EC012A833B8352
:100A12009F012E5F3F4F11968D919C9112978217E5
:100A2200930731F48681978111968D939C93129747
:100A3200128613868C9181508C9386899091863888
:100A4200981710F48093863890E0DC01AA0FBB1F40
:100A5200AA0FBB1FAA0FBB1F8A0F9B1FDC01A85F37
:100A6200B74C11960D90BC91A02DA483B58314961A
:100A72008D919C9115978683978314968D919C9165
:100A82001597EC012A833B8314962D933C9315977B
:100A9200A689B0E0CD01880F991F880F991F880F92
:100AA200991FA80FB91FA85FB74CA287B3878C9173
:100AB2008F5F8C93A0916E38B0916F38968956965D
:100AC2008C91981740F04093843805C0E0E0F0E044
:100AD20065E378E341E0DB018C9181115DCFEF2B7F
:100AE20011F00E947C12C0916638D091673820972D
:100AF20061F011E00E94A0038111109384382197C4
:100B0200C9F710926638109267388091843888232A
:100B120031F00E94500D81E003C080E001C080E00E
:0C0B22000F900FBEDF91CF911F9108953E
:100B2E00CF93DF93CDB7DEB72697CDBFDEBFCE0115
:100B3E0001965C01082F1B2DE0917838F0917938E1
:100B4E008081882309F4B3C00580F681E02DE08012
:100B5E00F1800E94D613C5010E940B0F6C01898192
:100B6E0081111BC0CE14DF0438F00E94B904B60107
:100B7E00C7010E94F0108EC040E0B7016C197D09CC
:100B8E0080917438909175380E945F120E94B9045A
:100B9E00811180C00E94500D7DC00E94B9047AC0A0
:100BAE00898188230CF476C0EC80FD80D7011A96DB
:100BBE008D919C911B97892B21F0C70102960E9463
:100BCE001B11CE0106960E940B0F6C01E9818E2F30
:100BDE00EE0F990BAA0BBB0BFC013197E930F10517
:100BEE0008F058C0E05BFF4F0C94DC13F7018289CC
:100BFE008160828B2A813B8164857585620F731FAC
:100C0E00A601C7010E949210882309F443C0D701A0
:100C1E0052968C91529782FF0DC06A817B811C96F1
:100C2E008D919C911D97680F791FA601C7010E9497
:100C3E00901103C08E7FF701828BD7015096ED91F4
:100C4E00FC915197C701099525C0F70182898E7FC6
:100C5E00828B20C0D70152968C915297816052960A
:100C6E008C9352976A817B811C966D937C931D9712
:100C7E006C0D7D1D9601A601C7010E9492100AC03F
:100C8E00F701828981FD04C0C7010E94EF1302C0E3
:100C9E008E7F828B40E050E0602F712F80917438F0
:100CAE00909175380E94940881117ACF45CF0E9499
:100CBE00D613C5010E940B0F6C01898181116DCF76
:100CCE00E0917638F0917738808141E0811140E0F3
:060CDE00E12CF12C52CFC5
:100CE400CF92DF92EF92FF920F931F93CF93DF93F4
:100CF400CDB7DEB72597CDBFDEBF8C016C837D8376
:100D0400C12CD12C7C0181E1E80EF11C0FB6F894C2
:100D14000F92D8015A968C915A978823E9F0815002
:100D24005A968C935A978D919C91892B29F40E9401
:100D34003713F80184839583D80118968C918823FE
:100D440039F0C80108960E943A0781110E94500D9B
:100D54000F900FBE81E080C08C819D81892B21F48E
:100D64000F900FBE80E078C0D11006C0CE0101966E
:100D74000E948313DD24D3940F900FBE0E94D613D8
:100D84000FB6F8940F92F801858D8F3F09F4158EF4
:100D9400D8015E968C915E978F3F11F45E961C92FB
:100DA4000F900FBEBE016C5F7F4FCE0101960E9473
:100DB400C30F811129C0C8010E9478138823F1F060
:100DC400F80180819181892B51F40FB6F8940F9228
:100DD400848195810E942809C82E0F900FBE6C81D2
:100DE4007D81C7010E942513C8010E94A90D0E949C
:100DF400B90481118BCF0E94500D88CFC8010E9485
:100E0400A90D0E94B90482CFC8010E94A90D0E94B5
:100E1400B904C8010E947813882309F477CFCC2041
:100E2400D1F00FB6F8940F92F8018189882339F034
:100E34000688F789E02D808164E0681B01C060E0CA
:100E4400D80114968D919C9115970E943D0A0F909C
:100E54000FBE80E001C080E02596CDBFDEBFDF91EC
:100E6400CF911F910F91FF90EF90DF90CF90089555
:100E7400CF93DF93DC011596ED91FC9116970680D4
:100E8400F781E02DA489B589C685D78580899189A4
:100E94008C839D83C089D189868597858A839B832A
:100EA4009F01245F3F4F11968D919C911297821759
:100EB400930731F48089918911968D939C931297AD
:100EC400148A158A8C9181508C9380918038811179
:100ED40060C0A285B385C481D581868197818C83C6
:100EE4009D83C681D781848195818A839B839F0159
:100EF4002E5F3F4F11968D919C9112978217930705
:100F040031F48681978111968D939C931297128662
:100F140013868C9181508C9386899091863898178A
:100F240010F48093863890E0DC01AA0FBB1FAA0F4F
:100F3400BB1FAA0FBB1F8A0F9B1FDC01A85FB74C06
:100F440011960D90BC91A02DA483B58314968D9118
:100F54009C911597868397831496CD91DC91159770
:100F64002A833B8314962D933C931597A689B0E06E
:100F7400CD01880F991F880F991F880F991FA80FFB
:100F8400B91FA85FB74CA287B3878C918F5F8C93EE
:100F94001CC045E358E3DA011196CD91DC91129718
:100FA400C687D7878C819D81808B918B8C819D8115
:100FB400DC0112962D933C9313972C833D83448B31
:100FC400558BDA018C918F5F8C93A0916E38B09120
:100FD4006F38968956968C91891720F481E0809316
:0C0FE400843801C080E0DF91CF910895B7
:100FF000AF92BF92CF92DF92EF92FF920F931F9327
:10100000CF93DF93CDB7DEB72597CDBFDEBF8C0181
:101010006B014C835D83A22EB12C7C0188E0E80E2D
:10102000F11C0FB6F8940F92F801928D838D9817EA
:1010300018F0F2E0AF1219C04A2DB601C8010E94A3
:10104000DC0BF8019189992349F0C80141960E946F
:101050003A07882331F00E94500D03C081110E948D
:10106000500D0F900FBE81E051C08C819D81892B66
:1010700021F40F900FBE80E049C0B11006C0CE0130
:1010800001960E948313BB24B3940F900FBE0E945D
:10109000D6130FB6F8940F92F801858D8F3F09F49F
:1010A000158EF801868D8F3F09F4168E0F900FBEB6
:1010B000BE016C5F7F4FCE0101960E94C30F81116C
:1010C0001FC00FB6F8940F92F801928D0F900FBECB
:1010D000838D98130FC06C817D81C7010E942513F9
:1010E000C8010E94A90D0E94B90481119ACF0E94E3
:1010F000500D97CFC8010E94A90D0E94B90491CF4D
:10110000C8010E94A90D0E94B90480E02596CDBFB8
:10111000DEBFDF91CF911F910F91FF90EF90DF9095
:08112000CF90BF90AF9008953D
:10112800AF92BF92CF92DF92EF92FF920F931F93ED
:10113800CF93DF93CDB7DEB72597CDBFDEBF8C0148
:101148005B014C835D83E12C6C0181E1C80ED11CED
:101158000FB6F8940F92F801F28CFF20A9F0B501B0
:10116800C8010E949812FA94F801F28E80858823AB
:1011780039F0C80108960E943A0781110E94500D63
:101188000F900FBE81E052C08C819D81892B21F484
:101198000F900FBE80E04AC0E11006C0CE01019654
:1011A8000E948313EE24E3940F900FBE0E94D6137F
:1011B8000FB6F8940F92F801858D8F3F09F4158EBC
:1011C800F801868D8F3F09F4168E0F900FBEBE0171
:1011D8006C5F7F4FCE0101960E94C30F81111AC028
:1011E800C8010E947813882379F06C817D81C6013B
:1011F8000E942513C8010E94A90D0E94B9048111FB
:10120800A7CF0E94500DA4CFC8010E94A90D0E942B
:10121800B9049ECFC8010E94A90D0E94B904C80153
:101228000E947813882309F493CF80E02596CDBFD8
:10123800DEBFDF91CF911F910F91FF90EF90DF906C
:08124800CF90BF90AF90089514
:101250000F931F93CF93DF93FC01892B09F486C072
:101260002689A0916E38B0916F3856968C912817C8
:1012700008F070C084859585992364F0A0916E383C
:10128000B0916F3856963C9184E090E0831B9109B1
:101290008487958730E0C901880F991F880F991FAF
:1012A000880F991F280F391F285F374C8285938537
:1012B0008217930709F045C0EF018F010E5F1F4FA2
:1012C000C8010E941B11E0916E38F0916F38868939
:1012D0008E8B90918638981710F48093863890E022
:1012E000FC01EE0FFF1FEE0FFF1FEE0FFF1F8E0F13
:1012F0009F1FFC01E85FF74C0180F281E02DEC8339
:10130000FD83848195818E839F83A481B58112960C
:101310000D931C931397048315838E8990E0FC0131
:10132000EE0FFF1FEE0FFF1FEE0FFF1FE80FF91F5D
:10133000E85FF74CEA87FB8780818F5F808381E0DD
:1013400016C0A0916E38B0916F3856968C91868BEE
:1013500081E00DC0A0916E38B0916F3881E021A17D
:1013600056969C91291718F080E001C080E0DF912B
:08137000CF911F910F91089528
:10137800FF920F931F93CF93DF93EC01F62E00910A
:1013880068381091693880916E3890916F3802965C
:101398000E941B11CF3F8FEFD807B1F5FF20A1F1B5
:1013A800ECE2F8E3A181B281C0916E38D0916F3838
:1013B800AC83BD83C0916E38D0916F3814968D91EF
:1013C8009C9115978E839F831496CD91DC911597E8
:1013D80080916E3890916F3802968A839B838091B2
:1013E8006E3890916F38029614968D939C9315974A
:1013F800A0916E38B0916F381A96ED93FC931B97B5
:1014080080818F5F80832FC0C00FD11FE0916E381D
:10141800F0916F38C283D383C017D10768F4609105
:101428006E3870916F3880916A3890916B386E5F22
:101438007F4F0E94311017C060916E3870916F38DD
:1014480080916C3890916D386E5F7F4F0E9431109B
:101458008091643890916538C817D90720F4C093F3
:101468006438D0936538DF91CF911F910F91FF9029
:021478000895D5
:10147A000F931F93CF93DF93FC01892B09F466C066
:10148A0091A1961708F4962F8689891709F45EC0E8
:10149A0022A1213009F05AC0968B24853585332341
:1014AA0034F024E030E0291B31092487358790E0A5
:1014BA009C01220F331F220F331F220F331F820F6B
:1014CA00931F885F974C2285338528173907F1F5D2
:1014DA00EF018F010E5F1F4FC8010E941B118E89F9
:1014EA0090918638981710F48093863890E0FC0122
:1014FA00EE0FFF1FEE0FFF1FEE0FFF1F8E0F9F1F36
:10150A00FC01E85FF74C0180F281E02DEC83FD835A
:10151A00848195818E839F83A481B58112960D93D0
:10152A001C931397048315838E8990E0FC01EE0FB8
:10153A00FF1FEE0FFF1FEE0FFF1FE80FF91FE85FF7
:10154A00F74CEA87FB8780818F5F8083DF91CF9199
:06155A001F910F9108959E
:1015600080918038882321F081E080938438089529
:101570001092843820918638822F90E0FC01EE0F83
:10158000FF1FEE0FFF1FEE0FFF1FE80FF91FE85FB1
:10159000F74C3081311111C02150822F90E0FC01B5
:1015A000EE0FFF1FEE0FFF1FEE0FFF1FE80FF91FDB
:1015B000E85FF74C3081332379F3AC01440F551FBA
:1015C000440F551F440F551F480F591FDA01A85FDC
:1015D000B74C1196ED91FC9112970280F381E02DAA
:1015E0001196ED93FC931297455F574CE417F5075E
:1015F00029F442815381FD0141835283FC01EE0FA6
:10160000FF1FEE0FFF1FEE0FFF1F8E0F9F1FFC012E
:10161000E85FF74C0180F281E02D8681978180930D
:0C1620006E3890936F3820938638089540
:10162C00EF92FF920F931F93CF93DF93FC01362F12
:10163C00892B09F44CC0238D222309F44AC0022FB4
:10164C0010E0448DE42EF12C8FEF9FEFB8010E9437
:10165C0011136E157F0508F43EC0EF010FB6F89418
:10166C000F9260817181CB01249F800D911D1124FB
:10167C0084839583128E62837383015011090E9DAE
:10168C00C0010F9D900D1E9D900D1124860F971F6C
:10169C00868397838FEF858F868F31110CC0808561
:1016AC00882389F0CF0108960E943A07882359F0C5
:1016BC000E94500D08C0CF0108960E946A13CE01FB
:1016CC0041960E946A130F900FBE81E005C080E026
:1016DC0003C080E001C080E0DF91CF911F910F919A
:0616EC00FF90EF9008954D
:1016F2000F931F93CF93DF93FC01892B09F451C001
:1017020082A1815082A3268991A1291709F44BC095
:1017120081114BC0EF018F010E5F1F4FC8010E9464
:101722001B1189A18E8B24E030E0281B31092C8704
:101732003D8790918638981710F48093863890E010
:10174200FC01EE0FFF1FEE0FFF1FEE0FFF1F8E0FAC
:101752009F1FFC01E85FF74C0180F281E02DEC83D2
:10176200FD83848195818E839F83A481B5811296A6
:101772000D931C93139704831583EE89F0E0CF0138
:10178200880F991F880F991F880F991FE80FF91F5B
:10179200E85FF74CEA87FB8780818F5F808381E077
:1017A20005C080E003C080E001C080E0DF91CF91FE
:0617B2001F910F91089544
:1017B8000F931F93CF93DF93EC01042F1A8D4C8D59
:1017C80041110CC088819981892B09F042C08C8114
:1017D8009D810E94790B1C821D8242C0011117C095
:1017E80050E08A819B810E94AE132C8D8A819B8157
:1017F800820F911D8A839B832C813D8182179307D9
:1018080050F1888199818A839B8380E029C050E0C8
:101818008E819F810E94AE138C8D90E09195819569
:1018280091092E813F81280F391F2E833F834881DC
:1018380059812417350730F42C813D81820F931F7D
:101848008E839F83023049F4112349F0115080E0C0
:1018580007C080E005C080E003C080E001C080E0F0
:0E1868001F5F1A8FDF91CF911F910F9108958E
:10187600FA01AA27283051F1203181F1E8946F93BB
:101886006E7F6E5F7F4F8F4F9F4FAF4FB1E03ED061
:10189600B4E03CD0670F781F891F9A1FA11D680FFF
:1018A600791F8A1F911DA11D6A0F711D811D911D32
:1018B600A11D20D009F468943F912AE0269F1124A7
:1018C6003019305D3193DEF6CF010895462F47700B
:1018D600405D4193B3E00FD0C9F7F6CF462F4F7066
:1018E600405D4A3318F0495D31FD4052419302D0C4
:1018F600A9F7EACFB4E0A69597958795779567956A
:10190600BA95C9F700976105710508959B01AC0169
:101916000A2E06945795479537952795BA95C9F790
:0C192600620F731F841F951FA01D089501
:101932000F920FB6F8940F921F9211242F923F929A
:101942004F925F926F927F928F929F92AF92BF92CD
:10195200CF92DF92EF92FF920F931F932F933F93B9
:101962004F935F936F937F938F939F93AF93BF93A5
:10197200CF93DF93EF93FF93A0916E38B0916F38BE
:101982000DB60D920EB60D920E94A00381110E9417
:10199200B00AA0916E38B0916F38CD91CDBFDD9174
:1019A200DEBFFF91EF91DF91CF91BF91AF919F91F8
:1019B2008F917F916F915F914F913F912F911F91E5
:1019C2000F91FF90EF90DF90CF90BF90AF909F90DC
:1019D2008F907F906F905F904F903F902F901F90CD
:0819E2000F900FBE0F90189545
:1019EA00CF93DF93CDB7DEB7C056D940CDBFDEBFA8
:1019FA000F2EFAE78F2EF4E69F2EF02DCE010196D8
:101A0A005C010F2EFAE8CF2EF4E6DF2EF02D7E01D0
:101A1A009FEDE91A9CEFF90A0F2EFBE96F2EF4E607
:101A2A007F2EF02D8E010F5B194F0E94B411382EB4
:101A3A00292E0E944211482E0E946911582E2F9277
:101A4A003F929F928F92BF92AF920E941B121F9257
:101A5A004F92DF92CF92FF92EF920E941B121F9237
:101A6A005F927F926F921F930F930E941B128BEAD1
:101A7A0094E60E94F911C5010E94F911C7010E945A
:101A8A00F911C8010E94F91188EE93E00E94FD1233
:061A9A00CDBFDEBFCACF84
:101AA0000F920FB6F8940F921F9211242F923F922B
:101AB0004F925F926F927F928F929F92AF92BF925E
:101AC000CF92DF92EF92FF920F931F932F933F934A
:101AD0004F935F936F937F938F939F93AF93BF9336
:101AE000CF93DF93EF93FF93A0916E38B0916F384F
:101AF0000DB60D920EB60D920E94B00AA0916E38EE
:101B0000B0916F38CD91CDBFDD91DEBFFF91EF91E8
:101B1000DF91CF91BF91AF919F918F917F916F9105
:101B20005F914F913F912F911F910F91FF90EF90F7
:101B3000DF90CF90BF90AF909F908F907F906F90ED
:101B40005F904F903F902F901F900F900FBE0F907F
:021B50000895F6
:101B5200EF92FF920F931F93CF938C010FB6F894DD
:101B62000F92FC01C68D1C16ACF48189811106C04E
:101B720011C0F8018189811105C00CC07801F1E121
:101B8200EF0EF11CC7010E943A0781110E94E61371
:101B9200C15079F78FEFF801868F0F900FBE0FB605
:101BA200F8940F92C58D1C16ACF48085811106C085
:101BB20011C0F8018085811105C00CC07801F8E0E0
:101BC200EF0EF11CC7010E943A0781110E94E61331
:101BD200C15079F78FEFF801858F0F900FBECF912B
:0A1BE2001F910F91FF90EF900895FE
:101BEC000F931F93CF93DF93FC018B01A181B281E3
:101BFC0080916E3890916F38EC01AE87BF878091E1
:101C0C006E3890916F3814962D913C911597EC018C
:101C1C00288B398B14968D919C91159720916E3849
:101C2C0030916F38245F3F4FEC012A833B83209126
:101C3C006E3830916F38245F3F4F14962D933C9340
:101C4C001597A0916E38B0916F385496ED93FC9324
:101C5C00559790819F5F9083442311F00FEF1FEFF6
:101C6C00642FC8010E94BC09DF91CF911F910F9185
:021C7C000895C9
:101C7E006115710509F440C02091022830910328A6
:101C8E008217930779F4E0E0F0E005C0E1E0F0E0C0
:101C9E0002C0E1E0F0E0EE0FFF1FEE0FFF1FE0507D
:101CAE00F84D12C02091002830910128232BE1F429
:101CBE0020910628309107288217930739F3E0E028
:101CCE00F8E202C0E4E0F8E23097B1F0608371838D
:101CDE008283938308952091042830910528232B25
:101CEE0089F3E0E0F0E0F0CF20910628309107284C
:0A1CFE008217930771F2EFCF0895EB
:101D0800EF92FF920F930E945A13E0EBFAE0818161
:101D1800806181838181876081838FEF80936104F3
:101D2800A0EAB4E080E112968C931297E0E8F4E020
:101D380081E0828382E0828384E0808B818B549669
:101D48008C93E0E0F6E08281836182838081816008
:101D5800808381E00E94B21280937E3890937F380E
:101D6800E12CF12C00E020E030E04EE650E067EB9B
:101D780074E685EF9CE00E946D020E94621080E08C
:0A1D880090E00F91FF90EF90089596
:101D92000F931F93CF93DF93282F362F882361F160
:101DA200682F70E08FEF9FEF0E941113832F90E056
:101DB2006817790720F1239FC0011124813E4FEF5C
:101DC200940700F5D32FC22F4F960E94890F8C01E2
:101DD2000097D1F0D11104C0FC018083918304C02B
:101DE2004F96F80180839183F801C38FD48F61E00D
:101DF200C8010E94160B08C000E010E005C000E018
:101E020010E002C000E010E0C801DF91CF911F9105
:041E12000F9108958F
:101E16000F931F93CF93DF938C010E94A413EC01C1
:101E26008091703890917138C817D90738F5E091CC
:101E36007838F09179388081882381F00580F681A1
:101E4600E02D6FEF7FEF808191810E94F010E0918D
:101E56007838F091793880818111F0CF8091763889
:101E6600909177388093783890937938E0937638E4
:101E7600F093773881E0F801808302C0F801108280
:101E8600C0937038D0937138CE01DF91CF911F91F6
:041E96000F9108950B
:101E9A000F931F93CF93DF93FB01238121FD03C08F
:101EAA008FEF9FEF2CC022FF16C0468157812481F5
:101EBA0035814217530744F4A081B1819D012F5FF8
:101ECA003F4F208331838C93268137812F5F3F4F89
:101EDA002683378314C08B01EC01FB010084F18552
:101EEA00E02D0995892BE1F6D80116968D919C91E2
:101EFA001797019616968D939C931797CE01DF91AB
:081F0A00CF911F910F91089582
:101F1200CF93DF93EC010E94D61380917A3890918F
:101F22007B38892B31F488E098E280937A38909359
:101F32007B382097C9F080917C3890917D389E0142
:101F4200280F391F2F3F4FE0340788F48217930779
:101F520088F4C0917A38D0917B38C80FD91F20936A
:101F62007C3830937D3808C0C0E0D0E005C0C0E0C6
:101F7200D0E002C0C0E0D0E00E94B904CE01DF91FF
:041F8200CF9108955E
:101F8600CF93DF930FB6F8940F9220916838309173
:101F96006938DB014D915C914F3FBFEF5B0719F14B
:101FA600EC01E981FA81A0918338B881BA1741F032
:101FB6002E173F0728F0FB011082118281E014C022
:101FC6002E1B3F0B2417350748F4FB01421B530B0E
:101FD600408351830E94831380E006C0DB011D927B
:101FE6001C9281E001C080E00F900FBEDF91CF917F
:021FF60008954C
:101FF800E0E8FAE085E09DE08487958781E08583C5
:102008008083A0916E38B0916F38CD91CDBFDD91AE
:10201800DEBFFF91EF91DF91CF91BF91AF919F917B
:102028008F917F916F915F914F913F912F911F9168
:102038000F91FF90EF90DF90CF90BF90AF909F905F
:102048008F907F906F905F904F903F902F901F9050
:0A2058000F900FBE0F900895089539
:10206200CF93DF93EB01488159814F3F2FEF520706
:1020720021F4FC01A781B0850DC0DC01139601C0DB
:10208200DF011296ED91FC91139720813181421765
:102092005307B0F71296ED91FC911397EA83FB83F5
:1020A200C483D583AC83BD831296CD93DC931397FF
:1020B20088879987FC0120812F5F2083DF91CF9150
:0220C20008957F
:1020C400EF92FF920F930F2EF2E6EF2EF8E3FF2E1E
:1020D400F02D00E020E030E04EE650E064ED77E6DD
:1020E40087EB93E10E946D028130A1F40E94D71125
:1020F400813081F4F8948FEF9FEF8093643890934C
:10210400653881E080938538109268381092693878
:102114000E94FC0F809181380F91FF90EF900895F9
:10212400FC0162837383808791874617570790F079
:10213400421B530B8485958548175907E0F4BF016A
:102144006E5F7F4F80917638909177380E9431107E
:1021540080E008954217530718F46217730768F470
:10216400BF016E5F7F4F80917838909179380E94DB
:0E217400311080E0089581E0089581E0089523
:102182000FB6F8940F928091743890917538892B1C
:1021920019F589E598E30E946A1380E598E30E94A5
:1021A2006A1389E598E3809378389093793880E5CB
:1021B20098E3809376389093773840E065E085E045
:1021C2000E94C90E8093743890937538009721F05D
:0E21D2006EE977E60E943F0E0F900FBE089553
:1021E000EF92FF920F931F93CF93DF938C017B01AC
:1021F000E0917838F09179380580F681E02DC6813C
:10220000D781CE0102960E941B118A8982FF06C0E7
:10221000A701B801CE010E94901102C08E7F8A8B67
:10222000E889F989CE010995DF91CF911F910F912E
:06223000FF90EF900895FD
:10223600CF93DF93FC01A085B185C281D3818481D0
:1022460095818C839D83C481D581828193818A8384
:102256009B8311968D919C911297E817F90731F49B
:102266008481958111968D939C9312971086118681
:0E2276008C9181508C938C91DF91CF910895C3
:102284006FEF7FEF80917E3890917F380E947206C5
:10229400E0E0F6E082818F7E8283828180618283A6
:1022A40088E0868381E08087838580FFFDCF20E0FE
:1022B40040E050E060E070E080917E3890917F389B
:0E22C4000E94F807809110069091110608956F
:1022D2006FEF7FEF80917E3890917F380E94720677
:1022E200E0E0F6E082818F7E828382818061828358
:1022F20089E0868381E08087838580FFFDCF20E0AF
:1023020040E050E060E070E080917E3890917F384C
:0E2312000E94F8078091100690911106089520
:10232000EF92FF920F931F93CF93DF93EC018B01FA
:102330007A0108C08C859D85080F191FE889F989E5
:10234000CE0109956C857D85600F711F9801A701ED
:10235000CE010E9492108111EDCFDF91CF911F919C
:082360000F91FF90EF9008952A
:102368006FEF7FEF80917E3890917F380E947206E0
:10237800E0E0F6E0828182838EE0868381E08087D8
:10238800838580FFFDCF20E040E050E060E070E012
:1023980080917E3890917F380E94F80780911006CE
:0623A8009091110608955A
:1023AE00EF92FF920F930E94C1108091743890911A
:1023BE007538892B91F00F2EF2E7EF2EF8E3FF2EF2
:1023CE00F02D03E020E030E04CED50E063EA77E6DC
:1023DE0087E995E00E946D0201C080E00F91FF90A9
:0423EE00EF900895CF
:1023F200EF92FF920F931F93CF93DF938C017C0197
:10240200C0E0D0E006C0F70181917F010E94C713AE
:102412002196F80101900020E9F73197E01BF10BBA
:10242200CE17DF0780F3DF91CF911F910F91FF90BD
:04243200EF9008958A
:10243600AEE0B0E0E1E2F2E10C94DA120D891E8919
:1024460086E08C8309831A838FEF9FE78D839E83B3
:10245600AE01475E5F4F6F89788DCE0101960E946F
:102466008C00EF81F885E00FF11F10822E96E4E0D4
:042476000C94F312BD
:10247A00504D2076616C75653A2028256429200024
:10248A004C44522076616C75653A202825642920CF
:10249A00004E54432076616C75653A2028256429DC
:1024AA00000A0D56616C756573202D2000707269E3
:0324BA006E74003D
:0124BD00031B
:1024BE00CF93DF93EC010FB6F8940F928D8D8F3F73
:1024CE0009F41D8E8E8D8F3F09F41E8E0F900FBE58
:1024DE008A8D811104C0CE0141960E94F60DCE0167
:0A24EE000E94A90DDF91CF9108951F
:1024F800E0916C38F0916D388081811107C08FEFC1
:102508009FEF80936438909365380895E0916C3814
:10251800F0916D380580F681E02D8081918180935E
:082528006438909365380895B2
:10253000FC01448D4423A9F050E026813781240F0B
:10254000351F26833783848195812817390720F02A
:102550008081918186839783CB01668177810E94F8
:04256000AE13089519
:10256400CF93DF93482F60E081E00E94C90EEC0115
:10257400009761F01C821D82188219821E8220E05D
:1025840040E050E060E070E00E94F807CE01DF9187
:04259400CF91089546
:102598002F923F924F925F926F927F928F929F926B
:1025A800AF92BF92CF92DF92EF92FF920F931F9359
:1025B800CF93DF93CDB7DEB7CA1BDB0BCDBFDEBF32
:0225C800099474
:1025CA002A88398848885F846E847D848C849B84B9
:1025DA00AA84B984C884DF80EE80FD800C811B81C7
:1025EA00AA81B981CE0FD11DCDBFDEBFED010895FD
:1025FA00CF93DF93EC01892B51F00E94D61360E050
:10260A00CE010E94BC090E94B904811102C00E9435
:08261A00500DDF91CF910895EE
:10262200AA1BBB1B51E107C0AA1FBB1FA617B707F6
:1026320010F0A61BB70B881F991F5A95A9F7809512
:082642009095BC01CD01089543
:10264A00CF93DF93EB0160916E3870916F38645FBE
:10265A007F4F0E94311061E0CE010E94BC09DF91D8
:04266A00CF9108956F
:10266E0080916E3890916F38892B39F0E0916E38E9
:10267E00F0916F3882A18F5F82A380916E38909116
:04268E006F38089504
:10269200FC0160833197708331971082319720E873
:1026A20020833197108277974083319750838397A5
:0226B200089589
:1026B400E0E0F4E081E0818382E08283E0E0F8E01E
:1026C4008DE695E08087918786818064868308956E
:1026D400FC010396818392832FEF3FEF238334839E
:0C26E40085839683878390871082089579
:1026F0000FB6F8940F92FC01928D0F900FBE81E0FF
:06270000911180E0089534
:1027060020918338FC012083209168383091693804
:06271600218332830895C7
:10271C00FC010590615070400110D8F780959095A0
:06272C008E0F9F1F0895AF
:10273200FC016150704001900110D8F7809590958E
:062742008E0F9F1F089599
:102748000FB6F8940F9280916838909169380F907D
:042758000FBE089513
:10275C00FB01DC0102C001900D9241505040D8F7B2
:02276C000895CE
:10276E00C8E0D8E388818230E8F30E94500DFACF9A
:10277E000F9301E00093860A0F910E94990C189511
:10278E00E0E0F8E0948195FFFDCF80930208089574
:0D279E00546D725100546D7220537663002B
:0C27AC00809180388F5F80938038089502
:0C27B800EE0FFF1F0590F491E02D099436
:0827C400FC0110861186089546
:0827CC0081E080938438089538
:0527D40049444C4500E2
:0427DA000C9400005B
:0227DE0008955C
:00000001FF
