:100000000C9462000C9481180C9481180C94811843
:100010000C9481180C9481180C9481180C948118FC
:100020000C9481180C9481180C9481180C948118EC
:100030000C9453180C9481180C9481180C9481180A
:100040000C9481180C9481180C9481180C948118CC
:100050000C9481180C9481180C9481180C948118BC
:100060000C9481180C9481180C9481180C948118AC
:100070000C9481180C9481180C9481180C9481189C
:100080000C9481180C9481180C9481180C9481188C
:100090000C9481180C9481180C9481180C9481187C
:1000A000FD05FD052C0631064706FD05FD052C0660
:1000B0003106280038A48038A438A5002E3738A58A
:1000C00038AB800011241FBECFEFCDBFDFE3DEBF12
:1000D000E2EBF0E040E017C0B591A5913591259194
:1000E000059107FD0CC095918591EF01F92FE82F3F
:1000F00005900D92A217B307D9F7FE0104C01D9217
:10010000A217B307E1F7E33CF40731F70E944F0C65
:080110000C948A00F894FFCF63
:10011800ABE0B0E0E2E9F0E00C9494166C017B01EE
:100128008A01FC0116821782838181FFCCC1CE012E
:1001380001963C01F6019381F70193FD859193FFA8
:1001480081917F01882309F4BAC1853239F493FD7E
:10015800859193FF81917F01853229F4B60190E062
:100168000E940912E7CF912C212C312CFFE1F315C5
:10017800D8F08B3279F038F4803279F08332A1F4F8
:10018800232D20611DC08D3261F0803369F4232D49
:10019800216016C0832D8260382EE32DE4603E2E48
:1001A8002AC0F32DF8601DC037FC2DC020ED280FA4
:1001B8002A3040F08E32B9F436FC81C1232D2064F8
:1001C800322E19C036FE06C08AE0989E200D1124F2
:1001D800922E11C0EAE02E9E200D1124222EF32D1E
:1001E800F0623F2E08C08C3621F4832D8068382EAB
:1001F80002C0883641F4F70193FD859193FF819100
:100208007F018111B3CF982F9F7D9554933028F4A7
:100218000C5F1F4F9FE399830DC0833631F08337FE
:1002280071F0833509F059C021C0F80180818983B4
:100238000E5F1F4F88248394912C530113C028010B
:10024800F2E04F0E511CF801A080B18036FE03C0C9
:10025800692D70E002C06FEF7FEFC5010E941B1887
:100268004C018201F32DFF773F2E16C0280122E0B2
:10027800420E511CF801A080B18036FE03C0692DE2
:1002880070E002C06FEF7FEFC5010E9410184C01AB
:10029800F32DF0683F2E820133FC1BC0822D90E0C5
:1002A80088169906B0F4B60180E290E00E9409121F
:1002B8002A94F4CFF50137FC859137FE81915F01CF
:1002C800B60190E00E94091221102A9421E0821AB6
:1002D80091088114910471F7E8C0843611F08936C9
:1002E80041F5F80137FE07C06081718182819381F1
:1002F8000C5F1F4F08C060817181072E000C880BAE
:10030800990B0E5F1F4FF32DFF763F2E97FF09C005
:1003180090958095709561957F4F8F4F9F4FF068AE
:100328003F2E2AE030E0A3010E94C90E882E8618CD
:1003380045C0853731F4232D2F7EB22E2AE030E0D8
:1003480025C0932D997FB92E8F36C1F018F48835C2
:1003580079F0B5C0803719F0883721F0B0C0E92F9F
:10036800E061BE2EB4FE0DC0FB2DF460BF2E09C0A7
:1003780034FE0AC0292F2660B22E06C028E030E0DD
:1003880005C020E130E002C020E132E0F801B7FE0C
:1003980007C060817181828193810C5F1F4F06C005
:1003A8006081718180E090E00E5F1F4FA3010E9481
:1003B800C90E882E8618FB2DFF773F2E36FE0DC0FE
:1003C800232D2E7FA22E891458F434FE0BC032FC44
:1003D80009C0832D8E7EA82E05C0B82CA32C03C07F
:1003E800B82C01C0B92CA4FE0FC0FE01E80DF11D08
:1003F8008081803321F49A2D997EA92E09C0A2FE0E
:1004080006C0B394B39404C08A2D867809F0B394D7
:10041800A3FC11C0A0FE06C0B21488F4280C922CCC
:100428009B180EC0B21460F4B60180E290E00E94FE
:100438000912B394F7CFB21418F42B1802C0982CF1
:10044800212CA4FE10C0B60180E390E00E9409129E
:10045800A2FE17C0A1FC03C088E790E002C088E5AF
:1004680090E0B6010CC08A2D867859F0A1FE02C032
:100478008BE201C080E2A7FC8DE2B60190E00E9409
:100488000912891438F4B60180E390E00E94091239
:100498009A94F7CF8A94F301E80DF11D8081B60193
:1004A80090E00E9409128110F5CF222009F442CE73
:1004B800B60180E290E00E9409122A94F6CFF60174
:1004C8008681978102C08FEF9FEF2B96E2E10C9413
:0204D800C51647
:1004DA004F925F926F927F928F929F92AF92BF924A
:1004EA00CF92DF92EF92FF920F93CF93DF934C015B
:1004FA006B015A012901CA010E9445123C01892B4C
:10050A0009F408C188E290E00E944512EC01892BA7
:10051A0059F06F8A788E81E0A81AB1086A0C7B1CA0
:10052A00C114D10429F420C0C3010E948518F2C065
:10053A00D6018C91898F8C918823A1F0AE01465EF9
:10054A005F4FF6013196B8E0CB0ED11CCF01219155
:10055A00DA012D93AD01DC018C91882319F0EC1599
:10056A00FD05A1F718A201C0198E043008F003E0B6
:10057A000E8B09A31AA26E01B2E0CB0ED11CC601E2
:10058A000E947618CE010C960E947618C887D987E1
:10059A0084E090E0801B91098C879D87CA8BDB8B56
:1005AA0084E0FE01B396DF011D928A95E9F71FA246
:1005BA00A201B401C3010E94681788839983E114D8
:1005CA00F10419F0F701C083D1830FB6F8940F92A2
:1005DA008091AA388F5F8093AA388091933890913E
:1005EA009438892BA9F5C0939338D0939438809185
:1005FA00AA388130E9F58DE298E30E94A91786E3CB
:10060A0098E30E94A9178FE398E30E94A91788E448
:10061A0098E30E94A9178CE698E30E94A91783E63B
:10062A0098E30E94A9178AE598E30E94A91781E531
:10063A0098E30E94A9178CE698E3809391389093E7
:10064A00923883E698E380938F389093903810C05D
:10065A008091A83881110CC0E0919338F0919438B8
:10066A0096898E89891720F0C0939338D09394384D
:10067A008091A5388F5F8093A5388E899091A9388B
:10068A00981710F48093A93890E0FC01EE0FFF1F31
:10069A00EE0FFF1FEE0FFF1F8E0F9F1FFC01E35D82
:1006AA00F74C0180F281E02DEC83FD8384819581F2
:1006BA008E839F83A481B5811296CD92DC92139783
:1006CA00C482D582EE89F0E0CF01880F991F880F86
:1006DA00991F880F991FE80FF91FE35DF74CEA8706
:1006EA00FB8780818F5F80830F900FBE8091A8382F
:1006FA00882361F0E0919338F091943896898E8935
:10070A00981730F40E94830F81E005C081E003C08E
:10071A0081E001C08FEFDF91CF910F91FF90EF90B1
:10072A00DF90CF90BF90AF909F908F907F906F9007
:06073A005F904F9008954E
:100740000F931F93CF93DF938091A338811102C140
:10075000C0918D38D0918E388E010F5F1F4F00935E
:100760008D3810938E3801151105B9F480919138A8
:100770009091923820918F38309190382093913811
:100780003093923880938F38909390388091A63828
:100790008F5F8093A6380E942B16809189389091A4
:1007A0008A380817190710F480E0B8C080E0E0919B
:1007B0009138F09192389081911107C02FEF3FEF5F
:1007C0002093893830938A38A9C0E0919138F0910C
:1007D00092380580F681E02D0680F781E02D228198
:1007E00033810217130728F42093893830938A380D
:1007F00095C0A285B3852481358146815781E90161
:100800004C835D832681378144815581E9014A8388
:100810005B83AF014E5F5F4F11962D913C91129714
:100820002417350731F42681378111962D933C9397
:100830001297128613869C9191509C93A489B58936
:10084000109719F12685378560897189E9016C83D4
:100850007D832089318966857785E9016A837B8379
:1008600011966D917C9112979F01245F3F4F621703
:10087000730731F42089318911962D933C93129797
:10088000148A158A9C9191509C9326899091A9383D
:10089000921710F42093A93830E0D901AA0FBB1F9A
:1008A000AA0FBB1FAA0FBB1F2A0F3B1FD901A35DB5
:1008B000B74C11960D90BC91A02DA483B5831496CE
:1008C0002D913C9115972683378314962D913C9159
:1008D0001597E9014A835B8314964D935C931597B2
:1008E000A689B0E09D01220F331F220F331F220F74
:1008F000331FA20FB31FA35DB74CA287B3879C9190
:100900009F5F9C93A0919338B09194382689569616
:100910009C91291708F44BCF81E049CFE09193389F
:10092000F0919438268930E0F901EE0FFF1FEE0FA9
:10093000FF1FEE0FFF1F2E0F3F1FF901E35DF74C66
:100940009081923008F081E09091A738992361F06E
:1009500081E00AC080918B3890918C380196809309
:100960008B3890938C3880E0DF91CF911F910F915D
:020970000895E8
:100972001F93CF93DF930FB6F8940F928091A33811
:1009820081508093A3388091A3388111C6C0809191
:10099200AA3881119BC0C4C0DB011596ED91FC9170
:1009A20016970680F781E02DA489B58986859785FB
:1009B20020893189EC012C833D83808991892685A8
:1009C2003785EC012A833B83CF010C9611962D913A
:1009D2003C9112972817390731F480899189119631
:1009E2008D939C931297148A158A8C9181508C93C3
:1009F200A285B3858481958126813781EC012C8380
:100A02003D838681978124813581EC012A833B8352
:100A12009F012E5F3F4F11968D919C9112978217E5
:100A2200930731F48681978111968D939C93129747
:100A3200128613868C9181508C9386899091A93865
:100A4200981710F48093A93890E0DC01AA0FBB1F1D
:100A5200AA0FBB1FAA0FBB1F8A0F9B1FDC01A35D3E
:100A6200B74C11960D90BC91A02DA483B58314961A
:100A72008D919C9115978683978314968D919C9165
:100A82001597EC012A833B8314962D933C9315977B
:100A9200A689B0E0CD01880F991F880F991F880F92
:100AA200991FA80FB91FA35DB74CA287B3878C917A
:100AB2008F5F8C93A0919338B09194389689569613
:100AC2008C91981740F04093A73805C0E0E0F0E021
:100AD2006AE578E341E0DB018C9181115DCFEF2B78
:100AE20011F00E942B16C0918B38D0918C38209730
:100AF20061F011E00E94A00381111093A7382197A1
:100B0200C9F710928B3810928C388091A7388823BD
:100B120031F00E94830F81E003C080E001C080E0D9
:0C0B22000F900FBEDF91CF911F9108953E
:100B2E00CF93DF93CDB7DEB72697CDBFDEBFCE0115
:100B3E0001965C01082F1B2DE0919D38F0919E3897
:100B4E008081882309F4B3C00580F681E02DE08012
:100B5E00F1800E946A18C5010E948B116C01898177
:100B6E0081111BC0CE14DF0438F00E94B904B60107
:100B7E00C7010E944E148EC040E0B7016C197D096A
:100B8E008091993890919A380E94F1150E94B9047B
:100B9E00811180C00E94830F7DC00E94B9047AC06B
:100BAE00898188230CF476C0EC80FD80D7011A96DB
:100BBE008D919C911B97892B21F0C70102960E9463
:100BCE007914CE0106960E948B116C01E9818E2F4D
:100BDE00EE0F990BAA0BBB0BFC013197E930F10517
:100BEE0008F058C0E05BFF4F0C947018F701828933
:100BFE008160828B2A813B8164857585620F731FAC
:100C0E00A601C7010E94F013882309F443C0D7013F
:100C1E0052968C91529782FF0DC06A817B811C96F1
:100C2E008D919C911D97680F791FA601C7010E9497
:100C3E00C71403C08E7FF701828BD7015096ED91BA
:100C4E00FC915197C701099525C0F70182898E7FC6
:100C5E00828B20C0D70152968C915297816052960A
:100C6E008C9352976A817B811C966D937C931D9712
:100C7E006C0D7D1D9601A601C7010E94F0130AC0DE
:100C8E00F701828981FD04C0C7010E94851802C048
:100C9E008E7F828B40E050E0602F712F80919938CB
:100CAE0090919A380E94A60A81117ACF45CF0E9460
:100CBE006A18C5010E948B116C01898181116DCF5B
:100CCE00E0919B38F0919C38808141E0811140E0A9
:060CDE00E12CF12C52CFC5
:100CE400CF93DF93CDB7DEB7C656D940CDBFDEBFB5
:100CF4000E94291010920B2810920A2805E018E18E
:100D040020E030E041E064E972E084EE9DE60E9478
:100D1400B8127C010BE716E121E030E041E068EC19
:100D240070E08AEE9DE60E94B8126C010E942618BB
:100D34000AE010E020E030E0AC0161E0C6010E946E
:100D4400BE100E94261820E030E0AC0161E0C7012B
:100D54000E94BE100F2EFBEF8F2EFDE69F2EF02D6E
:100D64007E018FEDE81A8CEFF80A0F2EF1EFAF2E0B
:100D7400FDE6BF2EF02DCE0101966C010F2EF5E09D
:100D84006F2EFEE67F2EF02D8E010F5B194F44E689
:100D940050E0BE016F59764F80910D2890910E2836
:100DA4000E94A60A813009F061C080910C2881302C
:100DB40011F118F08230E9F159C0CE59D64F88812B
:100DC400C256D9408F93CF59D64F8881C156D94046
:100DD4008F93BF92AF92DF92CF920E9452150E94DE
:100DE400DD16C6010E94AD160F900F900F900F9064
:100DF4000F900F903BC0CC59D64F8881C456D94030
:100E04008F93CD59D64F8881C356D9408F939F92E3
:100E14008F92FF92EF920E9452150E94DD16C70135
:100E24000E94AD160F900F900F900F900F900F909F
:100E34001DC0CA59D64F8881C656D9408F93CB5905
:100E4400D64F8881C556D9408F937F926F921F9356
:100E54000F930E9452150E94DD16C8010E94AD1620
:100E64000F900F900F900F900F900F9060E081E023
:100E74000E94741560910A2870E0625F714940E134
:100E840050E08FE098E20E949A178FE098E20E9467
:040E9400AD167DCF4B
:100E9800CF92DF92EF92FF920F931F93CF93DF933E
:100EA800CDB7DEB72597CDBFDEBF8C016C837D83C0
:100EB800C12CD12C7C0181E1E80EF11C0FB6F8940D
:100EC8000F92D8015A968C915A978823E9F081504D
:100ED8005A968C935A978D919C91892B29F40E944C
:100EE8005617F80184839583D80118968C91882326
:100EF80039F0C80108960E94140881110E94830FD6
:100F08000F900FBE81E080C08C819D81892B21F4D8
:100F18000F900FBE80E078C0D11006C0CE010196B8
:100F28000E94FA17DD24D3940F900FBE0E946A180E
:100F38000FB6F8940F92F801858D8F3F09F4158E3E
:100F4800D8015E968C915E978F3F11F45E961C9245
:100F58000F900FBEBE016C5F7F4FCE0101960E94BD
:100F68007F12811129C0C8010E94EF178823F1F070
:100F7800F80180819181892B51F40FB6F8940F9272
:100F8800848195810E943A0BC82E0F900FBE6C8108
:100F98007D81C7010E944417C8010E94DC0F0E948E
:100FA800B90481118BCF0E94830F88CFC8010E949A
:100FB800DC0F0E94B90482CFC8010E94DC0F0E9496
:100FC800B904C8010E94EF17882309F477CFCC2011
:100FD800D1F00FB6F8940F92F8018189882339F07F
:100FE8000688F789E02D808164E0681B01C060E015
:100FF800D80114968D919C9115970E94CB0C0F9057
:101008000FBE80E001C080E02596CDBFDEBFDF9136
:10101800CF911F910F91FF90EF90DF90CF9008959F
:10102800CF93DF93DC011596ED91FC91169706801E
:10103800F781E02DA489B589C685D78580899189EE
:101048008C839D83C089D189868597858A839B8374
:101058009F01245F3F4F11968D919C9112978217A3
:10106800930731F48089918911968D939C931297F7
:10107800148A158A8C9181508C938091A3388111A0
:1010880060C0A285B385C481D581868197818C8310
:101098009D83C681D781848195818A839B839F01A3
:1010A8002E5F3F4F11968D919C911297821793074F
:1010B80031F48681978111968D939C9312971286AD
:1010C80013868C9181508C9386899091A9389817B2
:1010D80010F48093A93890E0DC01AA0FBB1FAA0F77
:1010E800BB1FAA0FBB1F8A0F9B1FDC01A35DB74C58
:1010F80011960D90BC91A02DA483B58314968D9163
:101108009C911597868397831496CD91DC911597BA
:101118002A833B8314962D933C931597A689B0E0B8
:10112800CD01880F991F880F991F880F991FA80F45
:10113800B91FA35DB74CA287B3878C918F5F8C933F
:101148001CC04AE558E3DA011196CD91DC9112975B
:10115800C687D7878C819D81808B918B8C819D815F
:10116800DC0112962D933C9313972C833D83448B7B
:10117800558BDA018C918F5F8C93A0919338B09145
:101188009438968956968C91891720F481E080933B
:0C119800A73801C080E0DF91CF910895DE
:1011A400CF93DF93CDB7DEB7C656D940CDBFDEBFF0
:1011B4000F2EFAE28F2EFBE69F2EF02DCE01019624
:1011C4005C010F2EFBE3CF2EFBE6DF2EF02D7E011C
:1011D4009FEDE91A9CEFF90A0F2EFCE46F2EFBE653
:1011E4007F2EF02D8E010F5B194F64E670E0809125
:1011F4000828909109280E944C070E94A014CF59F6
:10120400D64F2883C156D940CE59D64F3883C256BB
:10121400D940CD59D64F4883C356D940CC59D64F1F
:101224005883C456D940CB59D64F6883C556D94044
:10123400CA59D64F7883C656D94020E040E050E0E2
:1012440060E070E080910828909109280E94740958
:10125400CE59D64F8881C256D9408F93CF59D64F95
:101264008881C156D9408F939F928F92BF92AF923B
:101274000E945215CC59D64F8881C456D9408F93B9
:10128400CD59D64F8881C356D9408F93DF92CF92E0
:10129400FF92EF920E945215CA59D64F8881C656C2
:1012A400D9408F93CB59D64F8881C556D9408F9357
:1012B4007F926F921F930F930E9452158CE59BE6C9
:1012C4000E943015C5010E943015C7010E943015D7
:1012D400C8010E94301582E390E00E941C17CDBF24
:0412E400DEBF83CF17
:1012E800AF92BF92CF92DF92EF92FF920F931F932C
:1012F800CF93DF93CDB7DEB72597CDBFDEBF8C0187
:101308006B014C835D83A22EB12C7C0188E0E80E32
:10131800F11C0FB6F8940F92F801928D838D9817EF
:1013280018F0F2E0AF1219C04A2DB601C8010E94A8
:101338006A0EF8019189992349F0C80141960E94E3
:101348001408882331F00E94830F03C081110E9482
:10135800830F0F900FBE81E051C08C819D81892B36
:1013680021F40F900FBE80E049C0B11006C0CE0135
:1013780001960E94FA17BB24B3940F900FBE0E94E7
:101388006A180FB6F8940F92F801858D8F3F09F40B
:10139800158EF801868D8F3F09F4168E0F900FBEBB
:1013A800BE016C5F7F4FCE0101960E947F128111B2
:1013B8001FC00FB6F8940F92F801928D0F900FBED0
:1013C800838D98130FC06C817D81C7010E944417DB
:1013D800C8010E94DC0F0E94B90481119ACF0E94B3
:1013E800830F97CFC8010E94DC0F0E94B90491CFE8
:1013F800C8010E94DC0F0E94B90480E02596CDBF89
:10140800DEBFDF91CF911F910F91FF90EF90DF909A
:08141800CF90BF90AF90089542
:101420000BEE14E123E030E041E064E670E082E797
:1014300090E70E94B812809323289093242803ED0C
:1014400015E124E030E040E060E177E28CE790E7EE
:101450000E94B8127C010E94261800E010E020E0F3
:1014600030E0AC0161E080912328909124280E9413
:10147000BE1088EC90E00E941C17C5E2D8E264E63A
:1014800070E080910828909109280E944C070E94E2
:10149000A014209325283093262840932728509382
:1014A00028286093292870932A2820E040E050E003
:1014B00060E070E080910828909109280E947409EA
:1014C0002C813D8180912B2890912C282817390759
:1014D00089F4C7010E9430188111D1CF0E942618CB
:1014E00000E010E020E030E0AC0161E0C7010E94C4
:1014F000BE10C5CF80912328909124280E943018D7
:1015000081110EC00E94261800E010E020E030E0BB
:10151000AC0161E080912328909124280E94BE10A4
:10152000C7010E943018813051F400E010E020E043
:1015300030E040E050E063E0C7010E94BE108C81C3
:0C1540009D8180932B2890932C2899CF3C
:10154C00AF92BF92CF92DF92EF92FF920F931F93C5
:10155C00CF93DF93CDB7DEB72597CDBFDEBF8C0120
:10156C005B014C835D83E12C6C0181E1C80ED11CC5
:10157C000FB6F8940F92F801F28CFF20A9F0B50188
:10158C00C8010E944716FA94F801F28E80858823D0
:10159C0039F0C80108960E94140881110E94830F2B
:1015AC000F900FBE81E052C08C819D81892B21F45C
:1015BC000F900FBE80E04AC0E11006C0CE0101962C
:1015CC000E94FA17EE24E3940F900FBE0E946A1843
:1015DC000FB6F8940F92F801858D8F3F09F4158E94
:1015EC00F801868D8F3F09F4168E0F900FBEBE0149
:1015FC006C5F7F4FCE0101960E947F1281111AC041
:10160C00C8010E94EF17882379F06C817D81C60197
:10161C000E944417C8010E94DC0F0E94B90481117A
:10162C00A7CF0E94830FA4CFC8010E94DC0F0E9499
:10163C00B9049ECFC8010E94DC0F0E94B904C801F6
:10164C000E94EF17882309F493CF80E02596CDBF35
:10165C00DEBFDF91CF911F910F91FF90EF90DF9044
:08166C00CF90BF90AF900895EC
:101674000F931F93CF93DF93FC01892B09F486C04A
:101684002689A0919338B091943856968C91281756
:1016940008F070C084859585992364F0A0919338EF
:1016A400B091943856963C9184E090E0831B910964
:1016B4008487958730E0C901880F991F880F991F87
:1016C400880F991F280F391F235D374C8285938516
:1016D4008217930709F045C0EF018F010E5F1F4F7A
:1016E400C8010E947914E0919338F0919438868966
:1016F4008E8B9091A938981710F48093A93890E0B4
:10170400FC01EE0FFF1FEE0FFF1FEE0FFF1F8E0FEA
:101714009F1FFC01E35DF74C0180F281E02DEC8317
:10172400FD83848195818E839F83A481B5811296E4
:101734000D931C931397048315838E8990E0FC0109
:10174400EE0FFF1FEE0FFF1FEE0FFF1FE80FF91F35
:10175400E35DF74CEA87FB8780818F5F808381E0BC
:1017640016C0A0919338B091943856968C91868B7C
:1017740081E00DC0A0919338B091943881E021A10B
:1017840056969C91291718F080E001C080E0DF9103
:08179400CF911F910F91089500
:10179C00FF920F931F93CF93DF93EC01F62E0091E2
:1017AC008D3810918E3880919338909194380296A0
:1017BC000E947914CF3F8FEFD807B1F5FF20A1F12C
:1017CC00E1E5F8E3A181B281C0919338D0919438CE
:1017DC00AC83BD83C0919338D091943814968D917D
:1017EC009C9115978E839F831496CD91DC911597C0
:1017FC00809193389091943802968A839B83809140
:10180C00933890919438029614968D939C931597D7
:10181C00A0919338B09194381A96ED93FC931B9742
:10182C0080818F5F80832FC0C00FD11FE0919338D0
:10183C00F0919438C283D383C017D10768F46091B8
:10184C0093387091943880918F38909190386E5F66
:10185C007F4F0E948F1317C060919338709194380A
:10186C0080919138909192386E5F7F4F0E948F13C8
:10187C008091893890918A38C817D90720F4C09381
:10188C008938D0938A38DF91CF911F910F91FF90B7
:02189C000895AD
:10189E00EF92FF920F9381E00E94611680930828C9
:1018AE00909309280E948A170E940E1640E066E067
:1018BE0081E00E94491180930D2890930E28E0E25A
:1018CE00F4E080E281838583A0EAB4E080E11296A1
:1018DE008C931297E0E8F4E081E0828382E08283C9
:1018EE0084E0808B818B54968C93E0EAF0E08081CB
:1018FE0080628083E0E0F6E082818F7E8283828147
:10190E008283808181608083828183608283E12CE7
:10191E00F12C00E020E030E04EE650E062EF7EE693
:10192E0082ED98E00E946D0220E030E04EE650E03D
:10193E0068EF7EE682E796E00E946D0220E030E0DE
:10194E004EE650E06CEF7EE680E19AE00E946D027A
:10195E0020E030E04EE650E066E07FE68FEE92E16A
:10196E000E946D0220E030E04EE650E06EE07FE631
:10197E0084EB95E10E946D020E94C01380E090E01E
:08198E000F91FF90EF90089506
:101996000F931F93CF93DF93FC01892B09F466C045
:1019A60091A1961708F4962F8689891709F45EC0C7
:1019B60022A1213009F05AC0968B24853585332320
:1019C60034F024E030E0291B31092487358790E084
:1019D6009C01220F331F220F331F220F331F820F4A
:1019E600931F835D974C2285338528173907F1F5B8
:1019F600EF018F010E5F1F4FC8010E9479148E8977
:101A06009091A938981710F48093A93890E0FC01BA
:101A1600EE0FFF1FEE0FFF1FEE0FFF1F8E0F9F1F14
:101A2600FC01E35DF74C0180F281E02DEC83FD8340
:101A3600848195818E839F83A481B58112960D93AF
:101A46001C931397048315838E8990E0FC01EE0F97
:101A5600FF1FEE0FFF1FEE0FFF1FE80FF91FE35DDD
:101A6600F74CEA87FB8780818F5F8083DF91CF9178
:061A76001F910F9108957D
:101A7C008091A338882321F081E08093A7380895C2
:101A8C001092A7382091A938822F90E0FC01EE0F1C
:101A9C00FF1FEE0FFF1FEE0FFF1FE80FF91FE35D97
:101AAC00F74C3081311111C02150822F90E0FC0194
:101ABC00EE0FFF1FEE0FFF1FEE0FFF1FE80FF91FBA
:101ACC00E35DF74C3081332379F3AC01440F551FA0
:101ADC00440F551F440F551F480F591FDA01A35DC2
:101AEC00B74C1196ED91FC9112970280F381E02D89
:101AFC001196ED93FC931297405D574CE417F50744
:101B0C0029F442815381FD0141835283FC01EE0F84
:101B1C00FF1FEE0FFF1FEE0FFF1F8E0F9F1FFC010D
:101B2C00E35DF74C0180F281E02D868197818093F3
:0C1B3C009338909394382093A9380895B2
:101B4800EF92FF920F931F93CF93DF93FC01362FF1
:101B5800892B09F44CC0238D222309F44AC0022F93
:101B680010E0448DE42EF12C8FEF9FEFB8010E9416
:101B780030176E157F0508F43EC0EF010FB6F894D4
:101B88000F9260817181CB01249F800D911D1124DA
:101B980084839583128E62837383015011090E9D8D
:101BA800C0010F9D900D1E9D900D1124860F971F4B
:101BB800868397838FEF858F868F31110CC0808540
:101BC800882389F0CF0108960E941408882359F0C9
:101BD8000E94830F08C0CF0108960E94A917CE0162
:101BE80041960E94A9170F900FBE81E005C080E0C2
:101BF80003C080E001C080E0DF91CF911F910F9179
:061C0800FF90EF9008952B
:101C0E000F931F93CF93DF93FC01892B09F451C0DF
:101C1E0082A1815082A3268991A1291709F44BC074
:101C2E0081114BC0EF018F010E5F1F4FC8010E9443
:101C3E00791489A18E8B24E030E0281B31092C8782
:101C4E003D879091A938981710F48093A93890E0A9
:101C5E00FC01EE0FFF1FEE0FFF1FEE0FFF1F8E0F8B
:101C6E009F1FFC01E35DF74C0180F281E02DEC83B8
:101C7E00FD83848195818E839F83A481B581129685
:101C8E000D931C93139704831583EE89F0E0CF0117
:101C9E00880F991F880F991F880F991FE80FF91F3A
:101CAE00E35DF74CEA87FB8780818F5F808381E05D
:101CBE0005C080E003C080E001C080E0DF91CF91DD
:061CCE001F910F91089523
:101CD4000F931F93CF93DF93EC01042F1A8D4C8D38
:101CE40041110CC088819981892B09F042C08C81F3
:101CF4009D810E94070E1C821D8242C0011117C0E3
:101D040050E08A819B810E9442182C8D8A819B819C
:101D1400820F911D8A839B832C813D8182179307B7
:101D240050F1888199818A839B8380E029C050E0A7
:101D34008E819F810E9442188C8D90E091958195AF
:101D440091092E813F81280F391F2E833F834881BB
:101D540059812417350730F42C813D81820F931F5C
:101D64008E839F83023049F4112349F0115080E09F
:101D740007C080E005C080E003C080E001C080E0CF
:0E1D84001F5F1A8FDF91CF911F910F9108956D
:101D9200FA01AA27283051F1203181F1E8946F939A
:101DA2006E7F6E5F7F4F8F4F9F4FAF4FB1E03ED040
:101DB200B4E03CD0670F781F891F9A1FA11D680FDE
:101DC200791F8A1F911DA11D6A0F711D811D911D11
:101DD200A11D20D009F468943F912AE0269F112486
:101DE2003019305D3193DEF6CF010895462F4770EA
:101DF200405D4193B3E00FD0C9F7F6CF462F4F7045
:101E0200405D4A3318F0495D31FD4052419302D0A2
:101E1200A9F7EACFB4E0A695979587957795679548
:101E2200BA95C9F700976105710508959B01AC0148
:101E32000A2E06945795479537952795BA95C9F76F
:0C1E4200620F731F841F951FA01D0895E0
:101E4E000F920FB6F8940F921F9211242F923F9279
:101E5E004F925F926F927F928F929F92AF92BF92AC
:101E6E00CF92DF92EF92FF920F931F932F933F9398
:101E7E004F935F936F937F938F939F93AF93BF9384
:101E8E00CF93DF93EF93FF93A0919338B091943853
:101E9E000DB60D920EB60D920E94A00381110E94F6
:101EAE003E0DA0919338B0919438CD91CDBFDD9178
:101EBE00DEBFFF91EF91DF91CF91BF91AF919F91D7
:101ECE008F917F916F915F914F913F912F911F91C4
:101EDE000F91FF90EF90DF90CF90BF90AF909F90BB
:101EEE008F907F906F905F904F903F902F901F90AC
:081EFE000F900FBE0F90189524
:101F06000F920FB6F8940F921F9211242F923F92C0
:101F16004F925F926F927F928F929F92AF92BF92F3
:101F2600CF92DF92EF92FF920F931F932F933F93DF
:101F36004F935F936F937F938F939F93AF93BF93CB
:101F4600CF93DF93EF93FF93A0919338B09194389A
:101F56000DB60D920EB60D920E943E0DA0919338CD
:101F6600B0919438CD91CDBFDD91DEBFFF91EF9159
:101F7600DF91CF91BF91AF919F918F917F916F919B
:101F86005F914F913F912F911F910F91FF90EF908D
:101F9600DF90CF90BF90AF909F908F907F906F9083
:101FA6005F904F903F902F901F900F900FBE0F9015
:021FB60008958C
:101FB800EF92FF920F931F93CF938C010FB6F89473
:101FC8000F92FC01C68D1C16ACF48189811106C0E4
:101FD80011C0F8018189811105C00CC07801F1E1B7
:101FE800EF0EF11CC7010E94140881110E947A1893
:101FF800C15079F78FEFF801868F0F900FBE0FB69B
:10200800F8940F92C58D1C16ACF48085811106C01A
:1020180011C0F8018085811105C00CC07801F8E075
:10202800EF0EF11CC7010E94140881110E947A1852
:10203800C15079F78FEFF801858F0F900FBECF91C0
:0A2048001F910F91FF90EF90089593
:1020520088E1809321048FEF8093610484E690E00D
:102062000E941C172C988CE38DB90FB6F8940F922E
:102072002B9A00C000C02B980F900FBE9CE29A953D
:10208200F1F700C02C988DB90FB6F8940F922B9AE5
:1020920000C000C02B980F900FBE8CE28A95F1F71A
:1020A20000C02C988CE08DB90FB6F8940F922B9A41
:1020B20000C000C02B980F900FBE9CE29A95F1F7DA
:1020C20000C00E94DD162C9886E08DB90FB6F894F8
:1020D2000F922B9A00C000C02B980F900FBE8CE27B
:0820E2008A95F1F700C0089592
:1020EA000F931F93CF93DF93FC018B01A181B281E0
:1020FA008091933890919438EC01AE87BF87809194
:10210A0093389091943814962D913C911597EC013F
:10211A00288B398B14968D919C9115972091933821
:10212A0030919438245F3F4FEC012A833B832091FE
:10213A00933830919438245F3F4F14962D933C93F3
:10214A001597A0919338B09194385496ED93FC93D7
:10215A00559790819F5F9083442311F00FEF1FEFF3
:10216A00642FC8010E94CE0BDF91CF911F910F916E
:02217A000895C6
:10217C000F931F93CF93DF93CDB7DEB72597CDBFCA
:10218C00DEBFE0919938F0919A38309771F1D9010E
:10219C0069834A835B838C839D836630ECF40E9455
:1021AC00B717823061F420E0A801BE016F5F7F4F4A
:1021BC008091993890919A380E94740917C020E048
:1021CC0040E050E0BE016F5F7F4F80919938909155
:1021DC009A380E9474090AC020E0AD01BE016F5FFD
:1021EC007F4FCF010E94CD1101C080E02596CDBF5D
:0C21FC00DEBFDF91CF911F910F9108957D
:102208006115710509F440C0209102283091032816
:102218008217930779F4E0E0F0E005C0E1E0F0E030
:1022280002C0E1E0F0E0EE0FFF1FEE0FFF1FE050ED
:10223800F84D12C02091002830910128232BE1F499
:1022480020910628309107288217930739F3E0E098
:10225800F8E202C0E4E0F8E23097B1F060837183FD
:102268008283938308952091042830910528232B95
:1022780089F3E0E0F0E0F0CF2091062830910728BC
:0A2288008217930771F2EFCF08955B
:102292000F931F93CF93DF93282F362F882361F15B
:1022A200682F70E08FEF9FEF0E943017832F90E02E
:1022B2006817790720F1239FC0011124813E4FEF57
:1022C200940700F5D32FC22F4F960E9445128C011E
:1022D2000097D1F0D11104C0FC018083918304C026
:1022E2004F96F80180839183F801C38FD48F61E008
:1022F200C8010E94A40D08C000E010E005C000E083
:1023020010E002C000E010E0C801DF91CF911F9100
:042312000F9108958A
:102316000F931F93CF93DF938C010E942618EC0135
:102326008091953890919638C817D90738F5E0917D
:102336009D38F0919E388081882381F00580F68152
:10234600E02D6FEF7FEF808191810E944E14E09126
:102356009D38F0919E3880818111F0CF80919B3815
:1023660090919C3880939D3890939E38E0939B384B
:10237600F0939C3881E0F801808302C0F801108256
:10238600C0939538D0939638CE01DF91CF911F91A7
:042396000F91089506
:10239A00EF92FF920F931F93CF93DF938A01FC0171
:1023AA00528D338D531710F0223001F5422F7801E8
:1023BA00EC011E8D8A8DCE010E946A0E1F3F81F4A8
:1023CA0089898823A9F0CE0141960E94140888239E
:1023DA0089F0E114F10481F081E0F70180830DC0F6
:1023EA00FF24F394F10EFE8E81E007C080E005C061
:1023FA0081E003C081E001C081E0DF91CF911F91AC
:08240A000F91FF90EF9008957F
:102412000F931F93CF93DF93FB01238121FD03C011
:102422008FEF9FEF2CC022FF16C046815781248177
:1024320035814217530744F4A081B1819D012F5F7A
:102442003F4F208331838C93268137812F5F3F4F0B
:102452002683378314C08B01EC01FB010084F185D4
:10246200E02D0995892BE1F6D80116968D919C9164
:102472001797019616968D939C931797CE01DF912D
:08248200CF911F910F91089505
:10248A00CF93DF93EC010E946A1880919F38909154
:10249A00A038892B31F48DE298E280939F3890938B
:1024AA00A0382097C9F08091A1389091A2389E0156
:1024BA00280F391F2F3F4FE0340788F482179307FC
:1024CA0088F4C0919F38D091A038C80FD91F2093A3
:1024DA00A1383093A23808C0C0E0D0E005C0C0E0FF
:1024EA00D0E002C0C0E0D0E00E94B904CE01DF9182
:0424FA00CF910895E1
:1024FE00CF93DF930FB6F8940F9220918D383091D1
:10250E008E38DB014D915C914F3FBFEF5B0719F1A8
:10251E00EC01E981FA81A091A638B881BA1741F091
:10252E002E173F0728F0FB011082118281E014C0A4
:10253E002E1B3F0B2417350748F4FB01421B530B90
:10254E00408351830E94FA1780E006C0DB011D9282
:10255E001C9281E001C080E00F900FBEDF91CF9101
:02256E000895CE
:102570008F929F92AF92BF92CF92DF92FF920F9372
:102580001F93CF93DF934C015B01F42E690183E12C
:1025900090E00E944512EC01892BA1F01A8A0E945A
:1025A0001F1488829982AC86BD86CE86DF86088B12
:1025B000198BCE0102960E947618FF2019F08A89A5
:1025C00084608A8BCE01DF91CF911F910F91FF9094
:0E25D000DF90CF90BF90AF909F908F900895B6
:1025DE00CF93DF93CDB7DEB72697CDBFDEBF88ECA6
:1025EE0090E00E941C1764E670E08091082890919C
:1025FE0009280E944C070E94A01429833A834B831A
:10260E005C836D837E8322E040E050E0BE016F5F0D
:10261E007F4F80910D2890910E280E94740920E022
:10262E0040E050E060E070E0809108289091092829
:0E263E000E94740984E690E00E941C17D4CF1D
:10264C00E0E8FAE085E09DE08487958781E085836A
:10265C008083A0919338B0919438CD91CDBFDD910A
:10266C00DEBFFF91EF91DF91CF91BF91AF919F9121
:10267C008F917F916F915F914F913F912F911F910E
:10268C000F91FF90EF90DF90CF90BF90AF909F9005
:10269C008F907F906F905F904F903F902F901F90F6
:0A26AC000F900FBE0F9008950895DF
:1026B600CF93DF93CDB7DEB72697CDBFDEBF64E6F7
:1026C60070E080910828909109280E944C070E948A
:1026D600A0144B835C836D837E8320E040E050E052
:1026E60060E070E080910828909109280E947409A2
:1026F6002B813C818D819E818217930720F480E295
:102706008093A50403C080E28093A6042696CDBFDD
:08271600DEBFDF91CF910895B1
:10271E00CF93DF93EB01488159814F3F2FEF520743
:10272E0021F4FC01A781B0850DC0DC01139601C018
:10273E00DF011296ED91FC911397208131814217A2
:10274E005307B0F71296ED91FC911397EA83FB8332
:10275E00C483D583AC83BD831296CD93DC9313973C
:10276E0088879987FC0120812F5F2083DF91CF918D
:02277E000895BC
:10278000EF92FF920F930F2EF7E8EF2EF8E3FF2E54
:10279000F02D00E020E030E04EE650E06CEF70E716
:1027A0008BE498E10E946D028130A1F40E940E1525
:1027B000813081F4F8948FEF9FEF80938938909364
:1027C0008A3881E08093A83810928D3810928E3824
:1027D0000E9426138091A4380F91FF90EF900895E6
:1027E000FC0162837383808791874617570790F0B7
:1027F000421B530B8485958548175907E0F4BF01A8
:102800006E5F7F4F80919B3890919C380E948F1310
:1028100080E008954217530718F46217730768F4AD
:10282000BF016E5F7F4F80919D3890919E380E94CE
:0E2830008F1380E0089581E0089581E00895FF
:10283E000FB6F8940F928091993890919A38892B0F
:10284E0019F58EE798E30E94A91785E798E30E9491
:10285E00A9178EE798E380939D3890939E3885E76D
:10286E0098E380939B3890939C3840E065E085E038
:10287E000E9449118093993890939A38009721F0CD
:0E288E0066EC70E70E9404110F900FBE0895D3
:10289C00EF92FF920F931F93CF93DF938C017B01E9
:1028AC00E0919D38F0919E380580F681E02DC6812F
:1028BC00D781CE0102960E9479148A8982FF06C0C4
:1028CC00A701B801CE010E94C71402C08E7F8A8B6B
:1028DC00E889F989CE010995DF91CF911F910F916C
:0628EC00FF90EF9008953B
:1028F200CF93DF93FC01A085B185C281D38184810E
:1029020095818C839D83C481D581828193818A83C1
:102912009B8311968D919C911297E817F90731F4D8
:102922008481958111968D939C93129710861186BE
:0E2932008C9181508C938C91DF91CF91089500
:10294000EF92FF920F931F93CF93DF93CDB7DEB734
:102950002697CDBFDEBF0E94C517082FE92E0E9423
:10296000D317182FF92E0E94E117202F3E2D412F4B
:102970005F2D682F792F80E090E02696CDBFDEBFD7
:0E298000DF91CF911F910F91FF90EF9008957E
:10298E00EF92FF920F931F93CF93DF93EC018B0186
:10299E007A0108C08C859D85080F191FE889F98971
:1029AE00CE0109956C857D85600F711F9801A70179
:1029BE00CE010E94F0138111EDCFDF91CF911F91C7
:0829CE000F91FF90EF900895B6
:1029D6002091252830912628C901880F991F220F9A
:1029E600331F220F331F220F331F820F931F6FEFE8
:1029F60073E00E94301729E939E1629FC001639FA5
:102A0600900D729F900D1124809590958093BC0A2D
:062A16009093BD0A089533
:102A1C00EF92FF920F930E941F148091993890911E
:102A2C009A38892B91F00F2EF7E9EF2EF8E3FF2E51
:102A3C00F02D03E020E030E04CED50E06BEC70E763
:102A4C0087E995E00E946D0201C080E00F91FF9034
:042A5C00EF9008955A
:102A6000EF92FF920F931F93CF93DF938C017C0122
:102A7000C0E0D0E006C0F70181917F010E945B18A1
:102A80002196F80101900020E9F73197E01BF10B46
:102A9000CE17DF0780F3DF91CF911F910F91FF9049
:042AA000EF90089516
:102AA400AEE0B0E0E8E5F5E10C94A2160D891E89CC
:102AB40086E08C8309831A838FEF9FE78D839E833F
:102AC400AE01475E5F4F6F89788DCE0101960E94FB
:102AD4008C00EF81F885E00FF11F10822E96E4E060
:042AE4000C94D31665
:102AE8002C98282F217030E00024369527950794DC
:102AF800369527950794322F202D603108F06FE026
:102B08006068622B6DB90FB6F8940F922B9A00C0CB
:102B180000C02B980F900FBE8CE28A95F1F700C089
:022B280008950E
:102B2A004C44522076616C75653A20282564292028
:102B3A00004E54432076616C75653A202825642935
:102B4A002000504D2076616C75653A20282564294D
:0E2B5A0020000A0D56616C756573202D200059
:102B680080E28093A1040BE513E125E030E041E029
:102B780064E670E086E091E70E94B812EC010E94DA
:102B8800261800E010E020E030E0AC0161E0CE0162
:0E2B98000E94BE1088EC90E00E941C17FFCF38
:102BA6000F931F9380912328909124280E94301818
:102BB600813069F400E010E020E030E040E050E0D1
:102BC60063E080912328909124280E94BE101092E1
:0C2BD600BC0A1092BD0A1F910F910895D7
:102BE200CF93DF93EC010FB6F8940F928D8D8F3F48
:102BF20009F41D8E8E8D8F3F09F41E8E0F900FBE2D
:102C02008A8D811104C0CE0141960E947510CE01B9
:0A2C12000E94DC0FDF91CF910895BE
:102C1C00E0E2F4E0808180628083E4E2F4E0808191
:102C2C0080628083E0EBFAE08FEF90E884879587F1
:102C3C0080818160808380818260808381818061DA
:0A2C4C0081838181876081830895F0
:102C5600E0919138F09192388081811107C08FEF11
:102C66009FEF8093893890938A380895E091913840
:102C7600F09192380580F681E02D808191818093D4
:082C8600893890938A38089503
:102C8E00FC01448D4423A9F050E026813781240FA6
:102C9E00351F26833783848195812817390720F0C5
:102CAE008081918186839783CB01668177810E9493
:042CBE00421808951B
:102CC200CF93DF93482F60E081E00E944911EC012D
:102CD200009761F01C821D82188219821E8220E0F8
:102CE20040E050E060E070E00E947409CE01DF91A4
:042CF200CF910895E1
:102CF60080910A28883121F491E090930B280DC029
:102D0600811103C010920B2804C090910B289111D9
:102D160004C08F5F80930A280895815080930A2803
:022D260008950E
:102D28002F923F924F925F926F927F928F929F92D3
:102D3800AF92BF92CF92DF92EF92FF920F931F93C1
:102D4800CF93DF93CDB7DEB7CA1BDB0BCDBFDEBF9A
:022D58000994DC
:102D5A00FC012081222399F02C9A81918DB90FB61A
:102D6A00F8940F922B9A00C000C02B980F900FBEB8
:102D7A008CE28A95F1F700C080818111EDCF089528
:102D8A002A88398848885F846E847D848C849B84F1
:102D9A00AA84B984C884DF80EE80FD800C811B81FF
:102DAA00AA81B981CE0FD11DCDBFDEBFED01089535
:102DBA002C9881E08DB90FB6F8940F922B9A00C027
:102DCA0000C02B980F900FBE8CE28A95F1F700C0D5
:0A2DDA0082E090E00E941C170895AB
:102DE40074696D6572007363726F6C6C004C44524D
:102DF4003A2028256429004E54433A202825642982
:0A2E040000504D3A202825642900F3
:102E0E004454454B3030363820456D6265646465F8
:102E1E0064204D6963726F70726F636573736F7246
:092E2E002053797374656D730083
:012E37000397
:102E3800CF93DF93EC01892B51F00E946A1860E070
:102E4800CE010E94CE0B0E94B904811102C00E94DB
:082E5800830FDF91CF91089573
:102E6000AA1BBB1B51E107C0AA1FBB1FA617B707B0
:102E700010F0A61BB70B881F991F5A95A9F78095CC
:082E80009095BC01CD010895FD
:102E8800CF93DF93EB016091933870919438645F2E
:102E98007F4F0E948F1361E0CE010E94CE0BDF911D
:042EA800CF91089529
:102EAC008091933890919438892B39F0E091933834
:102EBC00F091943882A18F5F82A380919338909186
:042ECC009438089599
:102ED000FC0160833197708331971082319720E82D
:102EE000208331971082779740833197508383975F
:022EF000089543
:102EF2007072696E74006C6364006261636B6C690A
:102F020067687400646973706C61790064756D6DD3
:022F1200790044
:102F1400E0E0F4E081E0818382E08283E0E0F8E0B5
:102F24008DE695E080879187868180648683089505
:102F3400FB01DC014150504048F001900D9200200B
:0E2F4400C9F701C01D9241505040E0F70895BA
:102F5200FC010396818392832FEF3FEF2383348317
:0C2F6200858396838783908710820895F2
:102F6E008091A838882331F08091A338882321F0EE
:0C2F7E0080E0089581E0089582E008954D
:102F8A00E0E0F6E088E0868381E08087838580FF41
:0C2F9A00FDCF8091100690911106089563
:102FA600E0E0F6E089E0868381E08087838580FF24
:0C2FB600FDCF8091100690911106089547
:102FC200E0E0F6E08EE0868381E08087838580FF03
:0C2FD200FDCF809110069091110608952B
:102FDE000FB6F8940F92FC01928D0F900FBE81E008
:062FEE00911180E008953E
:102FF4002091A638FC01208320918D3830918E38A1
:06300400218332830895D0
:10300A0080910C28823019F410920C2808958F5F51
:06301A0080930C280895CC
:10302000FC010590615070400110D8F78095909593
:063030008E0F9F1F0895A2
:10303600FC016150704001900110D8F78095909581
:063046008E0F9F1F08958C
:10304C000FB6F8940F9280918D3890918E380F9026
:04305C000FBE089506
:103060000FB6F8940F920F900FBEFC018289817009
:023070000895C1
:103072006261636B6C696768740074696D656F7512
:023082007400D8
:10308400FB01DC0102C001900D9241505040D8F781
:0230940008959D
:10309600CDE2D8E388818230E8F30E94830FFACF2D
:1030A6000F9301E00093860A0F910E94270F18954F
:1030B600E0E0F8E0948195FFFDCF80930208089543
:0D30C600546D725100546D722053766300FA
:0C30D4008091A3388F5F8093A33808958B
:0C30E000EE0FFF1F0590F491E02D099405
:0830EC00FC0110861186089515
:0830F40081E08093A7380895E4
:0530FC0049444C4500B1
:043102000C94000029
:043106006C65640090
:02310A00089526
:00000001FF
